{
  "address": "0x3D1bc7e59f1858A1c5CF57Eb816B70B18e285998",
  "abi": [
    {
      "inputs": [
        {
          "internalType": "int256",
          "name": "membership_status",
          "type": "int256"
        },
        {
          "internalType": "string",
          "name": "lowSvg",
          "type": "string"
        },
        {
          "internalType": "string",
          "name": "highSvg",
          "type": "string"
        },
        {
          "internalType": "string",
          "name": "Fit",
          "type": "string"
        },
        {
          "internalType": "string",
          "name": "Attributes",
          "type": "string"
        }
      ],
      "stateMutability": "nonpayable",
      "type": "constructor"
    },
    {
      "inputs": [],
      "name": "ERC721Metadata__URI_QueryFor_NonExistentToken",
      "type": "error"
    },
    {
      "anonymous": false,
      "inputs": [
        {
          "indexed": true,
          "internalType": "address",
          "name": "owner",
          "type": "address"
        },
        {
          "indexed": true,
          "internalType": "address",
          "name": "approved",
          "type": "address"
        },
        {
          "indexed": true,
          "internalType": "uint256",
          "name": "tokenId",
          "type": "uint256"
        }
      ],
      "name": "Approval",
      "type": "event"
    },
    {
      "anonymous": false,
      "inputs": [
        {
          "indexed": true,
          "internalType": "address",
          "name": "owner",
          "type": "address"
        },
        {
          "indexed": true,
          "internalType": "address",
          "name": "operator",
          "type": "address"
        },
        {
          "indexed": false,
          "internalType": "bool",
          "name": "approved",
          "type": "bool"
        }
      ],
      "name": "ApprovalForAll",
      "type": "event"
    },
    {
      "anonymous": false,
      "inputs": [
        {
          "indexed": true,
          "internalType": "uint256",
          "name": "tokenId",
          "type": "uint256"
        },
        {
          "indexed": false,
          "internalType": "int256",
          "name": "membership_status",
          "type": "int256"
        }
      ],
      "name": "CreatedNFT",
      "type": "event"
    },
    {
      "anonymous": false,
      "inputs": [
        {
          "indexed": true,
          "internalType": "address",
          "name": "previousOwner",
          "type": "address"
        },
        {
          "indexed": true,
          "internalType": "address",
          "name": "newOwner",
          "type": "address"
        }
      ],
      "name": "OwnershipTransferred",
      "type": "event"
    },
    {
      "anonymous": false,
      "inputs": [
        {
          "indexed": true,
          "internalType": "address",
          "name": "from",
          "type": "address"
        },
        {
          "indexed": true,
          "internalType": "address",
          "name": "to",
          "type": "address"
        },
        {
          "indexed": true,
          "internalType": "uint256",
          "name": "tokenId",
          "type": "uint256"
        }
      ],
      "name": "Transfer",
      "type": "event"
    },
    {
      "inputs": [
        {
          "internalType": "address",
          "name": "to",
          "type": "address"
        },
        {
          "internalType": "uint256",
          "name": "tokenId",
          "type": "uint256"
        }
      ],
      "name": "approve",
      "outputs": [],
      "stateMutability": "nonpayable",
      "type": "function"
    },
    {
      "inputs": [
        {
          "internalType": "address",
          "name": "owner",
          "type": "address"
        }
      ],
      "name": "balanceOf",
      "outputs": [
        {
          "internalType": "uint256",
          "name": "",
          "type": "uint256"
        }
      ],
      "stateMutability": "view",
      "type": "function"
    },
    {
      "inputs": [
        {
          "internalType": "uint256",
          "name": "tokenId",
          "type": "uint256"
        }
      ],
      "name": "getApproved",
      "outputs": [
        {
          "internalType": "address",
          "name": "",
          "type": "address"
        }
      ],
      "stateMutability": "view",
      "type": "function"
    },
    {
      "inputs": [],
      "name": "getAttributes",
      "outputs": [
        {
          "internalType": "string",
          "name": "",
          "type": "string"
        }
      ],
      "stateMutability": "view",
      "type": "function"
    },
    {
      "inputs": [],
      "name": "getFit",
      "outputs": [
        {
          "internalType": "string",
          "name": "",
          "type": "string"
        }
      ],
      "stateMutability": "view",
      "type": "function"
    },
    {
      "inputs": [],
      "name": "getHighSVG",
      "outputs": [
        {
          "internalType": "string",
          "name": "",
          "type": "string"
        }
      ],
      "stateMutability": "view",
      "type": "function"
    },
    {
      "inputs": [],
      "name": "getLowSVG",
      "outputs": [
        {
          "internalType": "string",
          "name": "",
          "type": "string"
        }
      ],
      "stateMutability": "view",
      "type": "function"
    },
    {
      "inputs": [],
      "name": "getTokenCounter",
      "outputs": [
        {
          "internalType": "uint256",
          "name": "",
          "type": "uint256"
        }
      ],
      "stateMutability": "view",
      "type": "function"
    },
    {
      "inputs": [],
      "name": "getmembershipStatus",
      "outputs": [
        {
          "internalType": "int256",
          "name": "",
          "type": "int256"
        }
      ],
      "stateMutability": "view",
      "type": "function"
    },
    {
      "inputs": [
        {
          "internalType": "address",
          "name": "owner",
          "type": "address"
        },
        {
          "internalType": "address",
          "name": "operator",
          "type": "address"
        }
      ],
      "name": "isApprovedForAll",
      "outputs": [
        {
          "internalType": "bool",
          "name": "",
          "type": "bool"
        }
      ],
      "stateMutability": "view",
      "type": "function"
    },
    {
      "inputs": [
        {
          "internalType": "int256",
          "name": "membership_status",
          "type": "int256"
        }
      ],
      "name": "mintNft",
      "outputs": [],
      "stateMutability": "nonpayable",
      "type": "function"
    },
    {
      "inputs": [],
      "name": "name",
      "outputs": [
        {
          "internalType": "string",
          "name": "",
          "type": "string"
        }
      ],
      "stateMutability": "view",
      "type": "function"
    },
    {
      "inputs": [],
      "name": "owner",
      "outputs": [
        {
          "internalType": "address",
          "name": "",
          "type": "address"
        }
      ],
      "stateMutability": "view",
      "type": "function"
    },
    {
      "inputs": [
        {
          "internalType": "uint256",
          "name": "tokenId",
          "type": "uint256"
        }
      ],
      "name": "ownerOf",
      "outputs": [
        {
          "internalType": "address",
          "name": "",
          "type": "address"
        }
      ],
      "stateMutability": "view",
      "type": "function"
    },
    {
      "inputs": [],
      "name": "renounceOwnership",
      "outputs": [],
      "stateMutability": "nonpayable",
      "type": "function"
    },
    {
      "inputs": [
        {
          "internalType": "address",
          "name": "from",
          "type": "address"
        },
        {
          "internalType": "address",
          "name": "to",
          "type": "address"
        },
        {
          "internalType": "uint256",
          "name": "tokenId",
          "type": "uint256"
        }
      ],
      "name": "safeTransferFrom",
      "outputs": [],
      "stateMutability": "nonpayable",
      "type": "function"
    },
    {
      "inputs": [
        {
          "internalType": "address",
          "name": "from",
          "type": "address"
        },
        {
          "internalType": "address",
          "name": "to",
          "type": "address"
        },
        {
          "internalType": "uint256",
          "name": "tokenId",
          "type": "uint256"
        },
        {
          "internalType": "bytes",
          "name": "data",
          "type": "bytes"
        }
      ],
      "name": "safeTransferFrom",
      "outputs": [],
      "stateMutability": "nonpayable",
      "type": "function"
    },
    {
      "inputs": [
        {
          "internalType": "address",
          "name": "operator",
          "type": "address"
        },
        {
          "internalType": "bool",
          "name": "approved",
          "type": "bool"
        }
      ],
      "name": "setApprovalForAll",
      "outputs": [],
      "stateMutability": "nonpayable",
      "type": "function"
    },
    {
      "inputs": [
        {
          "internalType": "string",
          "name": "Attributes",
          "type": "string"
        }
      ],
      "name": "setAttributes",
      "outputs": [],
      "stateMutability": "nonpayable",
      "type": "function"
    },
    {
      "inputs": [
        {
          "internalType": "string",
          "name": "Fit",
          "type": "string"
        }
      ],
      "name": "setFit",
      "outputs": [],
      "stateMutability": "nonpayable",
      "type": "function"
    },
    {
      "inputs": [
        {
          "internalType": "int256",
          "name": "status",
          "type": "int256"
        },
        {
          "internalType": "uint256",
          "name": "tokenId",
          "type": "uint256"
        }
      ],
      "name": "setMembership",
      "outputs": [],
      "stateMutability": "nonpayable",
      "type": "function"
    },
    {
      "inputs": [
        {
          "internalType": "bytes4",
          "name": "interfaceId",
          "type": "bytes4"
        }
      ],
      "name": "supportsInterface",
      "outputs": [
        {
          "internalType": "bool",
          "name": "",
          "type": "bool"
        }
      ],
      "stateMutability": "view",
      "type": "function"
    },
    {
      "inputs": [
        {
          "internalType": "string",
          "name": "svg",
          "type": "string"
        }
      ],
      "name": "svgToImageURI",
      "outputs": [
        {
          "internalType": "string",
          "name": "",
          "type": "string"
        }
      ],
      "stateMutability": "pure",
      "type": "function"
    },
    {
      "inputs": [],
      "name": "symbol",
      "outputs": [
        {
          "internalType": "string",
          "name": "",
          "type": "string"
        }
      ],
      "stateMutability": "view",
      "type": "function"
    },
    {
      "inputs": [
        {
          "internalType": "uint256",
          "name": "tokenId",
          "type": "uint256"
        }
      ],
      "name": "tokenURI",
      "outputs": [
        {
          "internalType": "string",
          "name": "",
          "type": "string"
        }
      ],
      "stateMutability": "view",
      "type": "function"
    },
    {
      "inputs": [
        {
          "internalType": "address",
          "name": "from",
          "type": "address"
        },
        {
          "internalType": "address",
          "name": "to",
          "type": "address"
        },
        {
          "internalType": "uint256",
          "name": "tokenId",
          "type": "uint256"
        }
      ],
      "name": "transferFrom",
      "outputs": [],
      "stateMutability": "nonpayable",
      "type": "function"
    },
    {
      "inputs": [
        {
          "internalType": "address",
          "name": "newOwner",
          "type": "address"
        }
      ],
      "name": "transferOwnership",
      "outputs": [],
      "stateMutability": "nonpayable",
      "type": "function"
    }
  ],
  "transactionHash": "0x912893718fba3421e7cda7059a83d4a2bf1411a6ea83b7a7a772b9c9eeecd34c",
  "args": [
    1,
    "<?xml version=\"1.0\" standalone=\"no\"?>\n<svg width=\"1024px\" height=\"1024px\" viewBox=\"0 0 1024 1024\" xmlns=\"http://www.w3.org/2000/svg\">\n  <path fill=\"#333\" d=\"M512 64C264.6 64 64 264.6 64 512s200.6 448 448 448 448-200.6 448-448S759.4 64 512 64zm0 820c-205.4 0-372-166.6-372-372s166.6-372 372-372 372 166.6 372 372-166.6 372-372 372z\"/>\n  <path fill=\"#E6E6E6\" d=\"M512 140c-205.4 0-372 166.6-372 372s166.6 372 372 372 372-166.6 372-372-166.6-372-372-372zM288 421a48.01 48.01 0 0 1 96 0 48.01 48.01 0 0 1-96 0zm376 272h-48.1c-4.2 0-7.8-3.2-8.1-7.4C604 636.1 562.5 597 512 597s-92.1 39.1-95.8 88.6c-.3 4.2-3.9 7.4-8.1 7.4H360a8 8 0 0 1-8-8.4c4.4-84.3 74.5-151.6 160-151.6s155.6 67.3 160 151.6a8 8 0 0 1-8 8.4zm24-224a48.01 48.01 0 0 1 0-96 48.01 48.01 0 0 1 0 96z\"/>\n  <path fill=\"#333\" d=\"M288 421a48 48 0 1 0 96 0 48 48 0 1 0-96 0zm224 112c-85.5 0-155.6 67.3-160 151.6a8 8 0 0 0 8 8.4h48.1c4.2 0 7.8-3.2 8.1-7.4 3.7-49.5 45.3-88.6 95.8-88.6s92 39.1 95.8 88.6c.3 4.2 3.9 7.4 8.1 7.4H664a8 8 0 0 0 8-8.4C667.6 600.3 597.5 533 512 533zm128-112a48 48 0 1 0 96 0 48 48 0 1 0-96 0z\"/>\n</svg>\n",
    "<svg viewBox=\"0 0 200 200\" width=\"400\"  height=\"400\" xmlns=\"http://www.w3.org/2000/svg\">\n  <circle cx=\"100\" cy=\"100\" fill=\"yellow\" r=\"78\" stroke=\"black\" stroke-width=\"3\"/>\n  <g class=\"eyes\">\n    <circle cx=\"61\" cy=\"82\" r=\"12\"/>\n    <circle cx=\"127\" cy=\"82\" r=\"12\"/>\n  </g>\n  <path d=\"m136.81 116.53c.69 26.17-64.11 42-81.52-.73\" style=\"fill:none; stroke: black; stroke-width: 3;\"/>\n</svg>",
    "[{\"trait_type\": \"head\", \"value\": \"none\"},{\"trait_type\": \"outer_chest\", \"value\": \"none\"},{\"trait_type\": \"inner_chest\", \"value\": \"nude\"},{\"trait_type\": \"legs\", \"value\": \"none\"},{\"trait_type\": \"feet\", \"value\": \"none\"}]",
    "[{\"trait_type\": \"Rank\", \"value\": \"King\"},{\"trait_type\": \"suit\", \"value\": \"diamonds\"}]"
  ],
  "numDeployments": 1,
  "solcInputHash": "41754b84da7228ce1845cc5700750316",
  "bytecode": "0x60806040523480156200001157600080fd5b50604051620040dc380380620040dc83398181016040528101906200003791906200071d565b6040518060400160405280600f81526020017f44796e616d696320535647204e465400000000000000000000000000000000008152506040518060400160405280600381526020017f44534e00000000000000000000000000000000000000000000000000000000008152508160009080519060200190620000bb92919062000495565b508060019080519060200190620000d492919062000495565b505050620000f7620000eb6200019560201b60201c565b6200019d60201b60201c565b600060078190555084600a8190555081600c90805190602001906200011e92919062000495565b5080600b90805190602001906200013792919062000495565b5062000149846200026360201b60201c565b600890805190602001906200016092919062000495565b5062000172836200026360201b60201c565b600990805190602001906200018992919062000495565b50505050505062000a72565b600033905090565b6000600660009054906101000a900473ffffffffffffffffffffffffffffffffffffffff16905081600660006101000a81548173ffffffffffffffffffffffffffffffffffffffff021916908373ffffffffffffffffffffffffffffffffffffffff1602179055508173ffffffffffffffffffffffffffffffffffffffff168173ffffffffffffffffffffffffffffffffffffffff167f8be0079c531659141344cd1fd0a4f28419497f9722a3daafe3b4186f6b6457e060405160405180910390a35050565b606060006040518060400160405280601a81526020017f646174613a696d6167652f7376672b786d6c3b6261736536342c00000000000081525090506000620002d884604051602001620002b891906200086e565b6040516020818303038152906040526200030760201b620012621760201c565b90508181604051602001620002ef92919062000887565b60405160208183030381529060405292505050919050565b60606000825114156200032c5760405180602001604052806000815250905062000490565b60006040518060600160405280604081526020016200409c60409139905060006003600285516200035e9190620008e8565b6200036a919062000974565b6004620003789190620009ac565b905060006020826200038b9190620008e8565b67ffffffffffffffff811115620003a757620003a6620005af565b5b6040519080825280601f01601f191660200182016040528015620003da5781602001600182028036833780820191505090505b509050818152600183018586518101602084015b818310156200044b576003830192508251603f8160121c168501518253600182019150603f81600c1c168501518253600182019150603f8160061c168501518253600182019150603f8116850151825360018201915050620003ee565b600389510660018114620004685760028114620004795762000484565b613d3d60f01b600283035262000484565b603d60f81b60018303525b50505050508093505050505b919050565b828054620004a39062000a3c565b90600052602060002090601f016020900481019282620004c7576000855562000513565b82601f10620004e257805160ff191683800117855562000513565b8280016001018555821562000513579182015b8281111562000512578251825591602001919060010190620004f5565b5b50905062000522919062000526565b5090565b5b808211156200054157600081600090555060010162000527565b5090565b6000604051905090565b600080fd5b600080fd5b6000819050919050565b6200056e8162000559565b81146200057a57600080fd5b50565b6000815190506200058e8162000563565b92915050565b600080fd5b600080fd5b6000601f19601f8301169050919050565b7f4e487b7100000000000000000000000000000000000000000000000000000000600052604160045260246000fd5b620005e9826200059e565b810181811067ffffffffffffffff821117156200060b576200060a620005af565b5b80604052505050565b60006200062062000545565b90506200062e8282620005de565b919050565b600067ffffffffffffffff821115620006515762000650620005af565b5b6200065c826200059e565b9050602081019050919050565b60005b83811015620006895780820151818401526020810190506200066c565b8381111562000699576000848401525b50505050565b6000620006b6620006b08462000633565b62000614565b905082815260208101848484011115620006d557620006d462000599565b5b620006e284828562000669565b509392505050565b600082601f83011262000702576200070162000594565b5b8151620007148482602086016200069f565b91505092915050565b600080600080600060a086880312156200073c576200073b6200054f565b5b60006200074c888289016200057d565b955050602086015167ffffffffffffffff81111562000770576200076f62000554565b5b6200077e88828901620006ea565b945050604086015167ffffffffffffffff811115620007a257620007a162000554565b5b620007b088828901620006ea565b935050606086015167ffffffffffffffff811115620007d457620007d362000554565b5b620007e288828901620006ea565b925050608086015167ffffffffffffffff81111562000806576200080562000554565b5b6200081488828901620006ea565b9150509295509295909350565b600081519050919050565b600081905092915050565b6000620008448262000821565b6200085081856200082c565b93506200086281856020860162000669565b80840191505092915050565b60006200087c828462000837565b915081905092915050565b600062000895828562000837565b9150620008a3828462000837565b91508190509392505050565b6000819050919050565b7f4e487b7100000000000000000000000000000000000000000000000000000000600052601160045260246000fd5b6000620008f582620008af565b91506200090283620008af565b9250827fffffffffffffffffffffffffffffffffffffffffffffffffffffffffffffffff038211156200093a5762000939620008b9565b5b828201905092915050565b7f4e487b7100000000000000000000000000000000000000000000000000000000600052601260045260246000fd5b60006200098182620008af565b91506200098e83620008af565b925082620009a157620009a062000945565b5b828204905092915050565b6000620009b982620008af565b9150620009c683620008af565b9250817fffffffffffffffffffffffffffffffffffffffffffffffffffffffffffffffff048311821515161562000a025762000a01620008b9565b5b828202905092915050565b7f4e487b7100000000000000000000000000000000000000000000000000000000600052602260045260246000fd5b6000600282049050600182168062000a5557607f821691505b6020821081141562000a6c5762000a6b62000a0d565b5b50919050565b61361a8062000a826000396000f3fe608060405234801561001057600080fd5b50600436106101a95760003560e01c8063715018a6116100f9578063c87b56dd11610097578063ed28a12211610071578063ed28a122146104ba578063f2fde38b146104d8578063f4ce7ce2146104f4578063fdd8c14314610512576101a9565b8063c87b56dd1461043e578063e310bb361461046e578063e985e9c51461048a576101a9565b806395d89b41116100d357806395d89b41146103ca578063a22cb465146103e8578063b7d71c5014610404578063b88d4fde14610422576101a9565b8063715018a61461038457806376f6056b1461038e5780638da5cb5b146103ac576101a9565b80631e9308121161016657806342842e0e1161014057806342842e0e146102ea5780636352211e146103065780636e02007d1461033657806370a0823114610354576101a9565b80631e9308121461028257806323b872dd1461029e57806330d871c6146102ba576101a9565b806301ffc9a7146101ae57806306fdde03146101de578063081812fc146101fc578063095ea7b31461022c5780630a09f8db14610248578063152583de14610264575b600080fd5b6101c860048036038101906101c39190612214565b61052e565b6040516101d5919061225c565b60405180910390f35b6101e6610610565b6040516101f39190612310565b60405180910390f35b61021660048036038101906102119190612368565b6106a2565b60405161022391906123d6565b60405180910390f35b6102466004803603810190610241919061241d565b6106e8565b005b610262600480360381019061025d9190612493565b610800565b005b61026c610825565b6040516102799190612310565b60405180910390f35b61029c600480360381019061029791906124d3565b6108b7565b005b6102b860048036038101906102b39190612500565b61092f565b005b6102d460048036038101906102cf9190612688565b61098f565b6040516102e19190612310565b60405180910390f35b61030460048036038101906102ff9190612500565b610a22565b005b610320600480360381019061031b9190612368565b610a42565b60405161032d91906123d6565b60405180910390f35b61033e610ac9565b60405161034b91906126e0565b60405180910390f35b61036e600480360381019061036991906126fb565b610ad3565b60405161037b91906126e0565b60405180910390f35b61038c610b8b565b005b610396610b9f565b6040516103a39190612310565b60405180910390f35b6103b4610c31565b6040516103c191906123d6565b60405180910390f35b6103d2610c5b565b6040516103df9190612310565b60405180910390f35b61040260048036038101906103fd9190612754565b610ced565b005b61040c610d03565b6040516104199190612310565b60405180910390f35b61043c60048036038101906104379190612835565b610d95565b005b61045860048036038101906104539190612368565b610df7565b6040516104659190612310565b60405180910390f35b61048860048036038101906104839190612688565b61107a565b005b6104a4600480360381019061049f91906128b8565b611094565b6040516104b1919061225c565b60405180910390f35b6104c2611128565b6040516104cf9190612310565b60405180910390f35b6104f260048036038101906104ed91906126fb565b6111ba565b005b6104fc61123e565b6040516105099190612907565b60405180910390f35b61052c60048036038101906105279190612688565b611248565b005b60007f80ac58cd000000000000000000000000000000000000000000000000000000007bffffffffffffffffffffffffffffffffffffffffffffffffffffffff1916827bffffffffffffffffffffffffffffffffffffffffffffffffffffffff191614806105f957507f5b5e139f000000000000000000000000000000000000000000000000000000007bffffffffffffffffffffffffffffffffffffffffffffffffffffffff1916827bffffffffffffffffffffffffffffffffffffffffffffffffffffffff1916145b806106095750610608826113db565b5b9050919050565b60606000805461061f90612951565b80601f016020809104026020016040519081016040528092919081815260200182805461064b90612951565b80156106985780601f1061066d57610100808354040283529160200191610698565b820191906000526020600020905b81548152906001019060200180831161067b57829003601f168201915b5050505050905090565b60006106ad82611445565b6004600083815260200190815260200160002060009054906101000a900473ffffffffffffffffffffffffffffffffffffffff169050919050565b60006106f382610a42565b90508073ffffffffffffffffffffffffffffffffffffffff168373ffffffffffffffffffffffffffffffffffffffff161415610764576040517f08c379a000000000000000000000000000000000000000000000000000000000815260040161075b906129f5565b60405180910390fd5b8073ffffffffffffffffffffffffffffffffffffffff16610783611490565b73ffffffffffffffffffffffffffffffffffffffff1614806107b257506107b1816107ac611490565b611094565b5b6107f1576040517f08c379a00000000000000000000000000000000000000000000000000000000081526004016107e890612a87565b60405180910390fd5b6107fb8383611498565b505050565b81600a81905550600a54600d6000838152602001908152602001600020819055505050565b6060600b805461083490612951565b80601f016020809104026020016040519081016040528092919081815260200182805461086090612951565b80156108ad5780601f10610882576101008083540402835291602001916108ad565b820191906000526020600020905b81548152906001019060200180831161089057829003601f168201915b5050505050905090565b80600d60006007548152602001908152602001600020819055506108dd33600754611551565b60016007546108ec9190612ad6565b6007819055506007547f882d3b5a729a8bb95cf6c0083c99b42ecd9637123d4425bd7b768877fd8af8b0826040516109249190612907565b60405180910390a250565b61094061093a611490565b8261156f565b61097f576040517f08c379a000000000000000000000000000000000000000000000000000000000815260040161097690612b9e565b60405180910390fd5b61098a838383611604565b505050565b606060006040518060400160405280601a81526020017f646174613a696d6167652f7376672b786d6c3b6261736536342c000000000000815250905060006109f5846040516020016109e19190612bfa565b604051602081830303815290604052611262565b90508181604051602001610a0a929190612c11565b60405160208183030381529060405292505050919050565b610a3d83838360405180602001604052806000815250610d95565b505050565b600080610a4e836118fe565b9050600073ffffffffffffffffffffffffffffffffffffffff168173ffffffffffffffffffffffffffffffffffffffff161415610ac0576040517f08c379a0000000000000000000000000000000000000000000000000000000008152600401610ab790612c81565b60405180910390fd5b80915050919050565b6000600754905090565b60008073ffffffffffffffffffffffffffffffffffffffff168273ffffffffffffffffffffffffffffffffffffffff161415610b44576040517f08c379a0000000000000000000000000000000000000000000000000000000008152600401610b3b90612d13565b60405180910390fd5b600360008373ffffffffffffffffffffffffffffffffffffffff1673ffffffffffffffffffffffffffffffffffffffff168152602001908152602001600020549050919050565b610b9361193b565b610b9d60006119b9565b565b606060098054610bae90612951565b80601f0160208091040260200160405190810160405280929190818152602001828054610bda90612951565b8015610c275780601f10610bfc57610100808354040283529160200191610c27565b820191906000526020600020905b815481529060010190602001808311610c0a57829003601f168201915b5050505050905090565b6000600660009054906101000a900473ffffffffffffffffffffffffffffffffffffffff16905090565b606060018054610c6a90612951565b80601f0160208091040260200160405190810160405280929190818152602001828054610c9690612951565b8015610ce35780601f10610cb857610100808354040283529160200191610ce3565b820191906000526020600020905b815481529060010190602001808311610cc657829003601f168201915b5050505050905090565b610cff610cf8611490565b8383611a7f565b5050565b6060600c8054610d1290612951565b80601f0160208091040260200160405190810160405280929190818152602001828054610d3e90612951565b8015610d8b5780601f10610d6057610100808354040283529160200191610d8b565b820191906000526020600020905b815481529060010190602001808311610d6e57829003601f168201915b5050505050905090565b610da6610da0611490565b8361156f565b610de5576040517f08c379a0000000000000000000000000000000000000000000000000000000008152600401610ddc90612b9e565b60405180910390fd5b610df184848484611bec565b50505050565b6060610e0282611c48565b610e38576040517f6df5edae00000000000000000000000000000000000000000000000000000000815260040160405180910390fd5b600060088054610e4790612951565b80601f0160208091040260200160405190810160405280929190818152602001828054610e7390612951565b8015610ec05780601f10610e9557610100808354040283529160200191610ec0565b820191906000526020600020905b815481529060010190602001808311610ea357829003601f168201915b505050505090506000600d60008581526020019081526020016000205490506000811415610f7a5760088054610ef590612951565b80601f0160208091040260200160405190810160405280929190818152602001828054610f2190612951565b8015610f6e5780601f10610f4357610100808354040283529160200191610f6e565b820191906000526020600020905b815481529060010190602001808311610f5157829003601f168201915b50505050509150611012565b60018114156110115760098054610f9090612951565b80601f0160208091040260200160405190810160405280929190818152602001828054610fbc90612951565b80156110095780601f10610fde57610100808354040283529160200191611009565b820191906000526020600020905b815481529060010190602001808311610fec57829003601f168201915b505050505091505b5b61101a611c89565b611051611025610610565b600b600c8660405160200161103d9493929190612f8f565b604051602081830303815290604052611262565b604051602001611062929190612c11565b60405160208183030381529060405292505050919050565b80600b9080519060200190611090929190612105565b5050565b6000600560008473ffffffffffffffffffffffffffffffffffffffff1673ffffffffffffffffffffffffffffffffffffffff16815260200190815260200160002060008373ffffffffffffffffffffffffffffffffffffffff1673ffffffffffffffffffffffffffffffffffffffff16815260200190815260200160002060009054906101000a900460ff16905092915050565b60606008805461113790612951565b80601f016020809104026020016040519081016040528092919081815260200182805461116390612951565b80156111b05780601f10611185576101008083540402835291602001916111b0565b820191906000526020600020905b81548152906001019060200180831161119357829003601f168201915b5050505050905090565b6111c261193b565b600073ffffffffffffffffffffffffffffffffffffffff168173ffffffffffffffffffffffffffffffffffffffff161415611232576040517f08c379a000000000000000000000000000000000000000000000000000000000815260040161122990613081565b60405180910390fd5b61123b816119b9565b50565b6000600a54905090565b80600c908051906020019061125e929190612105565b5050565b6060600082511415611285576040518060200160405280600081525090506113d6565b60006040518060600160405280604081526020016135a560409139905060006003600285516112b49190612ad6565b6112be91906130d0565b60046112ca9190613101565b905060006020826112db9190612ad6565b67ffffffffffffffff8111156112f4576112f361255d565b5b6040519080825280601f01601f1916602001820160405280156113265781602001600182028036833780820191505090505b509050818152600183018586518101602084015b81831015611395576003830192508251603f8160121c168501518253600182019150603f81600c1c168501518253600182019150603f8160061c168501518253600182019150603f811685015182536001820191505061133a565b6003895106600181146113af57600281146113bf576113ca565b613d3d60f01b60028303526113ca565b603d60f81b60018303525b50505050508093505050505b919050565b60007f01ffc9a7000000000000000000000000000000000000000000000000000000007bffffffffffffffffffffffffffffffffffffffffffffffffffffffff1916827bffffffffffffffffffffffffffffffffffffffffffffffffffffffff1916149050919050565b61144e81611c48565b61148d576040517f08c379a000000000000000000000000000000000000000000000000000000000815260040161148490612c81565b60405180910390fd5b50565b600033905090565b816004600083815260200190815260200160002060006101000a81548173ffffffffffffffffffffffffffffffffffffffff021916908373ffffffffffffffffffffffffffffffffffffffff160217905550808273ffffffffffffffffffffffffffffffffffffffff1661150b83610a42565b73ffffffffffffffffffffffffffffffffffffffff167f8c5be1e5ebec7d5bd14f71427d1e84f3dd0314c0f7b2291e5b200ac8c7c3b92560405160405180910390a45050565b61156b828260405180602001604052806000815250611cc6565b5050565b60008061157b83610a42565b90508073ffffffffffffffffffffffffffffffffffffffff168473ffffffffffffffffffffffffffffffffffffffff1614806115bd57506115bc8185611094565b5b806115fb57508373ffffffffffffffffffffffffffffffffffffffff166115e3846106a2565b73ffffffffffffffffffffffffffffffffffffffff16145b91505092915050565b8273ffffffffffffffffffffffffffffffffffffffff1661162482610a42565b73ffffffffffffffffffffffffffffffffffffffff161461167a576040517f08c379a0000000000000000000000000000000000000000000000000000000008152600401611671906131cd565b60405180910390fd5b600073ffffffffffffffffffffffffffffffffffffffff168273ffffffffffffffffffffffffffffffffffffffff1614156116ea576040517f08c379a00000000000000000000000000000000000000000000000000000000081526004016116e19061325f565b60405180910390fd5b6116f78383836001611d21565b8273ffffffffffffffffffffffffffffffffffffffff1661171782610a42565b73ffffffffffffffffffffffffffffffffffffffff161461176d576040517f08c379a0000000000000000000000000000000000000000000000000000000008152600401611764906131cd565b60405180910390fd5b6004600082815260200190815260200160002060006101000a81549073ffffffffffffffffffffffffffffffffffffffff02191690556001600360008573ffffffffffffffffffffffffffffffffffffffff1673ffffffffffffffffffffffffffffffffffffffff168152602001908152602001600020600082825403925050819055506001600360008473ffffffffffffffffffffffffffffffffffffffff1673ffffffffffffffffffffffffffffffffffffffff16815260200190815260200160002060008282540192505081905550816002600083815260200190815260200160002060006101000a81548173ffffffffffffffffffffffffffffffffffffffff021916908373ffffffffffffffffffffffffffffffffffffffff160217905550808273ffffffffffffffffffffffffffffffffffffffff168473ffffffffffffffffffffffffffffffffffffffff167fddf252ad1be2c89b69c2b068fc378daa952ba7f163c4a11628f55a4df523b3ef60405160405180910390a46118f98383836001611d27565b505050565b60006002600083815260200190815260200160002060009054906101000a900473ffffffffffffffffffffffffffffffffffffffff169050919050565b611943611490565b73ffffffffffffffffffffffffffffffffffffffff16611961610c31565b73ffffffffffffffffffffffffffffffffffffffff16146119b7576040517f08c379a00000000000000000000000000000000000000000000000000000000081526004016119ae906132cb565b60405180910390fd5b565b6000600660009054906101000a900473ffffffffffffffffffffffffffffffffffffffff16905081600660006101000a81548173ffffffffffffffffffffffffffffffffffffffff021916908373ffffffffffffffffffffffffffffffffffffffff1602179055508173ffffffffffffffffffffffffffffffffffffffff168173ffffffffffffffffffffffffffffffffffffffff167f8be0079c531659141344cd1fd0a4f28419497f9722a3daafe3b4186f6b6457e060405160405180910390a35050565b8173ffffffffffffffffffffffffffffffffffffffff168373ffffffffffffffffffffffffffffffffffffffff161415611aee576040517f08c379a0000000000000000000000000000000000000000000000000000000008152600401611ae590613337565b60405180910390fd5b80600560008573ffffffffffffffffffffffffffffffffffffffff1673ffffffffffffffffffffffffffffffffffffffff16815260200190815260200160002060008473ffffffffffffffffffffffffffffffffffffffff1673ffffffffffffffffffffffffffffffffffffffff16815260200190815260200160002060006101000a81548160ff0219169083151502179055508173ffffffffffffffffffffffffffffffffffffffff168373ffffffffffffffffffffffffffffffffffffffff167f17307eab39ab6107e8899845ad3d59bd9653f200f220920489ca2b5937696c3183604051611bdf919061225c565b60405180910390a3505050565b611bf7848484611604565b611c0384848484611d2d565b611c42576040517f08c379a0000000000000000000000000000000000000000000000000000000008152600401611c39906133c9565b60405180910390fd5b50505050565b60008073ffffffffffffffffffffffffffffffffffffffff16611c6a836118fe565b73ffffffffffffffffffffffffffffffffffffffff1614159050919050565b60606040518060400160405280601d81526020017f646174613a6170706c69636174696f6e2f6a736f6e3b6261736536342c000000815250905090565b611cd08383611ec4565b611cdd6000848484611d2d565b611d1c576040517f08c379a0000000000000000000000000000000000000000000000000000000008152600401611d13906133c9565b60405180910390fd5b505050565b50505050565b50505050565b6000611d4e8473ffffffffffffffffffffffffffffffffffffffff166120e2565b15611eb7578373ffffffffffffffffffffffffffffffffffffffff1663150b7a02611d77611490565b8786866040518563ffffffff1660e01b8152600401611d99949392919061343e565b602060405180830381600087803b158015611db357600080fd5b505af1925050508015611de457506040513d601f19601f82011682018060405250810190611de1919061349f565b60015b611e67573d8060008114611e14576040519150601f19603f3d011682016040523d82523d6000602084013e611e19565b606091505b50600081511415611e5f576040517f08c379a0000000000000000000000000000000000000000000000000000000008152600401611e56906133c9565b60405180910390fd5b805181602001fd5b63150b7a0260e01b7bffffffffffffffffffffffffffffffffffffffffffffffffffffffff1916817bffffffffffffffffffffffffffffffffffffffffffffffffffffffff191614915050611ebc565b600190505b949350505050565b600073ffffffffffffffffffffffffffffffffffffffff168273ffffffffffffffffffffffffffffffffffffffff161415611f34576040517f08c379a0000000000000000000000000000000000000000000000000000000008152600401611f2b90613518565b60405180910390fd5b611f3d81611c48565b15611f7d576040517f08c379a0000000000000000000000000000000000000000000000000000000008152600401611f7490613584565b60405180910390fd5b611f8b600083836001611d21565b611f9481611c48565b15611fd4576040517f08c379a0000000000000000000000000000000000000000000000000000000008152600401611fcb90613584565b60405180910390fd5b6001600360008473ffffffffffffffffffffffffffffffffffffffff1673ffffffffffffffffffffffffffffffffffffffff16815260200190815260200160002060008282540192505081905550816002600083815260200190815260200160002060006101000a81548173ffffffffffffffffffffffffffffffffffffffff021916908373ffffffffffffffffffffffffffffffffffffffff160217905550808273ffffffffffffffffffffffffffffffffffffffff16600073ffffffffffffffffffffffffffffffffffffffff167fddf252ad1be2c89b69c2b068fc378daa952ba7f163c4a11628f55a4df523b3ef60405160405180910390a46120de600083836001611d27565b5050565b6000808273ffffffffffffffffffffffffffffffffffffffff163b119050919050565b82805461211190612951565b90600052602060002090601f016020900481019282612133576000855561217a565b82601f1061214c57805160ff191683800117855561217a565b8280016001018555821561217a579182015b8281111561217957825182559160200191906001019061215e565b5b509050612187919061218b565b5090565b5b808211156121a457600081600090555060010161218c565b5090565b6000604051905090565b600080fd5b600080fd5b60007fffffffff0000000000000000000000000000000000000000000000000000000082169050919050565b6121f1816121bc565b81146121fc57600080fd5b50565b60008135905061220e816121e8565b92915050565b60006020828403121561222a576122296121b2565b5b6000612238848285016121ff565b91505092915050565b60008115159050919050565b61225681612241565b82525050565b6000602082019050612271600083018461224d565b92915050565b600081519050919050565b600082825260208201905092915050565b60005b838110156122b1578082015181840152602081019050612296565b838111156122c0576000848401525b50505050565b6000601f19601f8301169050919050565b60006122e282612277565b6122ec8185612282565b93506122fc818560208601612293565b612305816122c6565b840191505092915050565b6000602082019050818103600083015261232a81846122d7565b905092915050565b6000819050919050565b61234581612332565b811461235057600080fd5b50565b6000813590506123628161233c565b92915050565b60006020828403121561237e5761237d6121b2565b5b600061238c84828501612353565b91505092915050565b600073ffffffffffffffffffffffffffffffffffffffff82169050919050565b60006123c082612395565b9050919050565b6123d0816123b5565b82525050565b60006020820190506123eb60008301846123c7565b92915050565b6123fa816123b5565b811461240557600080fd5b50565b600081359050612417816123f1565b92915050565b60008060408385031215612434576124336121b2565b5b600061244285828601612408565b925050602061245385828601612353565b9150509250929050565b6000819050919050565b6124708161245d565b811461247b57600080fd5b50565b60008135905061248d81612467565b92915050565b600080604083850312156124aa576124a96121b2565b5b60006124b88582860161247e565b92505060206124c985828601612353565b9150509250929050565b6000602082840312156124e9576124e86121b2565b5b60006124f78482850161247e565b91505092915050565b600080600060608486031215612519576125186121b2565b5b600061252786828701612408565b935050602061253886828701612408565b925050604061254986828701612353565b9150509250925092565b600080fd5b600080fd5b7f4e487b7100000000000000000000000000000000000000000000000000000000600052604160045260246000fd5b612595826122c6565b810181811067ffffffffffffffff821117156125b4576125b361255d565b5b80604052505050565b60006125c76121a8565b90506125d3828261258c565b919050565b600067ffffffffffffffff8211156125f3576125f261255d565b5b6125fc826122c6565b9050602081019050919050565b82818337600083830152505050565b600061262b612626846125d8565b6125bd565b90508281526020810184848401111561264757612646612558565b5b612652848285612609565b509392505050565b600082601f83011261266f5761266e612553565b5b813561267f848260208601612618565b91505092915050565b60006020828403121561269e5761269d6121b2565b5b600082013567ffffffffffffffff8111156126bc576126bb6121b7565b5b6126c88482850161265a565b91505092915050565b6126da81612332565b82525050565b60006020820190506126f560008301846126d1565b92915050565b600060208284031215612711576127106121b2565b5b600061271f84828501612408565b91505092915050565b61273181612241565b811461273c57600080fd5b50565b60008135905061274e81612728565b92915050565b6000806040838503121561276b5761276a6121b2565b5b600061277985828601612408565b925050602061278a8582860161273f565b9150509250929050565b600067ffffffffffffffff8211156127af576127ae61255d565b5b6127b8826122c6565b9050602081019050919050565b60006127d86127d384612794565b6125bd565b9050828152602081018484840111156127f4576127f3612558565b5b6127ff848285612609565b509392505050565b600082601f83011261281c5761281b612553565b5b813561282c8482602086016127c5565b91505092915050565b6000806000806080858703121561284f5761284e6121b2565b5b600061285d87828801612408565b945050602061286e87828801612408565b935050604061287f87828801612353565b925050606085013567ffffffffffffffff8111156128a05761289f6121b7565b5b6128ac87828801612807565b91505092959194509250565b600080604083850312156128cf576128ce6121b2565b5b60006128dd85828601612408565b92505060206128ee85828601612408565b9150509250929050565b6129018161245d565b82525050565b600060208201905061291c60008301846128f8565b92915050565b7f4e487b7100000000000000000000000000000000000000000000000000000000600052602260045260246000fd5b6000600282049050600182168061296957607f821691505b6020821081141561297d5761297c612922565b5b50919050565b7f4552433732313a20617070726f76616c20746f2063757272656e74206f776e6560008201527f7200000000000000000000000000000000000000000000000000000000000000602082015250565b60006129df602183612282565b91506129ea82612983565b604082019050919050565b60006020820190508181036000830152612a0e816129d2565b9050919050565b7f4552433732313a20617070726f76652063616c6c6572206973206e6f7420746f60008201527f6b656e206f776e6572206f7220617070726f76656420666f7220616c6c000000602082015250565b6000612a71603d83612282565b9150612a7c82612a15565b604082019050919050565b60006020820190508181036000830152612aa081612a64565b9050919050565b7f4e487b7100000000000000000000000000000000000000000000000000000000600052601160045260246000fd5b6000612ae182612332565b9150612aec83612332565b9250827fffffffffffffffffffffffffffffffffffffffffffffffffffffffffffffffff03821115612b2157612b20612aa7565b5b828201905092915050565b7f4552433732313a2063616c6c6572206973206e6f7420746f6b656e206f776e6560008201527f72206f7220617070726f76656400000000000000000000000000000000000000602082015250565b6000612b88602d83612282565b9150612b9382612b2c565b604082019050919050565b60006020820190508181036000830152612bb781612b7b565b9050919050565b600081905092915050565b6000612bd482612277565b612bde8185612bbe565b9350612bee818560208601612293565b80840191505092915050565b6000612c068284612bc9565b915081905092915050565b6000612c1d8285612bc9565b9150612c298284612bc9565b91508190509392505050565b7f4552433732313a20696e76616c696420746f6b656e2049440000000000000000600082015250565b6000612c6b601883612282565b9150612c7682612c35565b602082019050919050565b60006020820190508181036000830152612c9a81612c5e565b9050919050565b7f4552433732313a2061646472657373207a65726f206973206e6f74206120766160008201527f6c6964206f776e65720000000000000000000000000000000000000000000000602082015250565b6000612cfd602983612282565b9150612d0882612ca1565b604082019050919050565b60006020820190508181036000830152612d2c81612cf0565b9050919050565b7f7b226e616d65223a220000000000000000000000000000000000000000000000600082015250565b6000612d69600983612bbe565b9150612d7482612d33565b600982019050919050565b7f222c20226465736372697074696f6e223a2251222c2000000000000000000000600082015250565b6000612db5601683612bbe565b9150612dc082612d7f565b601682019050919050565b7f2261747472696275746573223a00000000000000000000000000000000000000600082015250565b6000612e01600d83612bbe565b9150612e0c82612dcb565b600d82019050919050565b60008190508160005260206000209050919050565b60008154612e3981612951565b612e438186612bbe565b94506001821660008114612e5e5760018114612e6f57612ea2565b60ff19831686528186019350612ea2565b612e7885612e17565b60005b83811015612e9a57815481890152600182019150602081019050612e7b565b838801955050505b50505092915050565b7f2c22666974223a00000000000000000000000000000000000000000000000000600082015250565b6000612ee1600783612bbe565b9150612eec82612eab565b600782019050919050565b7f2c22696d616765223a2200000000000000000000000000000000000000000000600082015250565b6000612f2d600a83612bbe565b9150612f3882612ef7565b600a82019050919050565b7f227d000000000000000000000000000000000000000000000000000000000000600082015250565b6000612f79600283612bbe565b9150612f8482612f43565b600282019050919050565b6000612f9a82612d5c565b9150612fa68287612bc9565b9150612fb182612da8565b9150612fbc82612df4565b9150612fc88286612e2c565b9150612fd382612ed4565b9150612fdf8285612e2c565b9150612fea82612f20565b9150612ff68284612bc9565b915061300182612f6c565b915081905095945050505050565b7f4f776e61626c653a206e6577206f776e657220697320746865207a65726f206160008201527f6464726573730000000000000000000000000000000000000000000000000000602082015250565b600061306b602683612282565b91506130768261300f565b604082019050919050565b6000602082019050818103600083015261309a8161305e565b9050919050565b7f4e487b7100000000000000000000000000000000000000000000000000000000600052601260045260246000fd5b60006130db82612332565b91506130e683612332565b9250826130f6576130f56130a1565b5b828204905092915050565b600061310c82612332565b915061311783612332565b9250817fffffffffffffffffffffffffffffffffffffffffffffffffffffffffffffffff04831182151516156131505761314f612aa7565b5b828202905092915050565b7f4552433732313a207472616e736665722066726f6d20696e636f72726563742060008201527f6f776e6572000000000000000000000000000000000000000000000000000000602082015250565b60006131b7602583612282565b91506131c28261315b565b604082019050919050565b600060208201905081810360008301526131e6816131aa565b9050919050565b7f4552433732313a207472616e7366657220746f20746865207a65726f2061646460008201527f7265737300000000000000000000000000000000000000000000000000000000602082015250565b6000613249602483612282565b9150613254826131ed565b604082019050919050565b600060208201905081810360008301526132788161323c565b9050919050565b7f4f776e61626c653a2063616c6c6572206973206e6f7420746865206f776e6572600082015250565b60006132b5602083612282565b91506132c08261327f565b602082019050919050565b600060208201905081810360008301526132e4816132a8565b9050919050565b7f4552433732313a20617070726f766520746f2063616c6c657200000000000000600082015250565b6000613321601983612282565b915061332c826132eb565b602082019050919050565b6000602082019050818103600083015261335081613314565b9050919050565b7f4552433732313a207472616e7366657220746f206e6f6e20455243373231526560008201527f63656976657220696d706c656d656e7465720000000000000000000000000000602082015250565b60006133b3603283612282565b91506133be82613357565b604082019050919050565b600060208201905081810360008301526133e2816133a6565b9050919050565b600081519050919050565b600082825260208201905092915050565b6000613410826133e9565b61341a81856133f4565b935061342a818560208601612293565b613433816122c6565b840191505092915050565b600060808201905061345360008301876123c7565b61346060208301866123c7565b61346d60408301856126d1565b818103606083015261347f8184613405565b905095945050505050565b600081519050613499816121e8565b92915050565b6000602082840312156134b5576134b46121b2565b5b60006134c38482850161348a565b91505092915050565b7f4552433732313a206d696e7420746f20746865207a65726f2061646472657373600082015250565b6000613502602083612282565b915061350d826134cc565b602082019050919050565b60006020820190508181036000830152613531816134f5565b9050919050565b7f4552433732313a20746f6b656e20616c7265616479206d696e74656400000000600082015250565b600061356e601c83612282565b915061357982613538565b602082019050919050565b6000602082019050818103600083015261359d81613561565b905091905056fe4142434445464748494a4b4c4d4e4f505152535455565758595a6162636465666768696a6b6c6d6e6f707172737475767778797a303132333435363738392b2fa2646970667358221220f9e422187348e0fcfb21ee5e7e30decf6edc25d71bec711e25bf9f054f6d083364736f6c634300080800334142434445464748494a4b4c4d4e4f505152535455565758595a6162636465666768696a6b6c6d6e6f707172737475767778797a303132333435363738392b2f",
  "devdoc": {
    "kind": "dev",
    "methods": {
      "approve(address,uint256)": {
        "details": "See {IERC721-approve}."
      },
      "balanceOf(address)": {
        "details": "See {IERC721-balanceOf}."
      },
      "getApproved(uint256)": {
        "details": "See {IERC721-getApproved}."
      },
      "isApprovedForAll(address,address)": {
        "details": "See {IERC721-isApprovedForAll}."
      },
      "name()": {
        "details": "See {IERC721Metadata-name}."
      },
      "owner()": {
        "details": "Returns the address of the current owner."
      },
      "ownerOf(uint256)": {
        "details": "See {IERC721-ownerOf}."
      },
      "renounceOwnership()": {
        "details": "Leaves the contract without owner. It will not be possible to call `onlyOwner` functions anymore. Can only be called by the current owner. NOTE: Renouncing ownership will leave the contract without an owner, thereby removing any functionality that is only available to the owner."
      },
      "safeTransferFrom(address,address,uint256)": {
        "details": "See {IERC721-safeTransferFrom}."
      },
      "safeTransferFrom(address,address,uint256,bytes)": {
        "details": "See {IERC721-safeTransferFrom}."
      },
      "setApprovalForAll(address,bool)": {
        "details": "See {IERC721-setApprovalForAll}."
      },
      "supportsInterface(bytes4)": {
        "details": "See {IERC165-supportsInterface}."
      },
      "symbol()": {
        "details": "See {IERC721Metadata-symbol}."
      },
      "tokenURI(uint256)": {
        "details": "See {IERC721Metadata-tokenURI}."
      },
      "transferFrom(address,address,uint256)": {
        "details": "See {IERC721-transferFrom}."
      },
      "transferOwnership(address)": {
        "details": "Transfers ownership of the contract to a new account (`newOwner`). Can only be called by the current owner."
      }
    },
    "version": 1
  },
  "userdoc": {
    "kind": "user",
    "methods": {},
    "version": 1
  },
  "storageLayout": {
    "storage": [
      {
        "astId": 1296,
        "contract": "contracts/DynamicSvgNft.sol:DynamicSvgNft",
        "label": "_name",
        "offset": 0,
        "slot": "0",
        "type": "t_string_storage"
      },
      {
        "astId": 1298,
        "contract": "contracts/DynamicSvgNft.sol:DynamicSvgNft",
        "label": "_symbol",
        "offset": 0,
        "slot": "1",
        "type": "t_string_storage"
      },
      {
        "astId": 1302,
        "contract": "contracts/DynamicSvgNft.sol:DynamicSvgNft",
        "label": "_owners",
        "offset": 0,
        "slot": "2",
        "type": "t_mapping(t_uint256,t_address)"
      },
      {
        "astId": 1306,
        "contract": "contracts/DynamicSvgNft.sol:DynamicSvgNft",
        "label": "_balances",
        "offset": 0,
        "slot": "3",
        "type": "t_mapping(t_address,t_uint256)"
      },
      {
        "astId": 1310,
        "contract": "contracts/DynamicSvgNft.sol:DynamicSvgNft",
        "label": "_tokenApprovals",
        "offset": 0,
        "slot": "4",
        "type": "t_mapping(t_uint256,t_address)"
      },
      {
        "astId": 1316,
        "contract": "contracts/DynamicSvgNft.sol:DynamicSvgNft",
        "label": "_operatorApprovals",
        "offset": 0,
        "slot": "5",
        "type": "t_mapping(t_address,t_mapping(t_address,t_bool))"
      },
      {
        "astId": 1165,
        "contract": "contracts/DynamicSvgNft.sol:DynamicSvgNft",
        "label": "_owner",
        "offset": 0,
        "slot": "6",
        "type": "t_address"
      },
      {
        "astId": 3916,
        "contract": "contracts/DynamicSvgNft.sol:DynamicSvgNft",
        "label": "s_tokenCounter",
        "offset": 0,
        "slot": "7",
        "type": "t_uint256"
      },
      {
        "astId": 3918,
        "contract": "contracts/DynamicSvgNft.sol:DynamicSvgNft",
        "label": "s_lowImageURI",
        "offset": 0,
        "slot": "8",
        "type": "t_string_storage"
      },
      {
        "astId": 3920,
        "contract": "contracts/DynamicSvgNft.sol:DynamicSvgNft",
        "label": "s_highImageURI",
        "offset": 0,
        "slot": "9",
        "type": "t_string_storage"
      },
      {
        "astId": 3922,
        "contract": "contracts/DynamicSvgNft.sol:DynamicSvgNft",
        "label": "s_membership_status",
        "offset": 0,
        "slot": "10",
        "type": "t_int256"
      },
      {
        "astId": 3924,
        "contract": "contracts/DynamicSvgNft.sol:DynamicSvgNft",
        "label": "attributes",
        "offset": 0,
        "slot": "11",
        "type": "t_string_storage"
      },
      {
        "astId": 3926,
        "contract": "contracts/DynamicSvgNft.sol:DynamicSvgNft",
        "label": "fit",
        "offset": 0,
        "slot": "12",
        "type": "t_string_storage"
      },
      {
        "astId": 3930,
        "contract": "contracts/DynamicSvgNft.sol:DynamicSvgNft",
        "label": "s_tokenIdToMembershipStatus",
        "offset": 0,
        "slot": "13",
        "type": "t_mapping(t_uint256,t_int256)"
      }
    ],
    "types": {
      "t_address": {
        "encoding": "inplace",
        "label": "address",
        "numberOfBytes": "20"
      },
      "t_bool": {
        "encoding": "inplace",
        "label": "bool",
        "numberOfBytes": "1"
      },
      "t_int256": {
        "encoding": "inplace",
        "label": "int256",
        "numberOfBytes": "32"
      },
      "t_mapping(t_address,t_bool)": {
        "encoding": "mapping",
        "key": "t_address",
        "label": "mapping(address => bool)",
        "numberOfBytes": "32",
        "value": "t_bool"
      },
      "t_mapping(t_address,t_mapping(t_address,t_bool))": {
        "encoding": "mapping",
        "key": "t_address",
        "label": "mapping(address => mapping(address => bool))",
        "numberOfBytes": "32",
        "value": "t_mapping(t_address,t_bool)"
      },
      "t_mapping(t_address,t_uint256)": {
        "encoding": "mapping",
        "key": "t_address",
        "label": "mapping(address => uint256)",
        "numberOfBytes": "32",
        "value": "t_uint256"
      },
      "t_mapping(t_uint256,t_address)": {
        "encoding": "mapping",
        "key": "t_uint256",
        "label": "mapping(uint256 => address)",
        "numberOfBytes": "32",
        "value": "t_address"
      },
      "t_mapping(t_uint256,t_int256)": {
        "encoding": "mapping",
        "key": "t_uint256",
        "label": "mapping(uint256 => int256)",
        "numberOfBytes": "32",
        "value": "t_int256"
      },
      "t_string_storage": {
        "encoding": "bytes",
        "label": "string",
        "numberOfBytes": "32"
      },
      "t_uint256": {
        "encoding": "inplace",
        "label": "uint256",
        "numberOfBytes": "32"
      }
    }
  }
}