{
  "address": "0x5FbDB2315678afecb367f032d93F642f64180aa3",
  "abi": [
    {
      "inputs": [],
      "stateMutability": "nonpayable",
      "type": "constructor"
    },
    {
      "inputs": [],
      "name": "ERC721Metadata__URI_QueryFor_NonExistentToken",
      "type": "error"
    },
    {
      "anonymous": false,
      "inputs": [
        {
          "indexed": true,
          "internalType": "address",
          "name": "owner",
          "type": "address"
        },
        {
          "indexed": true,
          "internalType": "address",
          "name": "approved",
          "type": "address"
        },
        {
          "indexed": true,
          "internalType": "uint256",
          "name": "tokenId",
          "type": "uint256"
        }
      ],
      "name": "Approval",
      "type": "event"
    },
    {
      "anonymous": false,
      "inputs": [
        {
          "indexed": true,
          "internalType": "address",
          "name": "owner",
          "type": "address"
        },
        {
          "indexed": true,
          "internalType": "address",
          "name": "operator",
          "type": "address"
        },
        {
          "indexed": false,
          "internalType": "bool",
          "name": "approved",
          "type": "bool"
        }
      ],
      "name": "ApprovalForAll",
      "type": "event"
    },
    {
      "anonymous": false,
      "inputs": [
        {
          "indexed": true,
          "internalType": "uint256",
          "name": "tokenId",
          "type": "uint256"
        },
        {
          "indexed": false,
          "internalType": "int256",
          "name": "membership_status",
          "type": "int256"
        }
      ],
      "name": "CreatedNFT",
      "type": "event"
    },
    {
      "anonymous": false,
      "inputs": [
        {
          "indexed": true,
          "internalType": "address",
          "name": "staker",
          "type": "address"
        },
        {
          "indexed": true,
          "internalType": "uint256",
          "name": "tokenId",
          "type": "uint256"
        }
      ],
      "name": "NFTStaked",
      "type": "event"
    },
    {
      "anonymous": false,
      "inputs": [
        {
          "indexed": true,
          "internalType": "address",
          "name": "unstaker",
          "type": "address"
        },
        {
          "indexed": true,
          "internalType": "uint256",
          "name": "tokenId",
          "type": "uint256"
        }
      ],
      "name": "NFTUnstaked",
      "type": "event"
    },
    {
      "anonymous": false,
      "inputs": [
        {
          "indexed": true,
          "internalType": "address",
          "name": "previousOwner",
          "type": "address"
        },
        {
          "indexed": true,
          "internalType": "address",
          "name": "newOwner",
          "type": "address"
        }
      ],
      "name": "OwnershipTransferred",
      "type": "event"
    },
    {
      "anonymous": false,
      "inputs": [
        {
          "indexed": true,
          "internalType": "address",
          "name": "from",
          "type": "address"
        },
        {
          "indexed": true,
          "internalType": "address",
          "name": "to",
          "type": "address"
        },
        {
          "indexed": true,
          "internalType": "uint256",
          "name": "tokenId",
          "type": "uint256"
        }
      ],
      "name": "Transfer",
      "type": "event"
    },
    {
      "inputs": [
        {
          "internalType": "address",
          "name": "to",
          "type": "address"
        },
        {
          "internalType": "uint256",
          "name": "tokenId",
          "type": "uint256"
        }
      ],
      "name": "approve",
      "outputs": [],
      "stateMutability": "nonpayable",
      "type": "function"
    },
    {
      "inputs": [
        {
          "internalType": "address",
          "name": "owner",
          "type": "address"
        }
      ],
      "name": "balanceOf",
      "outputs": [
        {
          "internalType": "uint256",
          "name": "",
          "type": "uint256"
        }
      ],
      "stateMutability": "view",
      "type": "function"
    },
    {
      "inputs": [
        {
          "internalType": "uint256",
          "name": "tokenId",
          "type": "uint256"
        }
      ],
      "name": "getApproved",
      "outputs": [
        {
          "internalType": "address",
          "name": "",
          "type": "address"
        }
      ],
      "stateMutability": "view",
      "type": "function"
    },
    {
      "inputs": [
        {
          "internalType": "uint256",
          "name": "tokenId",
          "type": "uint256"
        }
      ],
      "name": "getAttributes",
      "outputs": [
        {
          "internalType": "string",
          "name": "",
          "type": "string"
        }
      ],
      "stateMutability": "view",
      "type": "function"
    },
    {
      "inputs": [
        {
          "internalType": "uint256",
          "name": "tokenId",
          "type": "uint256"
        }
      ],
      "name": "getImage",
      "outputs": [
        {
          "internalType": "string",
          "name": "",
          "type": "string"
        }
      ],
      "stateMutability": "view",
      "type": "function"
    },
    {
      "inputs": [
        {
          "internalType": "uint256",
          "name": "tokenId",
          "type": "uint256"
        }
      ],
      "name": "getMembershipStatus",
      "outputs": [
        {
          "internalType": "int256",
          "name": "",
          "type": "int256"
        }
      ],
      "stateMutability": "view",
      "type": "function"
    },
    {
      "inputs": [
        {
          "internalType": "uint256",
          "name": "tokenId",
          "type": "uint256"
        }
      ],
      "name": "getStaked",
      "outputs": [
        {
          "internalType": "bool",
          "name": "",
          "type": "bool"
        }
      ],
      "stateMutability": "view",
      "type": "function"
    },
    {
      "inputs": [],
      "name": "getTokenCounter",
      "outputs": [
        {
          "internalType": "uint256",
          "name": "",
          "type": "uint256"
        }
      ],
      "stateMutability": "view",
      "type": "function"
    },
    {
      "inputs": [
        {
          "internalType": "address",
          "name": "owner",
          "type": "address"
        },
        {
          "internalType": "address",
          "name": "operator",
          "type": "address"
        }
      ],
      "name": "isApprovedForAll",
      "outputs": [
        {
          "internalType": "bool",
          "name": "",
          "type": "bool"
        }
      ],
      "stateMutability": "view",
      "type": "function"
    },
    {
      "inputs": [
        {
          "internalType": "int256",
          "name": "membership_status",
          "type": "int256"
        },
        {
          "internalType": "string",
          "name": "imageURL",
          "type": "string"
        },
        {
          "internalType": "string",
          "name": "attributes",
          "type": "string"
        },
        {
          "internalType": "uint256",
          "name": "mintFee",
          "type": "uint256"
        }
      ],
      "name": "mintNft",
      "outputs": [],
      "stateMutability": "payable",
      "type": "function"
    },
    {
      "inputs": [],
      "name": "name",
      "outputs": [
        {
          "internalType": "string",
          "name": "",
          "type": "string"
        }
      ],
      "stateMutability": "view",
      "type": "function"
    },
    {
      "inputs": [],
      "name": "owner",
      "outputs": [
        {
          "internalType": "address",
          "name": "",
          "type": "address"
        }
      ],
      "stateMutability": "view",
      "type": "function"
    },
    {
      "inputs": [
        {
          "internalType": "uint256",
          "name": "tokenId",
          "type": "uint256"
        }
      ],
      "name": "ownerOf",
      "outputs": [
        {
          "internalType": "address",
          "name": "",
          "type": "address"
        }
      ],
      "stateMutability": "view",
      "type": "function"
    },
    {
      "inputs": [],
      "name": "renounceOwnership",
      "outputs": [],
      "stateMutability": "nonpayable",
      "type": "function"
    },
    {
      "inputs": [
        {
          "internalType": "address",
          "name": "from",
          "type": "address"
        },
        {
          "internalType": "address",
          "name": "to",
          "type": "address"
        },
        {
          "internalType": "uint256",
          "name": "tokenId",
          "type": "uint256"
        }
      ],
      "name": "safeTransferFrom",
      "outputs": [],
      "stateMutability": "nonpayable",
      "type": "function"
    },
    {
      "inputs": [
        {
          "internalType": "address",
          "name": "from",
          "type": "address"
        },
        {
          "internalType": "address",
          "name": "to",
          "type": "address"
        },
        {
          "internalType": "uint256",
          "name": "tokenId",
          "type": "uint256"
        },
        {
          "internalType": "bytes",
          "name": "data",
          "type": "bytes"
        }
      ],
      "name": "safeTransferFrom",
      "outputs": [],
      "stateMutability": "nonpayable",
      "type": "function"
    },
    {
      "inputs": [
        {
          "internalType": "address",
          "name": "operator",
          "type": "address"
        },
        {
          "internalType": "bool",
          "name": "approved",
          "type": "bool"
        }
      ],
      "name": "setApprovalForAll",
      "outputs": [],
      "stateMutability": "nonpayable",
      "type": "function"
    },
    {
      "inputs": [
        {
          "internalType": "uint256",
          "name": "tokenId",
          "type": "uint256"
        },
        {
          "internalType": "string",
          "name": "attributes",
          "type": "string"
        }
      ],
      "name": "setAttributes",
      "outputs": [],
      "stateMutability": "nonpayable",
      "type": "function"
    },
    {
      "inputs": [
        {
          "internalType": "uint256",
          "name": "tokenId",
          "type": "uint256"
        },
        {
          "internalType": "string",
          "name": "image",
          "type": "string"
        }
      ],
      "name": "setImage",
      "outputs": [],
      "stateMutability": "nonpayable",
      "type": "function"
    },
    {
      "inputs": [
        {
          "internalType": "uint256",
          "name": "tokenId",
          "type": "uint256"
        },
        {
          "internalType": "int256",
          "name": "status",
          "type": "int256"
        }
      ],
      "name": "setMembership",
      "outputs": [],
      "stateMutability": "nonpayable",
      "type": "function"
    },
    {
      "inputs": [
        {
          "internalType": "uint256",
          "name": "tokenId",
          "type": "uint256"
        }
      ],
      "name": "stakeNFT",
      "outputs": [],
      "stateMutability": "nonpayable",
      "type": "function"
    },
    {
      "inputs": [
        {
          "internalType": "bytes4",
          "name": "interfaceId",
          "type": "bytes4"
        }
      ],
      "name": "supportsInterface",
      "outputs": [
        {
          "internalType": "bool",
          "name": "",
          "type": "bool"
        }
      ],
      "stateMutability": "view",
      "type": "function"
    },
    {
      "inputs": [],
      "name": "symbol",
      "outputs": [
        {
          "internalType": "string",
          "name": "",
          "type": "string"
        }
      ],
      "stateMutability": "view",
      "type": "function"
    },
    {
      "inputs": [
        {
          "internalType": "uint256",
          "name": "index",
          "type": "uint256"
        }
      ],
      "name": "tokenByIndex",
      "outputs": [
        {
          "internalType": "uint256",
          "name": "",
          "type": "uint256"
        }
      ],
      "stateMutability": "view",
      "type": "function"
    },
    {
      "inputs": [
        {
          "internalType": "address",
          "name": "owner",
          "type": "address"
        },
        {
          "internalType": "uint256",
          "name": "index",
          "type": "uint256"
        }
      ],
      "name": "tokenOfOwnerByIndex",
      "outputs": [
        {
          "internalType": "uint256",
          "name": "",
          "type": "uint256"
        }
      ],
      "stateMutability": "view",
      "type": "function"
    },
    {
      "inputs": [
        {
          "internalType": "uint256",
          "name": "tokenId",
          "type": "uint256"
        }
      ],
      "name": "tokenURI",
      "outputs": [
        {
          "internalType": "string",
          "name": "",
          "type": "string"
        }
      ],
      "stateMutability": "view",
      "type": "function"
    },
    {
      "inputs": [],
      "name": "totalSupply",
      "outputs": [
        {
          "internalType": "uint256",
          "name": "",
          "type": "uint256"
        }
      ],
      "stateMutability": "view",
      "type": "function"
    },
    {
      "inputs": [
        {
          "internalType": "address",
          "name": "from",
          "type": "address"
        },
        {
          "internalType": "address",
          "name": "to",
          "type": "address"
        },
        {
          "internalType": "uint256",
          "name": "tokenId",
          "type": "uint256"
        }
      ],
      "name": "transferFrom",
      "outputs": [],
      "stateMutability": "nonpayable",
      "type": "function"
    },
    {
      "inputs": [
        {
          "internalType": "address",
          "name": "newOwner",
          "type": "address"
        }
      ],
      "name": "transferOwnership",
      "outputs": [],
      "stateMutability": "nonpayable",
      "type": "function"
    },
    {
      "inputs": [
        {
          "internalType": "uint256",
          "name": "tokenId",
          "type": "uint256"
        }
      ],
      "name": "unstakeNFT",
      "outputs": [],
      "stateMutability": "nonpayable",
      "type": "function"
    }
  ],
  "transactionHash": "0x4549772260ed77c431e960368cb3327566b314ac29748aa054171a0a7e289e1a",
  "args": [],
  "numDeployments": 1,
  "solcInputHash": "9453ea5d55c5a68d6003a09046576297",
  "bytecode": "0x60806040523480156200001157600080fd5b506040518060400160405280600581526020017f44726970510000000000000000000000000000000000000000000000000000008152506040518060400160405280600181526020017f5100000000000000000000000000000000000000000000000000000000000000815250816000908051906020019062000096929190620001ef565b508060019080519060200190620000af929190620001ef565b505050620000d2620000c66200012160201b60201c565b6200012960201b60201c565b33600b60006101000a81548173ffffffffffffffffffffffffffffffffffffffff021916908373ffffffffffffffffffffffffffffffffffffffff1602179055506000600c8190555062000304565b600033905090565b6000600a60009054906101000a900473ffffffffffffffffffffffffffffffffffffffff16905081600a60006101000a81548173ffffffffffffffffffffffffffffffffffffffff021916908373ffffffffffffffffffffffffffffffffffffffff1602179055508173ffffffffffffffffffffffffffffffffffffffff168173ffffffffffffffffffffffffffffffffffffffff167f8be0079c531659141344cd1fd0a4f28419497f9722a3daafe3b4186f6b6457e060405160405180910390a35050565b828054620001fd90620002ce565b90600052602060002090601f0160209004810192826200022157600085556200026d565b82601f106200023c57805160ff19168380011785556200026d565b828001600101855582156200026d579182015b828111156200026c5782518255916020019190600101906200024f565b5b5090506200027c919062000280565b5090565b5b808211156200029b57600081600090555060010162000281565b5090565b7f4e487b7100000000000000000000000000000000000000000000000000000000600052602260045260246000fd5b60006002820490506001821680620002e757607f821691505b60208210811415620002fe57620002fd6200029f565b5b50919050565b61481a80620003146000396000f3fe6080604052600436106101cd5760003560e01c806370a08231116100f7578063c1dfa0bb11610095578063e985e9c511610064578063e985e9c51461069b578063f2fde38b146106d8578063fac9101c14610701578063ff4af37d1461073e576101cd565b8063c1dfa0bb146105f0578063c87b56dd14610619578063c87f464814610656578063c980c62614610672576101cd565b806393e62e97116100d157806393e62e971461054a57806395d89b4114610573578063a22cb4651461059e578063b88d4fde146105c7576101cd565b806370a08231146104cb578063715018a6146105085780638da5cb5b1461051f576101cd565b80632f745c591161016f5780634f6ccce71161013e5780634f6ccce7146103fd5780636352211e1461043a5780636e02007d146104775780636eb604e0146104a2576101cd565b80632f745c59146103315780633bdecd7b1461036e57806342842e0e146103975780634378a6e3146103c0576101cd565b8063095ea7b3116101ab578063095ea7b31461027757806318160ddd146102a057806323b872dd146102cb5780632607aafa146102f4576101cd565b806301ffc9a7146101d257806306fdde031461020f578063081812fc1461023a575b600080fd5b3480156101de57600080fd5b506101f960048036038101906101f49190612f42565b61077b565b6040516102069190612f8a565b60405180910390f35b34801561021b57600080fd5b506102246107f5565b604051610231919061303e565b60405180910390f35b34801561024657600080fd5b50610261600480360381019061025c9190613096565b610887565b60405161026e9190613104565b60405180910390f35b34801561028357600080fd5b5061029e6004803603810190610299919061314b565b6108cd565b005b3480156102ac57600080fd5b506102b56109e5565b6040516102c2919061319a565b60405180910390f35b3480156102d757600080fd5b506102f260048036038101906102ed91906131b5565b6109f2565b005b34801561030057600080fd5b5061031b60048036038101906103169190613096565b610a52565b604051610328919061303e565b60405180910390f35b34801561033d57600080fd5b506103586004803603810190610353919061314b565b610af7565b604051610365919061319a565b60405180910390f35b34801561037a57600080fd5b506103956004803603810190610390919061333d565b610b9c565b005b3480156103a357600080fd5b506103be60048036038101906103b991906131b5565b610bd0565b005b3480156103cc57600080fd5b506103e760048036038101906103e29190613096565b610bf0565b6040516103f4919061303e565b60405180910390f35b34801561040957600080fd5b50610424600480360381019061041f9190613096565b610c95565b604051610431919061319a565b60405180910390f35b34801561044657600080fd5b50610461600480360381019061045c9190613096565b610d06565b60405161046e9190613104565b60405180910390f35b34801561048357600080fd5b5061048c610d8d565b604051610499919061319a565b60405180910390f35b3480156104ae57600080fd5b506104c960048036038101906104c49190613096565b610d97565b005b3480156104d757600080fd5b506104f260048036038101906104ed9190613399565b610ee1565b6040516104ff919061319a565b60405180910390f35b34801561051457600080fd5b5061051d610f99565b005b34801561052b57600080fd5b50610534610fad565b6040516105419190613104565b60405180910390f35b34801561055657600080fd5b50610571600480360381019061056c91906133fc565b610fd7565b005b34801561057f57600080fd5b50610588610ffb565b604051610595919061303e565b60405180910390f35b3480156105aa57600080fd5b506105c560048036038101906105c09190613468565b61108d565b005b3480156105d357600080fd5b506105ee60048036038101906105e99190613549565b6110a3565b005b3480156105fc57600080fd5b5061061760048036038101906106129190613096565b611105565b005b34801561062557600080fd5b50610640600480360381019061063b9190613096565b61124e565b60405161064d919061303e565b60405180910390f35b610670600480360381019061066b91906135cc565b6114f7565b005b34801561067e57600080fd5b506106996004803603810190610694919061333d565b611672565b005b3480156106a757600080fd5b506106c260048036038101906106bd919061366b565b6116be565b6040516106cf9190612f8a565b60405180910390f35b3480156106e457600080fd5b506106ff60048036038101906106fa9190613399565b611752565b005b34801561070d57600080fd5b5061072860048036038101906107239190613096565b6117d6565b6040516107359190612f8a565b60405180910390f35b34801561074a57600080fd5b5061076560048036038101906107609190613096565b611800565b60405161077291906136ba565b60405180910390f35b60007f780e9d63000000000000000000000000000000000000000000000000000000007bffffffffffffffffffffffffffffffffffffffffffffffffffffffff1916827bffffffffffffffffffffffffffffffffffffffffffffffffffffffff191614806107ee57506107ed8261181d565b5b9050919050565b60606000805461080490613704565b80601f016020809104026020016040519081016040528092919081815260200182805461083090613704565b801561087d5780601f106108525761010080835404028352916020019161087d565b820191906000526020600020905b81548152906001019060200180831161086057829003601f168201915b5050505050905090565b6000610892826118ff565b6004600083815260200190815260200160002060009054906101000a900473ffffffffffffffffffffffffffffffffffffffff169050919050565b60006108d882610d06565b90508073ffffffffffffffffffffffffffffffffffffffff168373ffffffffffffffffffffffffffffffffffffffff161415610949576040517f08c379a0000000000000000000000000000000000000000000000000000000008152600401610940906137a8565b60405180910390fd5b8073ffffffffffffffffffffffffffffffffffffffff1661096861194a565b73ffffffffffffffffffffffffffffffffffffffff16148061099757506109968161099161194a565b6116be565b5b6109d6576040517f08c379a00000000000000000000000000000000000000000000000000000000081526004016109cd9061383a565b60405180910390fd5b6109e08383611952565b505050565b6000600880549050905090565b610a036109fd61194a565b82611a0b565b610a42576040517f08c379a0000000000000000000000000000000000000000000000000000000008152600401610a39906138cc565b60405180910390fd5b610a4d838383611aa0565b505050565b6060600e60008381526020019081526020016000208054610a7290613704565b80601f0160208091040260200160405190810160405280929190818152602001828054610a9e90613704565b8015610aeb5780601f10610ac057610100808354040283529160200191610aeb565b820191906000526020600020905b815481529060010190602001808311610ace57829003601f168201915b50505050509050919050565b6000610b0283610ee1565b8210610b43576040517f08c379a0000000000000000000000000000000000000000000000000000000008152600401610b3a9061395e565b60405180910390fd5b600660008473ffffffffffffffffffffffffffffffffffffffff1673ffffffffffffffffffffffffffffffffffffffff168152602001908152602001600020600083815260200190815260200160002054905092915050565b610ba4611d9a565b80600f60008481526020019081526020016000209080519060200190610bcb929190612e33565b505050565b610beb838383604051806020016040528060008152506110a3565b505050565b6060600f60008381526020019081526020016000208054610c1090613704565b80601f0160208091040260200160405190810160405280929190818152602001828054610c3c90613704565b8015610c895780601f10610c5e57610100808354040283529160200191610c89565b820191906000526020600020905b815481529060010190602001808311610c6c57829003601f168201915b50505050509050919050565b6000610c9f6109e5565b8210610ce0576040517f08c379a0000000000000000000000000000000000000000000000000000000008152600401610cd7906139f0565b60405180910390fd5b60088281548110610cf457610cf3613a10565b5b90600052602060002001549050919050565b600080610d1283611e18565b9050600073ffffffffffffffffffffffffffffffffffffffff168173ffffffffffffffffffffffffffffffffffffffff161415610d84576040517f08c379a0000000000000000000000000000000000000000000000000000000008152600401610d7b90613a8b565b60405180910390fd5b80915050919050565b6000600c54905090565b3373ffffffffffffffffffffffffffffffffffffffff16610db782610d06565b73ffffffffffffffffffffffffffffffffffffffff1614610e0d576040517f08c379a0000000000000000000000000000000000000000000000000000000008152600401610e0490613af7565b60405180910390fd5b6010600082815260200190815260200160002060009054906101000a900460ff1615610e6e576040517f08c379a0000000000000000000000000000000000000000000000000000000008152600401610e6590613b63565b60405180910390fd5b60016010600083815260200190815260200160002060006101000a81548160ff021916908315150217905550803373ffffffffffffffffffffffffffffffffffffffff167f0cda5cf38f6592672c7b4a22ff3d50874d1913629bd5ffedc27b7b40503d60fd60405160405180910390a350565b60008073ffffffffffffffffffffffffffffffffffffffff168273ffffffffffffffffffffffffffffffffffffffff161415610f52576040517f08c379a0000000000000000000000000000000000000000000000000000000008152600401610f4990613bf5565b60405180910390fd5b600360008373ffffffffffffffffffffffffffffffffffffffff1673ffffffffffffffffffffffffffffffffffffffff168152602001908152602001600020549050919050565b610fa1611d9a565b610fab6000611e55565b565b6000600a60009054906101000a900473ffffffffffffffffffffffffffffffffffffffff16905090565b610fdf611d9a565b80600d6000848152602001908152602001600020819055505050565b60606001805461100a90613704565b80601f016020809104026020016040519081016040528092919081815260200182805461103690613704565b80156110835780601f1061105857610100808354040283529160200191611083565b820191906000526020600020905b81548152906001019060200180831161106657829003601f168201915b5050505050905090565b61109f61109861194a565b8383611f1b565b5050565b6110b46110ae61194a565b83611a0b565b6110f3576040517f08c379a00000000000000000000000000000000000000000000000000000000081526004016110ea906138cc565b60405180910390fd5b6110ff84848484612088565b50505050565b3373ffffffffffffffffffffffffffffffffffffffff1661112582610d06565b73ffffffffffffffffffffffffffffffffffffffff161461117b576040517f08c379a000000000000000000000000000000000000000000000000000000000815260040161117290613c87565b60405180910390fd5b6010600082815260200190815260200160002060009054906101000a900460ff166111db576040517f08c379a00000000000000000000000000000000000000000000000000000000081526004016111d290613cf3565b60405180910390fd5b60006010600083815260200190815260200160002060006101000a81548160ff021916908315150217905550803373ffffffffffffffffffffffffffffffffffffffff167f963148346e3c93bb3eb4b4c296e2e13321ff22bf1118c91686cb1bfe4adcd91860405160405180910390a350565b6060611259826120e4565b61128f576040517f6df5edae00000000000000000000000000000000000000000000000000000000815260040160405180910390fd5b6000600e600084815260200190815260200160002080546112af90613704565b80601f01602080910402602001604051908101604052809291908181526020018280546112db90613704565b80156113285780601f106112fd57610100808354040283529160200191611328565b820191906000526020600020905b81548152906001019060200180831161130b57829003601f168201915b505050505090506000600f6000858152602001908152602001600020805461134f90613704565b80601f016020809104026020016040519081016040528092919081815260200182805461137b90613704565b80156113c85780601f1061139d576101008083540402835291602001916113c8565b820191906000526020600020905b8154815290600101906020018083116113ab57829003601f168201915b5050505050905060006010600086815260200190815260200160002060009054906101000a900460ff16905060006113ff86612125565b60405160200161140f9190613d9b565b60405160208183030381529060405290506114286121fd565b6114cc8285878661146e576040518060400160405280600581526020017f66616c73650000000000000000000000000000000000000000000000000000008152506114a5565b6040518060400160405280600481526020017f74727565000000000000000000000000000000000000000000000000000000008152505b6040516020016114b89493929190613f85565b60405160208183030381529060405261223a565b6040516020016114dd929190614005565b604051602081830303815290604052945050505050919050565b8034101561153a576040517f08c379a000000000000000000000000000000000000000000000000000000000815260040161153190614075565b60405180910390fd5b83600d6000600c5481526020019081526020016000208190555082600e6000600c548152602001908152602001600020908051906020019061157d929190612e33565b5081600f6000600c54815260200190815260200160002090805190602001906115a7929190612e33565b506115b433600c546123b3565b6001600c546115c391906140c4565b600c81905550600b60009054906101000a900473ffffffffffffffffffffffffffffffffffffffff1673ffffffffffffffffffffffffffffffffffffffff166108fc349081150290604051600060405180830381858888f19350505050158015611631573d6000803e3d6000fd5b50600c547f882d3b5a729a8bb95cf6c0083c99b42ecd9637123d4425bd7b768877fd8af8b08560405161166491906136ba565b60405180910390a250505050565b61167a611d9a565b600061168583611800565b905060018114156116b95781600e600085815260200190815260200160002090805190602001906116b7929190612e33565b505b505050565b6000600560008473ffffffffffffffffffffffffffffffffffffffff1673ffffffffffffffffffffffffffffffffffffffff16815260200190815260200160002060008373ffffffffffffffffffffffffffffffffffffffff1673ffffffffffffffffffffffffffffffffffffffff16815260200190815260200160002060009054906101000a900460ff16905092915050565b61175a611d9a565b600073ffffffffffffffffffffffffffffffffffffffff168173ffffffffffffffffffffffffffffffffffffffff1614156117ca576040517f08c379a00000000000000000000000000000000000000000000000000000000081526004016117c19061418c565b60405180910390fd5b6117d381611e55565b50565b60006010600083815260200190815260200160002060009054906101000a900460ff169050919050565b6000600d6000838152602001908152602001600020549050919050565b60007f80ac58cd000000000000000000000000000000000000000000000000000000007bffffffffffffffffffffffffffffffffffffffffffffffffffffffff1916827bffffffffffffffffffffffffffffffffffffffffffffffffffffffff191614806118e857507f5b5e139f000000000000000000000000000000000000000000000000000000007bffffffffffffffffffffffffffffffffffffffffffffffffffffffff1916827bffffffffffffffffffffffffffffffffffffffffffffffffffffffff1916145b806118f857506118f7826123d1565b5b9050919050565b611908816120e4565b611947576040517f08c379a000000000000000000000000000000000000000000000000000000000815260040161193e90613a8b565b60405180910390fd5b50565b600033905090565b816004600083815260200190815260200160002060006101000a81548173ffffffffffffffffffffffffffffffffffffffff021916908373ffffffffffffffffffffffffffffffffffffffff160217905550808273ffffffffffffffffffffffffffffffffffffffff166119c583610d06565b73ffffffffffffffffffffffffffffffffffffffff167f8c5be1e5ebec7d5bd14f71427d1e84f3dd0314c0f7b2291e5b200ac8c7c3b92560405160405180910390a45050565b600080611a1783610d06565b90508073ffffffffffffffffffffffffffffffffffffffff168473ffffffffffffffffffffffffffffffffffffffff161480611a595750611a5881856116be565b5b80611a9757508373ffffffffffffffffffffffffffffffffffffffff16611a7f84610887565b73ffffffffffffffffffffffffffffffffffffffff16145b91505092915050565b8273ffffffffffffffffffffffffffffffffffffffff16611ac082610d06565b73ffffffffffffffffffffffffffffffffffffffff1614611b16576040517f08c379a0000000000000000000000000000000000000000000000000000000008152600401611b0d9061421e565b60405180910390fd5b600073ffffffffffffffffffffffffffffffffffffffff168273ffffffffffffffffffffffffffffffffffffffff161415611b86576040517f08c379a0000000000000000000000000000000000000000000000000000000008152600401611b7d906142b0565b60405180910390fd5b611b93838383600161243b565b8273ffffffffffffffffffffffffffffffffffffffff16611bb382610d06565b73ffffffffffffffffffffffffffffffffffffffff1614611c09576040517f08c379a0000000000000000000000000000000000000000000000000000000008152600401611c009061421e565b60405180910390fd5b6004600082815260200190815260200160002060006101000a81549073ffffffffffffffffffffffffffffffffffffffff02191690556001600360008573ffffffffffffffffffffffffffffffffffffffff1673ffffffffffffffffffffffffffffffffffffffff168152602001908152602001600020600082825403925050819055506001600360008473ffffffffffffffffffffffffffffffffffffffff1673ffffffffffffffffffffffffffffffffffffffff16815260200190815260200160002060008282540192505081905550816002600083815260200190815260200160002060006101000a81548173ffffffffffffffffffffffffffffffffffffffff021916908373ffffffffffffffffffffffffffffffffffffffff160217905550808273ffffffffffffffffffffffffffffffffffffffff168473ffffffffffffffffffffffffffffffffffffffff167fddf252ad1be2c89b69c2b068fc378daa952ba7f163c4a11628f55a4df523b3ef60405160405180910390a4611d95838383600161259b565b505050565b611da261194a565b73ffffffffffffffffffffffffffffffffffffffff16611dc0610fad565b73ffffffffffffffffffffffffffffffffffffffff1614611e16576040517f08c379a0000000000000000000000000000000000000000000000000000000008152600401611e0d9061431c565b60405180910390fd5b565b60006002600083815260200190815260200160002060009054906101000a900473ffffffffffffffffffffffffffffffffffffffff169050919050565b6000600a60009054906101000a900473ffffffffffffffffffffffffffffffffffffffff16905081600a60006101000a81548173ffffffffffffffffffffffffffffffffffffffff021916908373ffffffffffffffffffffffffffffffffffffffff1602179055508173ffffffffffffffffffffffffffffffffffffffff168173ffffffffffffffffffffffffffffffffffffffff167f8be0079c531659141344cd1fd0a4f28419497f9722a3daafe3b4186f6b6457e060405160405180910390a35050565b8173ffffffffffffffffffffffffffffffffffffffff168373ffffffffffffffffffffffffffffffffffffffff161415611f8a576040517f08c379a0000000000000000000000000000000000000000000000000000000008152600401611f8190614388565b60405180910390fd5b80600560008573ffffffffffffffffffffffffffffffffffffffff1673ffffffffffffffffffffffffffffffffffffffff16815260200190815260200160002060008473ffffffffffffffffffffffffffffffffffffffff1673ffffffffffffffffffffffffffffffffffffffff16815260200190815260200160002060006101000a81548160ff0219169083151502179055508173ffffffffffffffffffffffffffffffffffffffff168373ffffffffffffffffffffffffffffffffffffffff167f17307eab39ab6107e8899845ad3d59bd9653f200f220920489ca2b5937696c318360405161207b9190612f8a565b60405180910390a3505050565b612093848484611aa0565b61209f848484846125a1565b6120de576040517f08c379a00000000000000000000000000000000000000000000000000000000081526004016120d59061441a565b60405180910390fd5b50505050565b60008073ffffffffffffffffffffffffffffffffffffffff1661210683611e18565b73ffffffffffffffffffffffffffffffffffffffff1614159050919050565b60606000600161213484612738565b01905060008167ffffffffffffffff81111561215357612152613212565b5b6040519080825280601f01601f1916602001820160405280156121855781602001600182028036833780820191505090505b509050600082602001820190505b6001156121f2578080600190039150507f3031323334353637383961626364656600000000000000000000000000000000600a86061a8153600a85816121dc576121db61443a565b5b04945060008514156121ed576121f2565b612193565b819350505050919050565b60606040518060400160405280601d81526020017f646174613a6170706c69636174696f6e2f6a736f6e3b6261736536342c000000815250905090565b606060008251141561225d576040518060200160405280600081525090506123ae565b60006040518060600160405280604081526020016147a5604091399050600060036002855161228c91906140c4565b6122969190614469565b60046122a2919061449a565b905060006020826122b391906140c4565b67ffffffffffffffff8111156122cc576122cb613212565b5b6040519080825280601f01601f1916602001820160405280156122fe5781602001600182028036833780820191505090505b509050818152600183018586518101602084015b8183101561236d576003830192508251603f8160121c168501518253600182019150603f81600c1c168501518253600182019150603f8160061c168501518253600182019150603f8116850151825360018201915050612312565b6003895106600181146123875760028114612397576123a2565b613d3d60f01b60028303526123a2565b603d60f81b60018303525b50505050508093505050505b919050565b6123cd82826040518060200160405280600081525061288b565b5050565b60007f01ffc9a7000000000000000000000000000000000000000000000000000000007bffffffffffffffffffffffffffffffffffffffffffffffffffffffff1916827bffffffffffffffffffffffffffffffffffffffffffffffffffffffff1916149050919050565b612447848484846128e6565b600181111561248b576040517f08c379a000000000000000000000000000000000000000000000000000000000815260040161248290614566565b60405180910390fd5b6000829050600073ffffffffffffffffffffffffffffffffffffffff168573ffffffffffffffffffffffffffffffffffffffff1614156124d3576124ce816128ec565b612512565b8373ffffffffffffffffffffffffffffffffffffffff168573ffffffffffffffffffffffffffffffffffffffff1614612511576125108582612935565b5b5b600073ffffffffffffffffffffffffffffffffffffffff168473ffffffffffffffffffffffffffffffffffffffff1614156125555761255081612aa2565b612594565b8473ffffffffffffffffffffffffffffffffffffffff168473ffffffffffffffffffffffffffffffffffffffff1614612593576125928482612b73565b5b5b5050505050565b50505050565b60006125c28473ffffffffffffffffffffffffffffffffffffffff16612bf2565b1561272b578373ffffffffffffffffffffffffffffffffffffffff1663150b7a026125eb61194a565b8786866040518563ffffffff1660e01b815260040161260d94939291906145db565b602060405180830381600087803b15801561262757600080fd5b505af192505050801561265857506040513d601f19601f82011682018060405250810190612655919061463c565b60015b6126db573d8060008114612688576040519150601f19603f3d011682016040523d82523d6000602084013e61268d565b606091505b506000815114156126d3576040517f08c379a00000000000000000000000000000000000000000000000000000000081526004016126ca9061441a565b60405180910390fd5b805181602001fd5b63150b7a0260e01b7bffffffffffffffffffffffffffffffffffffffffffffffffffffffff1916817bffffffffffffffffffffffffffffffffffffffffffffffffffffffff191614915050612730565b600190505b949350505050565b600080600090507a184f03e93ff9f4daa797ed6e38ed64bf6a1f0100000000000000008310612796577a184f03e93ff9f4daa797ed6e38ed64bf6a1f010000000000000000838161278c5761278b61443a565b5b0492506040810190505b6d04ee2d6d415b85acef810000000083106127d3576d04ee2d6d415b85acef810000000083816127c9576127c861443a565b5b0492506020810190505b662386f26fc10000831061280257662386f26fc1000083816127f8576127f761443a565b5b0492506010810190505b6305f5e100831061282b576305f5e10083816128215761282061443a565b5b0492506008810190505b61271083106128505761271083816128465761284561443a565b5b0492506004810190505b6064831061287357606483816128695761286861443a565b5b0492506002810190505b600a8310612882576001810190505b80915050919050565b6128958383612c15565b6128a260008484846125a1565b6128e1576040517f08c379a00000000000000000000000000000000000000000000000000000000081526004016128d89061441a565b60405180910390fd5b505050565b50505050565b6008805490506009600083815260200190815260200160002081905550600881908060018154018082558091505060019003906000526020600020016000909190919091505550565b6000600161294284610ee1565b61294c9190614669565b9050600060076000848152602001908152602001600020549050818114612a31576000600660008673ffffffffffffffffffffffffffffffffffffffff1673ffffffffffffffffffffffffffffffffffffffff168152602001908152602001600020600084815260200190815260200160002054905080600660008773ffffffffffffffffffffffffffffffffffffffff1673ffffffffffffffffffffffffffffffffffffffff168152602001908152602001600020600084815260200190815260200160002081905550816007600083815260200190815260200160002081905550505b6007600084815260200190815260200160002060009055600660008573ffffffffffffffffffffffffffffffffffffffff1673ffffffffffffffffffffffffffffffffffffffff16815260200190815260200160002060008381526020019081526020016000206000905550505050565b60006001600880549050612ab69190614669565b9050600060096000848152602001908152602001600020549050600060088381548110612ae657612ae5613a10565b5b906000526020600020015490508060088381548110612b0857612b07613a10565b5b906000526020600020018190555081600960008381526020019081526020016000208190555060096000858152602001908152602001600020600090556008805480612b5757612b5661469d565b5b6001900381819060005260206000200160009055905550505050565b6000612b7e83610ee1565b905081600660008573ffffffffffffffffffffffffffffffffffffffff1673ffffffffffffffffffffffffffffffffffffffff168152602001908152602001600020600083815260200190815260200160002081905550806007600084815260200190815260200160002081905550505050565b6000808273ffffffffffffffffffffffffffffffffffffffff163b119050919050565b600073ffffffffffffffffffffffffffffffffffffffff168273ffffffffffffffffffffffffffffffffffffffff161415612c85576040517f08c379a0000000000000000000000000000000000000000000000000000000008152600401612c7c90614718565b60405180910390fd5b612c8e816120e4565b15612cce576040517f08c379a0000000000000000000000000000000000000000000000000000000008152600401612cc590614784565b60405180910390fd5b612cdc60008383600161243b565b612ce5816120e4565b15612d25576040517f08c379a0000000000000000000000000000000000000000000000000000000008152600401612d1c90614784565b60405180910390fd5b6001600360008473ffffffffffffffffffffffffffffffffffffffff1673ffffffffffffffffffffffffffffffffffffffff16815260200190815260200160002060008282540192505081905550816002600083815260200190815260200160002060006101000a81548173ffffffffffffffffffffffffffffffffffffffff021916908373ffffffffffffffffffffffffffffffffffffffff160217905550808273ffffffffffffffffffffffffffffffffffffffff16600073ffffffffffffffffffffffffffffffffffffffff167fddf252ad1be2c89b69c2b068fc378daa952ba7f163c4a11628f55a4df523b3ef60405160405180910390a4612e2f60008383600161259b565b5050565b828054612e3f90613704565b90600052602060002090601f016020900481019282612e615760008555612ea8565b82601f10612e7a57805160ff1916838001178555612ea8565b82800160010185558215612ea8579182015b82811115612ea7578251825591602001919060010190612e8c565b5b509050612eb59190612eb9565b5090565b5b80821115612ed2576000816000905550600101612eba565b5090565b6000604051905090565b600080fd5b600080fd5b60007fffffffff0000000000000000000000000000000000000000000000000000000082169050919050565b612f1f81612eea565b8114612f2a57600080fd5b50565b600081359050612f3c81612f16565b92915050565b600060208284031215612f5857612f57612ee0565b5b6000612f6684828501612f2d565b91505092915050565b60008115159050919050565b612f8481612f6f565b82525050565b6000602082019050612f9f6000830184612f7b565b92915050565b600081519050919050565b600082825260208201905092915050565b60005b83811015612fdf578082015181840152602081019050612fc4565b83811115612fee576000848401525b50505050565b6000601f19601f8301169050919050565b600061301082612fa5565b61301a8185612fb0565b935061302a818560208601612fc1565b61303381612ff4565b840191505092915050565b600060208201905081810360008301526130588184613005565b905092915050565b6000819050919050565b61307381613060565b811461307e57600080fd5b50565b6000813590506130908161306a565b92915050565b6000602082840312156130ac576130ab612ee0565b5b60006130ba84828501613081565b91505092915050565b600073ffffffffffffffffffffffffffffffffffffffff82169050919050565b60006130ee826130c3565b9050919050565b6130fe816130e3565b82525050565b600060208201905061311960008301846130f5565b92915050565b613128816130e3565b811461313357600080fd5b50565b6000813590506131458161311f565b92915050565b6000806040838503121561316257613161612ee0565b5b600061317085828601613136565b925050602061318185828601613081565b9150509250929050565b61319481613060565b82525050565b60006020820190506131af600083018461318b565b92915050565b6000806000606084860312156131ce576131cd612ee0565b5b60006131dc86828701613136565b93505060206131ed86828701613136565b92505060406131fe86828701613081565b9150509250925092565b600080fd5b600080fd5b7f4e487b7100000000000000000000000000000000000000000000000000000000600052604160045260246000fd5b61324a82612ff4565b810181811067ffffffffffffffff8211171561326957613268613212565b5b80604052505050565b600061327c612ed6565b90506132888282613241565b919050565b600067ffffffffffffffff8211156132a8576132a7613212565b5b6132b182612ff4565b9050602081019050919050565b82818337600083830152505050565b60006132e06132db8461328d565b613272565b9050828152602081018484840111156132fc576132fb61320d565b5b6133078482856132be565b509392505050565b600082601f83011261332457613323613208565b5b81356133348482602086016132cd565b91505092915050565b6000806040838503121561335457613353612ee0565b5b600061336285828601613081565b925050602083013567ffffffffffffffff81111561338357613382612ee5565b5b61338f8582860161330f565b9150509250929050565b6000602082840312156133af576133ae612ee0565b5b60006133bd84828501613136565b91505092915050565b6000819050919050565b6133d9816133c6565b81146133e457600080fd5b50565b6000813590506133f6816133d0565b92915050565b6000806040838503121561341357613412612ee0565b5b600061342185828601613081565b9250506020613432858286016133e7565b9150509250929050565b61344581612f6f565b811461345057600080fd5b50565b6000813590506134628161343c565b92915050565b6000806040838503121561347f5761347e612ee0565b5b600061348d85828601613136565b925050602061349e85828601613453565b9150509250929050565b600067ffffffffffffffff8211156134c3576134c2613212565b5b6134cc82612ff4565b9050602081019050919050565b60006134ec6134e7846134a8565b613272565b9050828152602081018484840111156135085761350761320d565b5b6135138482856132be565b509392505050565b600082601f8301126135305761352f613208565b5b81356135408482602086016134d9565b91505092915050565b6000806000806080858703121561356357613562612ee0565b5b600061357187828801613136565b945050602061358287828801613136565b935050604061359387828801613081565b925050606085013567ffffffffffffffff8111156135b4576135b3612ee5565b5b6135c08782880161351b565b91505092959194509250565b600080600080608085870312156135e6576135e5612ee0565b5b60006135f4878288016133e7565b945050602085013567ffffffffffffffff81111561361557613614612ee5565b5b6136218782880161330f565b935050604085013567ffffffffffffffff81111561364257613641612ee5565b5b61364e8782880161330f565b925050606061365f87828801613081565b91505092959194509250565b6000806040838503121561368257613681612ee0565b5b600061369085828601613136565b92505060206136a185828601613136565b9150509250929050565b6136b4816133c6565b82525050565b60006020820190506136cf60008301846136ab565b92915050565b7f4e487b7100000000000000000000000000000000000000000000000000000000600052602260045260246000fd5b6000600282049050600182168061371c57607f821691505b602082108114156137305761372f6136d5565b5b50919050565b7f4552433732313a20617070726f76616c20746f2063757272656e74206f776e6560008201527f7200000000000000000000000000000000000000000000000000000000000000602082015250565b6000613792602183612fb0565b915061379d82613736565b604082019050919050565b600060208201905081810360008301526137c181613785565b9050919050565b7f4552433732313a20617070726f76652063616c6c6572206973206e6f7420746f60008201527f6b656e206f776e6572206f7220617070726f76656420666f7220616c6c000000602082015250565b6000613824603d83612fb0565b915061382f826137c8565b604082019050919050565b6000602082019050818103600083015261385381613817565b9050919050565b7f4552433732313a2063616c6c6572206973206e6f7420746f6b656e206f776e6560008201527f72206f7220617070726f76656400000000000000000000000000000000000000602082015250565b60006138b6602d83612fb0565b91506138c18261385a565b604082019050919050565b600060208201905081810360008301526138e5816138a9565b9050919050565b7f455243373231456e756d657261626c653a206f776e657220696e646578206f7560008201527f74206f6620626f756e6473000000000000000000000000000000000000000000602082015250565b6000613948602b83612fb0565b9150613953826138ec565b604082019050919050565b600060208201905081810360008301526139778161393b565b9050919050565b7f455243373231456e756d657261626c653a20676c6f62616c20696e646578206f60008201527f7574206f6620626f756e64730000000000000000000000000000000000000000602082015250565b60006139da602c83612fb0565b91506139e58261397e565b604082019050919050565b60006020820190508181036000830152613a09816139cd565b9050919050565b7f4e487b7100000000000000000000000000000000000000000000000000000000600052603260045260246000fd5b7f4552433732313a20696e76616c696420746f6b656e2049440000000000000000600082015250565b6000613a75601883612fb0565b9150613a8082613a3f565b602082019050919050565b60006020820190508181036000830152613aa481613a68565b9050919050565b7f4f6e6c7920746865206f776e65722063616e207374616b6520746865204e4654600082015250565b6000613ae1602083612fb0565b9150613aec82613aab565b602082019050919050565b60006020820190508181036000830152613b1081613ad4565b9050919050565b7f4e465420697320616c7265616479207374616b65640000000000000000000000600082015250565b6000613b4d601583612fb0565b9150613b5882613b17565b602082019050919050565b60006020820190508181036000830152613b7c81613b40565b9050919050565b7f4552433732313a2061646472657373207a65726f206973206e6f74206120766160008201527f6c6964206f776e65720000000000000000000000000000000000000000000000602082015250565b6000613bdf602983612fb0565b9150613bea82613b83565b604082019050919050565b60006020820190508181036000830152613c0e81613bd2565b9050919050565b7f4f6e6c7920746865206f776e65722063616e20756e7374616b6520746865204e60008201527f4654000000000000000000000000000000000000000000000000000000000000602082015250565b6000613c71602283612fb0565b9150613c7c82613c15565b604082019050919050565b60006020820190508181036000830152613ca081613c64565b9050919050565b7f4e4654206973206e6f74207374616b6564000000000000000000000000000000600082015250565b6000613cdd601183612fb0565b9150613ce882613ca7565b602082019050919050565b60006020820190508181036000830152613d0c81613cd0565b9050919050565b600081905092915050565b7f5120230000000000000000000000000000000000000000000000000000000000600082015250565b6000613d54600383613d13565b9150613d5f82613d1e565b600382019050919050565b6000613d7582612fa5565b613d7f8185613d13565b9350613d8f818560208601612fc1565b80840191505092915050565b6000613da682613d47565b9150613db28284613d6a565b915081905092915050565b7f7b226e616d65223a220000000000000000000000000000000000000000000000600082015250565b6000613df3600983613d13565b9150613dfe82613dbd565b600982019050919050565b7f222c20226465736372697074696f6e223a2251222c2000000000000000000000600082015250565b6000613e3f601683613d13565b9150613e4a82613e09565b601682019050919050565b7f2261747472696275746573223a00000000000000000000000000000000000000600082015250565b6000613e8b600d83613d13565b9150613e9682613e55565b600d82019050919050565b7f2c22696d616765223a2200000000000000000000000000000000000000000000600082015250565b6000613ed7600a83613d13565b9150613ee282613ea1565b600a82019050919050565b7f222c227374616b6564223a220000000000000000000000000000000000000000600082015250565b6000613f23600c83613d13565b9150613f2e82613eed565b600c82019050919050565b7f227d000000000000000000000000000000000000000000000000000000000000600082015250565b6000613f6f600283613d13565b9150613f7a82613f39565b600282019050919050565b6000613f9082613de6565b9150613f9c8287613d6a565b9150613fa782613e32565b9150613fb282613e7e565b9150613fbe8286613d6a565b9150613fc982613eca565b9150613fd58285613d6a565b9150613fe082613f16565b9150613fec8284613d6a565b9150613ff782613f62565b915081905095945050505050565b60006140118285613d6a565b915061401d8284613d6a565b91508190509392505050565b7f4d6f726520455448207265717569726564000000000000000000000000000000600082015250565b600061405f601183612fb0565b915061406a82614029565b602082019050919050565b6000602082019050818103600083015261408e81614052565b9050919050565b7f4e487b7100000000000000000000000000000000000000000000000000000000600052601160045260246000fd5b60006140cf82613060565b91506140da83613060565b9250827fffffffffffffffffffffffffffffffffffffffffffffffffffffffffffffffff0382111561410f5761410e614095565b5b828201905092915050565b7f4f776e61626c653a206e6577206f776e657220697320746865207a65726f206160008201527f6464726573730000000000000000000000000000000000000000000000000000602082015250565b6000614176602683612fb0565b91506141818261411a565b604082019050919050565b600060208201905081810360008301526141a581614169565b9050919050565b7f4552433732313a207472616e736665722066726f6d20696e636f72726563742060008201527f6f776e6572000000000000000000000000000000000000000000000000000000602082015250565b6000614208602583612fb0565b9150614213826141ac565b604082019050919050565b60006020820190508181036000830152614237816141fb565b9050919050565b7f4552433732313a207472616e7366657220746f20746865207a65726f2061646460008201527f7265737300000000000000000000000000000000000000000000000000000000602082015250565b600061429a602483612fb0565b91506142a58261423e565b604082019050919050565b600060208201905081810360008301526142c98161428d565b9050919050565b7f4f776e61626c653a2063616c6c6572206973206e6f7420746865206f776e6572600082015250565b6000614306602083612fb0565b9150614311826142d0565b602082019050919050565b60006020820190508181036000830152614335816142f9565b9050919050565b7f4552433732313a20617070726f766520746f2063616c6c657200000000000000600082015250565b6000614372601983612fb0565b915061437d8261433c565b602082019050919050565b600060208201905081810360008301526143a181614365565b9050919050565b7f4552433732313a207472616e7366657220746f206e6f6e20455243373231526560008201527f63656976657220696d706c656d656e7465720000000000000000000000000000602082015250565b6000614404603283612fb0565b915061440f826143a8565b604082019050919050565b60006020820190508181036000830152614433816143f7565b9050919050565b7f4e487b7100000000000000000000000000000000000000000000000000000000600052601260045260246000fd5b600061447482613060565b915061447f83613060565b92508261448f5761448e61443a565b5b828204905092915050565b60006144a582613060565b91506144b083613060565b9250817fffffffffffffffffffffffffffffffffffffffffffffffffffffffffffffffff04831182151516156144e9576144e8614095565b5b828202905092915050565b7f455243373231456e756d657261626c653a20636f6e736563757469766520747260008201527f616e7366657273206e6f7420737570706f727465640000000000000000000000602082015250565b6000614550603583612fb0565b915061455b826144f4565b604082019050919050565b6000602082019050818103600083015261457f81614543565b9050919050565b600081519050919050565b600082825260208201905092915050565b60006145ad82614586565b6145b78185614591565b93506145c7818560208601612fc1565b6145d081612ff4565b840191505092915050565b60006080820190506145f060008301876130f5565b6145fd60208301866130f5565b61460a604083018561318b565b818103606083015261461c81846145a2565b905095945050505050565b60008151905061463681612f16565b92915050565b60006020828403121561465257614651612ee0565b5b600061466084828501614627565b91505092915050565b600061467482613060565b915061467f83613060565b92508282101561469257614691614095565b5b828203905092915050565b7f4e487b7100000000000000000000000000000000000000000000000000000000600052603160045260246000fd5b7f4552433732313a206d696e7420746f20746865207a65726f2061646472657373600082015250565b6000614702602083612fb0565b915061470d826146cc565b602082019050919050565b60006020820190508181036000830152614731816146f5565b9050919050565b7f4552433732313a20746f6b656e20616c7265616479206d696e74656400000000600082015250565b600061476e601c83612fb0565b915061477982614738565b602082019050919050565b6000602082019050818103600083015261479d81614761565b905091905056fe4142434445464748494a4b4c4d4e4f505152535455565758595a6162636465666768696a6b6c6d6e6f707172737475767778797a303132333435363738392b2fa26469706673582212206c0cbc61298003cbdd25262921f4960450360ef868ee276342b965a34acf645664736f6c63430008080033",
  "devdoc": {
    "kind": "dev",
    "methods": {
      "approve(address,uint256)": {
        "details": "See {IERC721-approve}."
      },
      "balanceOf(address)": {
        "details": "See {IERC721-balanceOf}."
      },
      "getApproved(uint256)": {
        "details": "See {IERC721-getApproved}."
      },
      "isApprovedForAll(address,address)": {
        "details": "See {IERC721-isApprovedForAll}."
      },
      "name()": {
        "details": "See {IERC721Metadata-name}."
      },
      "owner()": {
        "details": "Returns the address of the current owner."
      },
      "ownerOf(uint256)": {
        "details": "See {IERC721-ownerOf}."
      },
      "renounceOwnership()": {
        "details": "Leaves the contract without owner. It will not be possible to call `onlyOwner` functions anymore. Can only be called by the current owner. NOTE: Renouncing ownership will leave the contract without an owner, thereby removing any functionality that is only available to the owner."
      },
      "safeTransferFrom(address,address,uint256)": {
        "details": "See {IERC721-safeTransferFrom}."
      },
      "safeTransferFrom(address,address,uint256,bytes)": {
        "details": "See {IERC721-safeTransferFrom}."
      },
      "setApprovalForAll(address,bool)": {
        "details": "See {IERC721-setApprovalForAll}."
      },
      "supportsInterface(bytes4)": {
        "details": "See {IERC165-supportsInterface}."
      },
      "symbol()": {
        "details": "See {IERC721Metadata-symbol}."
      },
      "tokenByIndex(uint256)": {
        "details": "See {IERC721Enumerable-tokenByIndex}."
      },
      "tokenOfOwnerByIndex(address,uint256)": {
        "details": "See {IERC721Enumerable-tokenOfOwnerByIndex}."
      },
      "tokenURI(uint256)": {
        "details": "See {IERC721Metadata-tokenURI}."
      },
      "totalSupply()": {
        "details": "See {IERC721Enumerable-totalSupply}."
      },
      "transferFrom(address,address,uint256)": {
        "details": "See {IERC721-transferFrom}."
      },
      "transferOwnership(address)": {
        "details": "Transfers ownership of the contract to a new account (`newOwner`). Can only be called by the current owner."
      }
    },
    "version": 1
  },
  "userdoc": {
    "kind": "user",
    "methods": {},
    "version": 1
  },
  "storageLayout": {
    "storage": [
      {
        "astId": 138,
        "contract": "contracts/DynamicPngNft.sol:DynamicPngNft",
        "label": "_name",
        "offset": 0,
        "slot": "0",
        "type": "t_string_storage"
      },
      {
        "astId": 140,
        "contract": "contracts/DynamicPngNft.sol:DynamicPngNft",
        "label": "_symbol",
        "offset": 0,
        "slot": "1",
        "type": "t_string_storage"
      },
      {
        "astId": 144,
        "contract": "contracts/DynamicPngNft.sol:DynamicPngNft",
        "label": "_owners",
        "offset": 0,
        "slot": "2",
        "type": "t_mapping(t_uint256,t_address)"
      },
      {
        "astId": 148,
        "contract": "contracts/DynamicPngNft.sol:DynamicPngNft",
        "label": "_balances",
        "offset": 0,
        "slot": "3",
        "type": "t_mapping(t_address,t_uint256)"
      },
      {
        "astId": 152,
        "contract": "contracts/DynamicPngNft.sol:DynamicPngNft",
        "label": "_tokenApprovals",
        "offset": 0,
        "slot": "4",
        "type": "t_mapping(t_uint256,t_address)"
      },
      {
        "astId": 158,
        "contract": "contracts/DynamicPngNft.sol:DynamicPngNft",
        "label": "_operatorApprovals",
        "offset": 0,
        "slot": "5",
        "type": "t_mapping(t_address,t_mapping(t_address,t_bool))"
      },
      {
        "astId": 1188,
        "contract": "contracts/DynamicPngNft.sol:DynamicPngNft",
        "label": "_ownedTokens",
        "offset": 0,
        "slot": "6",
        "type": "t_mapping(t_address,t_mapping(t_uint256,t_uint256))"
      },
      {
        "astId": 1192,
        "contract": "contracts/DynamicPngNft.sol:DynamicPngNft",
        "label": "_ownedTokensIndex",
        "offset": 0,
        "slot": "7",
        "type": "t_mapping(t_uint256,t_uint256)"
      },
      {
        "astId": 1195,
        "contract": "contracts/DynamicPngNft.sol:DynamicPngNft",
        "label": "_allTokens",
        "offset": 0,
        "slot": "8",
        "type": "t_array(t_uint256)dyn_storage"
      },
      {
        "astId": 1199,
        "contract": "contracts/DynamicPngNft.sol:DynamicPngNft",
        "label": "_allTokensIndex",
        "offset": 0,
        "slot": "9",
        "type": "t_mapping(t_uint256,t_uint256)"
      },
      {
        "astId": 7,
        "contract": "contracts/DynamicPngNft.sol:DynamicPngNft",
        "label": "_owner",
        "offset": 0,
        "slot": "10",
        "type": "t_address"
      },
      {
        "astId": 3143,
        "contract": "contracts/DynamicPngNft.sol:DynamicPngNft",
        "label": "deployer",
        "offset": 0,
        "slot": "11",
        "type": "t_address"
      },
      {
        "astId": 3145,
        "contract": "contracts/DynamicPngNft.sol:DynamicPngNft",
        "label": "s_tokenCounter",
        "offset": 0,
        "slot": "12",
        "type": "t_uint256"
      },
      {
        "astId": 3149,
        "contract": "contracts/DynamicPngNft.sol:DynamicPngNft",
        "label": "s_tokenIdToMembershipStatus",
        "offset": 0,
        "slot": "13",
        "type": "t_mapping(t_uint256,t_int256)"
      },
      {
        "astId": 3153,
        "contract": "contracts/DynamicPngNft.sol:DynamicPngNft",
        "label": "s_tokenIdToImageURL",
        "offset": 0,
        "slot": "14",
        "type": "t_mapping(t_uint256,t_string_storage)"
      },
      {
        "astId": 3157,
        "contract": "contracts/DynamicPngNft.sol:DynamicPngNft",
        "label": "s_tokenIdToAttributes",
        "offset": 0,
        "slot": "15",
        "type": "t_mapping(t_uint256,t_string_storage)"
      },
      {
        "astId": 3161,
        "contract": "contracts/DynamicPngNft.sol:DynamicPngNft",
        "label": "s_tokenIdToStaked",
        "offset": 0,
        "slot": "16",
        "type": "t_mapping(t_uint256,t_bool)"
      }
    ],
    "types": {
      "t_address": {
        "encoding": "inplace",
        "label": "address",
        "numberOfBytes": "20"
      },
      "t_array(t_uint256)dyn_storage": {
        "base": "t_uint256",
        "encoding": "dynamic_array",
        "label": "uint256[]",
        "numberOfBytes": "32"
      },
      "t_bool": {
        "encoding": "inplace",
        "label": "bool",
        "numberOfBytes": "1"
      },
      "t_int256": {
        "encoding": "inplace",
        "label": "int256",
        "numberOfBytes": "32"
      },
      "t_mapping(t_address,t_bool)": {
        "encoding": "mapping",
        "key": "t_address",
        "label": "mapping(address => bool)",
        "numberOfBytes": "32",
        "value": "t_bool"
      },
      "t_mapping(t_address,t_mapping(t_address,t_bool))": {
        "encoding": "mapping",
        "key": "t_address",
        "label": "mapping(address => mapping(address => bool))",
        "numberOfBytes": "32",
        "value": "t_mapping(t_address,t_bool)"
      },
      "t_mapping(t_address,t_mapping(t_uint256,t_uint256))": {
        "encoding": "mapping",
        "key": "t_address",
        "label": "mapping(address => mapping(uint256 => uint256))",
        "numberOfBytes": "32",
        "value": "t_mapping(t_uint256,t_uint256)"
      },
      "t_mapping(t_address,t_uint256)": {
        "encoding": "mapping",
        "key": "t_address",
        "label": "mapping(address => uint256)",
        "numberOfBytes": "32",
        "value": "t_uint256"
      },
      "t_mapping(t_uint256,t_address)": {
        "encoding": "mapping",
        "key": "t_uint256",
        "label": "mapping(uint256 => address)",
        "numberOfBytes": "32",
        "value": "t_address"
      },
      "t_mapping(t_uint256,t_bool)": {
        "encoding": "mapping",
        "key": "t_uint256",
        "label": "mapping(uint256 => bool)",
        "numberOfBytes": "32",
        "value": "t_bool"
      },
      "t_mapping(t_uint256,t_int256)": {
        "encoding": "mapping",
        "key": "t_uint256",
        "label": "mapping(uint256 => int256)",
        "numberOfBytes": "32",
        "value": "t_int256"
      },
      "t_mapping(t_uint256,t_string_storage)": {
        "encoding": "mapping",
        "key": "t_uint256",
        "label": "mapping(uint256 => string)",
        "numberOfBytes": "32",
        "value": "t_string_storage"
      },
      "t_mapping(t_uint256,t_uint256)": {
        "encoding": "mapping",
        "key": "t_uint256",
        "label": "mapping(uint256 => uint256)",
        "numberOfBytes": "32",
        "value": "t_uint256"
      },
      "t_string_storage": {
        "encoding": "bytes",
        "label": "string",
        "numberOfBytes": "32"
      },
      "t_uint256": {
        "encoding": "inplace",
        "label": "uint256",
        "numberOfBytes": "32"
      }
    }
  }
}