{
  "address": "0x5FbDB2315678afecb367f032d93F642f64180aa3",
  "abi": [
    {
      "inputs": [
        {
          "internalType": "uint256",
          "name": "mintFee",
          "type": "uint256"
        }
      ],
      "stateMutability": "nonpayable",
      "type": "constructor"
    },
    {
      "inputs": [],
      "name": "ERC721Metadata__URI_QueryFor_NonExistentToken",
      "type": "error"
    },
    {
      "anonymous": false,
      "inputs": [
        {
          "indexed": true,
          "internalType": "address",
          "name": "owner",
          "type": "address"
        },
        {
          "indexed": true,
          "internalType": "address",
          "name": "approved",
          "type": "address"
        },
        {
          "indexed": true,
          "internalType": "uint256",
          "name": "tokenId",
          "type": "uint256"
        }
      ],
      "name": "Approval",
      "type": "event"
    },
    {
      "anonymous": false,
      "inputs": [
        {
          "indexed": true,
          "internalType": "address",
          "name": "owner",
          "type": "address"
        },
        {
          "indexed": true,
          "internalType": "address",
          "name": "operator",
          "type": "address"
        },
        {
          "indexed": false,
          "internalType": "bool",
          "name": "approved",
          "type": "bool"
        }
      ],
      "name": "ApprovalForAll",
      "type": "event"
    },
    {
      "anonymous": false,
      "inputs": [
        {
          "indexed": true,
          "internalType": "uint256",
          "name": "tokenId",
          "type": "uint256"
        },
        {
          "indexed": false,
          "internalType": "int256",
          "name": "membership_status",
          "type": "int256"
        }
      ],
      "name": "CreatedNFT",
      "type": "event"
    },
    {
      "anonymous": false,
      "inputs": [
        {
          "indexed": true,
          "internalType": "address",
          "name": "staker",
          "type": "address"
        },
        {
          "indexed": true,
          "internalType": "uint256",
          "name": "tokenId",
          "type": "uint256"
        }
      ],
      "name": "NFTStaked",
      "type": "event"
    },
    {
      "anonymous": false,
      "inputs": [
        {
          "indexed": true,
          "internalType": "address",
          "name": "unstaker",
          "type": "address"
        },
        {
          "indexed": true,
          "internalType": "uint256",
          "name": "tokenId",
          "type": "uint256"
        }
      ],
      "name": "NFTUnstaked",
      "type": "event"
    },
    {
      "anonymous": false,
      "inputs": [
        {
          "indexed": true,
          "internalType": "address",
          "name": "previousOwner",
          "type": "address"
        },
        {
          "indexed": true,
          "internalType": "address",
          "name": "newOwner",
          "type": "address"
        }
      ],
      "name": "OwnershipTransferred",
      "type": "event"
    },
    {
      "anonymous": false,
      "inputs": [
        {
          "indexed": true,
          "internalType": "address",
          "name": "from",
          "type": "address"
        },
        {
          "indexed": true,
          "internalType": "address",
          "name": "to",
          "type": "address"
        },
        {
          "indexed": true,
          "internalType": "uint256",
          "name": "tokenId",
          "type": "uint256"
        }
      ],
      "name": "Transfer",
      "type": "event"
    },
    {
      "inputs": [
        {
          "internalType": "address",
          "name": "to",
          "type": "address"
        },
        {
          "internalType": "uint256",
          "name": "tokenId",
          "type": "uint256"
        }
      ],
      "name": "approve",
      "outputs": [],
      "stateMutability": "nonpayable",
      "type": "function"
    },
    {
      "inputs": [
        {
          "internalType": "address",
          "name": "owner",
          "type": "address"
        }
      ],
      "name": "balanceOf",
      "outputs": [
        {
          "internalType": "uint256",
          "name": "",
          "type": "uint256"
        }
      ],
      "stateMutability": "view",
      "type": "function"
    },
    {
      "inputs": [
        {
          "internalType": "uint256",
          "name": "tokenId",
          "type": "uint256"
        }
      ],
      "name": "getApproved",
      "outputs": [
        {
          "internalType": "address",
          "name": "",
          "type": "address"
        }
      ],
      "stateMutability": "view",
      "type": "function"
    },
    {
      "inputs": [
        {
          "internalType": "uint256",
          "name": "tokenId",
          "type": "uint256"
        }
      ],
      "name": "getAttributes",
      "outputs": [
        {
          "internalType": "string",
          "name": "",
          "type": "string"
        }
      ],
      "stateMutability": "view",
      "type": "function"
    },
    {
      "inputs": [
        {
          "internalType": "uint256",
          "name": "tokenId",
          "type": "uint256"
        }
      ],
      "name": "getImage",
      "outputs": [
        {
          "internalType": "string",
          "name": "",
          "type": "string"
        }
      ],
      "stateMutability": "view",
      "type": "function"
    },
    {
      "inputs": [
        {
          "internalType": "uint256",
          "name": "tokenId",
          "type": "uint256"
        }
      ],
      "name": "getMembershipStatus",
      "outputs": [
        {
          "internalType": "int256",
          "name": "",
          "type": "int256"
        }
      ],
      "stateMutability": "view",
      "type": "function"
    },
    {
      "inputs": [
        {
          "internalType": "uint256",
          "name": "tokenId",
          "type": "uint256"
        }
      ],
      "name": "getStaked",
      "outputs": [
        {
          "internalType": "bool",
          "name": "",
          "type": "bool"
        }
      ],
      "stateMutability": "view",
      "type": "function"
    },
    {
      "inputs": [],
      "name": "getTokenCounter",
      "outputs": [
        {
          "internalType": "uint256",
          "name": "",
          "type": "uint256"
        }
      ],
      "stateMutability": "view",
      "type": "function"
    },
    {
      "inputs": [
        {
          "internalType": "address",
          "name": "owner",
          "type": "address"
        },
        {
          "internalType": "address",
          "name": "operator",
          "type": "address"
        }
      ],
      "name": "isApprovedForAll",
      "outputs": [
        {
          "internalType": "bool",
          "name": "",
          "type": "bool"
        }
      ],
      "stateMutability": "view",
      "type": "function"
    },
    {
      "inputs": [
        {
          "internalType": "int256",
          "name": "membership_status",
          "type": "int256"
        },
        {
          "internalType": "string",
          "name": "imageURL",
          "type": "string"
        },
        {
          "internalType": "string",
          "name": "attributes",
          "type": "string"
        },
        {
          "internalType": "bool",
          "name": "isQR",
          "type": "bool"
        }
      ],
      "name": "mintNft",
      "outputs": [],
      "stateMutability": "payable",
      "type": "function"
    },
    {
      "inputs": [],
      "name": "name",
      "outputs": [
        {
          "internalType": "string",
          "name": "",
          "type": "string"
        }
      ],
      "stateMutability": "view",
      "type": "function"
    },
    {
      "inputs": [],
      "name": "owner",
      "outputs": [
        {
          "internalType": "address",
          "name": "",
          "type": "address"
        }
      ],
      "stateMutability": "view",
      "type": "function"
    },
    {
      "inputs": [
        {
          "internalType": "uint256",
          "name": "tokenId",
          "type": "uint256"
        }
      ],
      "name": "ownerOf",
      "outputs": [
        {
          "internalType": "address",
          "name": "",
          "type": "address"
        }
      ],
      "stateMutability": "view",
      "type": "function"
    },
    {
      "inputs": [],
      "name": "renounceOwnership",
      "outputs": [],
      "stateMutability": "nonpayable",
      "type": "function"
    },
    {
      "inputs": [
        {
          "internalType": "address",
          "name": "from",
          "type": "address"
        },
        {
          "internalType": "address",
          "name": "to",
          "type": "address"
        },
        {
          "internalType": "uint256",
          "name": "tokenId",
          "type": "uint256"
        }
      ],
      "name": "safeTransferFrom",
      "outputs": [],
      "stateMutability": "nonpayable",
      "type": "function"
    },
    {
      "inputs": [
        {
          "internalType": "address",
          "name": "from",
          "type": "address"
        },
        {
          "internalType": "address",
          "name": "to",
          "type": "address"
        },
        {
          "internalType": "uint256",
          "name": "tokenId",
          "type": "uint256"
        },
        {
          "internalType": "bytes",
          "name": "data",
          "type": "bytes"
        }
      ],
      "name": "safeTransferFrom",
      "outputs": [],
      "stateMutability": "nonpayable",
      "type": "function"
    },
    {
      "inputs": [
        {
          "internalType": "address",
          "name": "operator",
          "type": "address"
        },
        {
          "internalType": "bool",
          "name": "approved",
          "type": "bool"
        }
      ],
      "name": "setApprovalForAll",
      "outputs": [],
      "stateMutability": "nonpayable",
      "type": "function"
    },
    {
      "inputs": [
        {
          "internalType": "uint256",
          "name": "tokenId",
          "type": "uint256"
        },
        {
          "internalType": "string",
          "name": "attributes",
          "type": "string"
        }
      ],
      "name": "setAttributes",
      "outputs": [],
      "stateMutability": "nonpayable",
      "type": "function"
    },
    {
      "inputs": [
        {
          "internalType": "uint256",
          "name": "tokenId",
          "type": "uint256"
        },
        {
          "internalType": "string",
          "name": "image",
          "type": "string"
        }
      ],
      "name": "setImage",
      "outputs": [],
      "stateMutability": "nonpayable",
      "type": "function"
    },
    {
      "inputs": [
        {
          "internalType": "uint256",
          "name": "tokenId",
          "type": "uint256"
        },
        {
          "internalType": "int256",
          "name": "status",
          "type": "int256"
        }
      ],
      "name": "setMembership",
      "outputs": [],
      "stateMutability": "nonpayable",
      "type": "function"
    },
    {
      "inputs": [
        {
          "internalType": "uint256",
          "name": "mintFee",
          "type": "uint256"
        }
      ],
      "name": "setMintFee",
      "outputs": [],
      "stateMutability": "nonpayable",
      "type": "function"
    },
    {
      "inputs": [
        {
          "internalType": "uint256",
          "name": "tokenId",
          "type": "uint256"
        }
      ],
      "name": "stakeNFT",
      "outputs": [],
      "stateMutability": "nonpayable",
      "type": "function"
    },
    {
      "inputs": [
        {
          "internalType": "bytes4",
          "name": "interfaceId",
          "type": "bytes4"
        }
      ],
      "name": "supportsInterface",
      "outputs": [
        {
          "internalType": "bool",
          "name": "",
          "type": "bool"
        }
      ],
      "stateMutability": "view",
      "type": "function"
    },
    {
      "inputs": [],
      "name": "symbol",
      "outputs": [
        {
          "internalType": "string",
          "name": "",
          "type": "string"
        }
      ],
      "stateMutability": "view",
      "type": "function"
    },
    {
      "inputs": [
        {
          "internalType": "uint256",
          "name": "index",
          "type": "uint256"
        }
      ],
      "name": "tokenByIndex",
      "outputs": [
        {
          "internalType": "uint256",
          "name": "",
          "type": "uint256"
        }
      ],
      "stateMutability": "view",
      "type": "function"
    },
    {
      "inputs": [
        {
          "internalType": "address",
          "name": "owner",
          "type": "address"
        },
        {
          "internalType": "uint256",
          "name": "index",
          "type": "uint256"
        }
      ],
      "name": "tokenOfOwnerByIndex",
      "outputs": [
        {
          "internalType": "uint256",
          "name": "",
          "type": "uint256"
        }
      ],
      "stateMutability": "view",
      "type": "function"
    },
    {
      "inputs": [
        {
          "internalType": "uint256",
          "name": "tokenId",
          "type": "uint256"
        }
      ],
      "name": "tokenURI",
      "outputs": [
        {
          "internalType": "string",
          "name": "",
          "type": "string"
        }
      ],
      "stateMutability": "view",
      "type": "function"
    },
    {
      "inputs": [],
      "name": "totalSupply",
      "outputs": [
        {
          "internalType": "uint256",
          "name": "",
          "type": "uint256"
        }
      ],
      "stateMutability": "view",
      "type": "function"
    },
    {
      "inputs": [
        {
          "internalType": "address",
          "name": "from",
          "type": "address"
        },
        {
          "internalType": "address",
          "name": "to",
          "type": "address"
        },
        {
          "internalType": "uint256",
          "name": "tokenId",
          "type": "uint256"
        }
      ],
      "name": "transferFrom",
      "outputs": [],
      "stateMutability": "nonpayable",
      "type": "function"
    },
    {
      "inputs": [
        {
          "internalType": "address",
          "name": "newOwner",
          "type": "address"
        }
      ],
      "name": "transferOwnership",
      "outputs": [],
      "stateMutability": "nonpayable",
      "type": "function"
    },
    {
      "inputs": [
        {
          "internalType": "uint256",
          "name": "tokenId",
          "type": "uint256"
        }
      ],
      "name": "unstakeNFT",
      "outputs": [],
      "stateMutability": "nonpayable",
      "type": "function"
    }
  ],
  "transactionHash": "0x5ac51559192c28b936dcfb58affbdff3fafda957e20873ff1b2dcb35c124a81f",
  "args": [
    "10000000000000000"
  ],
  "numDeployments": 1,
  "solcInputHash": "bee3a15a0868fad657ec0043d71cb164",
  "bytecode": "0x60806040523480156200001157600080fd5b50604051620048c6380380620048c68339818101604052810190620000379190620002cb565b6040518060400160405280600f81526020017f44796e616d696320504e47204e465400000000000000000000000000000000008152506040518060400160405280600381526020017f44534e00000000000000000000000000000000000000000000000000000000008152508160009080519060200190620000bb929190620001db565b508060019080519060200190620000d4929190620001db565b505050620000f7620000eb6200010d60201b60201c565b6200011560201b60201c565b6000600b8190555080600d819055505062000362565b600033905090565b6000600a60009054906101000a900473ffffffffffffffffffffffffffffffffffffffff16905081600a60006101000a81548173ffffffffffffffffffffffffffffffffffffffff021916908373ffffffffffffffffffffffffffffffffffffffff1602179055508173ffffffffffffffffffffffffffffffffffffffff168173ffffffffffffffffffffffffffffffffffffffff167f8be0079c531659141344cd1fd0a4f28419497f9722a3daafe3b4186f6b6457e060405160405180910390a35050565b828054620001e9906200032c565b90600052602060002090601f0160209004810192826200020d576000855562000259565b82601f106200022857805160ff191683800117855562000259565b8280016001018555821562000259579182015b82811115620002585782518255916020019190600101906200023b565b5b5090506200026891906200026c565b5090565b5b80821115620002875760008160009055506001016200026d565b5090565b600080fd5b6000819050919050565b620002a58162000290565b8114620002b157600080fd5b50565b600081519050620002c5816200029a565b92915050565b600060208284031215620002e457620002e36200028b565b5b6000620002f484828501620002b4565b91505092915050565b7f4e487b7100000000000000000000000000000000000000000000000000000000600052602260045260246000fd5b600060028204905060018216806200034557607f821691505b602082108114156200035c576200035b620002fd565b5b50919050565b61455480620003726000396000f3fe6080604052600436106101d85760003560e01c806370a0823111610102578063c1dfa0bb11610095578063eddd0d9c11610064578063eddd0d9c146106e3578063f2fde38b1461070c578063fac9101c14610735578063ff4af37d14610772576101d8565b8063c1dfa0bb14610617578063c87b56dd14610640578063c980c6261461067d578063e985e9c5146106a6576101d8565b806395d89b41116100d157806395d89b411461057e578063a22cb465146105a9578063a3ffa285146105d2578063b88d4fde146105ee576101d8565b806370a08231146104d6578063715018a6146105135780638da5cb5b1461052a57806393e62e9714610555576101d8565b80632f745c591161017a5780634f6ccce7116101495780634f6ccce7146104085780636352211e146104455780636e02007d146104825780636eb604e0146104ad576101d8565b80632f745c591461033c5780633bdecd7b1461037957806342842e0e146103a25780634378a6e3146103cb576101d8565b8063095ea7b3116101b6578063095ea7b31461028257806318160ddd146102ab57806323b872dd146102d65780632607aafa146102ff576101d8565b806301ffc9a7146101dd57806306fdde031461021a578063081812fc14610245575b600080fd5b3480156101e957600080fd5b5061020460048036038101906101ff9190612cea565b6107af565b6040516102119190612d32565b60405180910390f35b34801561022657600080fd5b5061022f610829565b60405161023c9190612de6565b60405180910390f35b34801561025157600080fd5b5061026c60048036038101906102679190612e3e565b6108bb565b6040516102799190612eac565b60405180910390f35b34801561028e57600080fd5b506102a960048036038101906102a49190612ef3565b610901565b005b3480156102b757600080fd5b506102c0610a19565b6040516102cd9190612f42565b60405180910390f35b3480156102e257600080fd5b506102fd60048036038101906102f89190612f5d565b610a26565b005b34801561030b57600080fd5b5061032660048036038101906103219190612e3e565b610a86565b6040516103339190612de6565b60405180910390f35b34801561034857600080fd5b50610363600480360381019061035e9190612ef3565b610b2b565b6040516103709190612f42565b60405180910390f35b34801561038557600080fd5b506103a0600480360381019061039b91906130e5565b610bd0565b005b3480156103ae57600080fd5b506103c960048036038101906103c49190612f5d565b610c04565b005b3480156103d757600080fd5b506103f260048036038101906103ed9190612e3e565b610c24565b6040516103ff9190612de6565b60405180910390f35b34801561041457600080fd5b5061042f600480360381019061042a9190612e3e565b610cc9565b60405161043c9190612f42565b60405180910390f35b34801561045157600080fd5b5061046c60048036038101906104679190612e3e565b610d3a565b6040516104799190612eac565b60405180910390f35b34801561048e57600080fd5b50610497610dc1565b6040516104a49190612f42565b60405180910390f35b3480156104b957600080fd5b506104d460048036038101906104cf9190612e3e565b610dcb565b005b3480156104e257600080fd5b506104fd60048036038101906104f89190613141565b610f15565b60405161050a9190612f42565b60405180910390f35b34801561051f57600080fd5b50610528610fcd565b005b34801561053657600080fd5b5061053f610fe1565b60405161054c9190612eac565b60405180910390f35b34801561056157600080fd5b5061057c600480360381019061057791906131a4565b61100b565b005b34801561058a57600080fd5b5061059361102f565b6040516105a09190612de6565b60405180910390f35b3480156105b557600080fd5b506105d060048036038101906105cb9190613210565b6110c1565b005b6105ec60048036038101906105e79190613250565b6110d7565b005b3480156105fa57600080fd5b5061061560048036038101906106109190613390565b611205565b005b34801561062357600080fd5b5061063e60048036038101906106399190612e3e565b611267565b005b34801561064c57600080fd5b5061066760048036038101906106629190612e3e565b6113b0565b6040516106749190612de6565b60405180910390f35b34801561068957600080fd5b506106a4600480360381019061069f91906130e5565b611633565b005b3480156106b257600080fd5b506106cd60048036038101906106c89190613413565b61167f565b6040516106da9190612d32565b60405180910390f35b3480156106ef57600080fd5b5061070a60048036038101906107059190612e3e565b611713565b005b34801561071857600080fd5b50610733600480360381019061072e9190613141565b611725565b005b34801561074157600080fd5b5061075c60048036038101906107579190612e3e565b6117a9565b6040516107699190612d32565b60405180910390f35b34801561077e57600080fd5b5061079960048036038101906107949190612e3e565b6117d3565b6040516107a69190613462565b60405180910390f35b60007f780e9d63000000000000000000000000000000000000000000000000000000007bffffffffffffffffffffffffffffffffffffffffffffffffffffffff1916827bffffffffffffffffffffffffffffffffffffffffffffffffffffffff191614806108225750610821826117f0565b5b9050919050565b606060008054610838906134ac565b80601f0160208091040260200160405190810160405280929190818152602001828054610864906134ac565b80156108b15780601f10610886576101008083540402835291602001916108b1565b820191906000526020600020905b81548152906001019060200180831161089457829003601f168201915b5050505050905090565b60006108c6826118d2565b6004600083815260200190815260200160002060009054906101000a900473ffffffffffffffffffffffffffffffffffffffff169050919050565b600061090c82610d3a565b90508073ffffffffffffffffffffffffffffffffffffffff168373ffffffffffffffffffffffffffffffffffffffff16141561097d576040517f08c379a000000000000000000000000000000000000000000000000000000000815260040161097490613550565b60405180910390fd5b8073ffffffffffffffffffffffffffffffffffffffff1661099c61191d565b73ffffffffffffffffffffffffffffffffffffffff1614806109cb57506109ca816109c561191d565b61167f565b5b610a0a576040517f08c379a0000000000000000000000000000000000000000000000000000000008152600401610a01906135e2565b60405180910390fd5b610a148383611925565b505050565b6000600880549050905090565b610a37610a3161191d565b826119de565b610a76576040517f08c379a0000000000000000000000000000000000000000000000000000000008152600401610a6d90613674565b60405180910390fd5b610a81838383611a73565b505050565b6060600f60008381526020019081526020016000208054610aa6906134ac565b80601f0160208091040260200160405190810160405280929190818152602001828054610ad2906134ac565b8015610b1f5780601f10610af457610100808354040283529160200191610b1f565b820191906000526020600020905b815481529060010190602001808311610b0257829003601f168201915b50505050509050919050565b6000610b3683610f15565b8210610b77576040517f08c379a0000000000000000000000000000000000000000000000000000000008152600401610b6e90613706565b60405180910390fd5b600660008473ffffffffffffffffffffffffffffffffffffffff1673ffffffffffffffffffffffffffffffffffffffff168152602001908152602001600020600083815260200190815260200160002054905092915050565b610bd8611d6d565b80601060008481526020019081526020016000209080519060200190610bff929190612bdb565b505050565b610c1f83838360405180602001604052806000815250611205565b505050565b6060601060008381526020019081526020016000208054610c44906134ac565b80601f0160208091040260200160405190810160405280929190818152602001828054610c70906134ac565b8015610cbd5780601f10610c9257610100808354040283529160200191610cbd565b820191906000526020600020905b815481529060010190602001808311610ca057829003601f168201915b50505050509050919050565b6000610cd3610a19565b8210610d14576040517f08c379a0000000000000000000000000000000000000000000000000000000008152600401610d0b90613798565b60405180910390fd5b60088281548110610d2857610d276137b8565b5b90600052602060002001549050919050565b600080610d4683611deb565b9050600073ffffffffffffffffffffffffffffffffffffffff168173ffffffffffffffffffffffffffffffffffffffff161415610db8576040517f08c379a0000000000000000000000000000000000000000000000000000000008152600401610daf90613833565b60405180910390fd5b80915050919050565b6000600b54905090565b3373ffffffffffffffffffffffffffffffffffffffff16610deb82610d3a565b73ffffffffffffffffffffffffffffffffffffffff1614610e41576040517f08c379a0000000000000000000000000000000000000000000000000000000008152600401610e389061389f565b60405180910390fd5b6011600082815260200190815260200160002060009054906101000a900460ff1615610ea2576040517f08c379a0000000000000000000000000000000000000000000000000000000008152600401610e999061390b565b60405180910390fd5b60016011600083815260200190815260200160002060006101000a81548160ff021916908315150217905550803373ffffffffffffffffffffffffffffffffffffffff167f0cda5cf38f6592672c7b4a22ff3d50874d1913629bd5ffedc27b7b40503d60fd60405160405180910390a350565b60008073ffffffffffffffffffffffffffffffffffffffff168273ffffffffffffffffffffffffffffffffffffffff161415610f86576040517f08c379a0000000000000000000000000000000000000000000000000000000008152600401610f7d9061399d565b60405180910390fd5b600360008373ffffffffffffffffffffffffffffffffffffffff1673ffffffffffffffffffffffffffffffffffffffff168152602001908152602001600020549050919050565b610fd5611d6d565b610fdf6000611e28565b565b6000600a60009054906101000a900473ffffffffffffffffffffffffffffffffffffffff16905090565b611013611d6d565b80600e6000848152602001908152602001600020819055505050565b60606001805461103e906134ac565b80601f016020809104026020016040519081016040528092919081815260200182805461106a906134ac565b80156110b75780601f1061108c576101008083540402835291602001916110b7565b820191906000526020600020905b81548152906001019060200180831161109a57829003601f168201915b5050505050905090565b6110d36110cc61191d565b8383611eee565b5050565b600d5434101561111c576040517f08c379a000000000000000000000000000000000000000000000000000000000815260040161111390613a09565b60405180910390fd5b80600c60006101000a81548160ff02191690831515021790555083600e6000600b5481526020019081526020016000208190555082600f6000600b5481526020019081526020016000209080519060200190611179929190612bdb565b508160106000600b54815260200190815260200160002090805190602001906111a3929190612bdb565b506111b033600b5461205b565b6001600b546111bf9190613a58565b600b81905550600b547f882d3b5a729a8bb95cf6c0083c99b42ecd9637123d4425bd7b768877fd8af8b0856040516111f79190613462565b60405180910390a250505050565b61121661121061191d565b836119de565b611255576040517f08c379a000000000000000000000000000000000000000000000000000000000815260040161124c90613674565b60405180910390fd5b61126184848484612079565b50505050565b3373ffffffffffffffffffffffffffffffffffffffff1661128782610d3a565b73ffffffffffffffffffffffffffffffffffffffff16146112dd576040517f08c379a00000000000000000000000000000000000000000000000000000000081526004016112d490613b20565b60405180910390fd5b6011600082815260200190815260200160002060009054906101000a900460ff1661133d576040517f08c379a000000000000000000000000000000000000000000000000000000000815260040161133490613b8c565b60405180910390fd5b60006011600083815260200190815260200160002060006101000a81548160ff021916908315150217905550803373ffffffffffffffffffffffffffffffffffffffff167f963148346e3c93bb3eb4b4c296e2e13321ff22bf1118c91686cb1bfe4adcd91860405160405180910390a350565b60606113bb826120d5565b6113f1576040517f6df5edae00000000000000000000000000000000000000000000000000000000815260040160405180910390fd5b6000600f60008481526020019081526020016000208054611411906134ac565b80601f016020809104026020016040519081016040528092919081815260200182805461143d906134ac565b801561148a5780601f1061145f5761010080835404028352916020019161148a565b820191906000526020600020905b81548152906001019060200180831161146d57829003601f168201915b5050505050905060006010600085815260200190815260200160002080546114b1906134ac565b80601f01602080910402602001604051908101604052809291908181526020018280546114dd906134ac565b801561152a5780601f106114ff5761010080835404028352916020019161152a565b820191906000526020600020905b81548152906001019060200180831161150d57829003601f168201915b5050505050905060006011600086815260200190815260200160002060009054906101000a900460ff16905061155e612116565b611609611569610829565b8486856115ab576040518060400160405280600581526020017f66616c73650000000000000000000000000000000000000000000000000000008152506115e2565b6040518060400160405280600481526020017f74727565000000000000000000000000000000000000000000000000000000008152505b6040516020016115f59493929190613db0565b604051602081830303815290604052612153565b60405160200161161a929190613e30565b6040516020818303038152906040529350505050919050565b61163b611d6d565b6000611646836117d3565b9050600181141561167a5781600f60008581526020019081526020016000209080519060200190611678929190612bdb565b505b505050565b6000600560008473ffffffffffffffffffffffffffffffffffffffff1673ffffffffffffffffffffffffffffffffffffffff16815260200190815260200160002060008373ffffffffffffffffffffffffffffffffffffffff1673ffffffffffffffffffffffffffffffffffffffff16815260200190815260200160002060009054906101000a900460ff16905092915050565b61171b611d6d565b80600d8190555050565b61172d611d6d565b600073ffffffffffffffffffffffffffffffffffffffff168173ffffffffffffffffffffffffffffffffffffffff16141561179d576040517f08c379a000000000000000000000000000000000000000000000000000000000815260040161179490613ec6565b60405180910390fd5b6117a681611e28565b50565b60006011600083815260200190815260200160002060009054906101000a900460ff169050919050565b6000600e6000838152602001908152602001600020549050919050565b60007f80ac58cd000000000000000000000000000000000000000000000000000000007bffffffffffffffffffffffffffffffffffffffffffffffffffffffff1916827bffffffffffffffffffffffffffffffffffffffffffffffffffffffff191614806118bb57507f5b5e139f000000000000000000000000000000000000000000000000000000007bffffffffffffffffffffffffffffffffffffffffffffffffffffffff1916827bffffffffffffffffffffffffffffffffffffffffffffffffffffffff1916145b806118cb57506118ca826122cc565b5b9050919050565b6118db816120d5565b61191a576040517f08c379a000000000000000000000000000000000000000000000000000000000815260040161191190613833565b60405180910390fd5b50565b600033905090565b816004600083815260200190815260200160002060006101000a81548173ffffffffffffffffffffffffffffffffffffffff021916908373ffffffffffffffffffffffffffffffffffffffff160217905550808273ffffffffffffffffffffffffffffffffffffffff1661199883610d3a565b73ffffffffffffffffffffffffffffffffffffffff167f8c5be1e5ebec7d5bd14f71427d1e84f3dd0314c0f7b2291e5b200ac8c7c3b92560405160405180910390a45050565b6000806119ea83610d3a565b90508073ffffffffffffffffffffffffffffffffffffffff168473ffffffffffffffffffffffffffffffffffffffff161480611a2c5750611a2b818561167f565b5b80611a6a57508373ffffffffffffffffffffffffffffffffffffffff16611a52846108bb565b73ffffffffffffffffffffffffffffffffffffffff16145b91505092915050565b8273ffffffffffffffffffffffffffffffffffffffff16611a9382610d3a565b73ffffffffffffffffffffffffffffffffffffffff1614611ae9576040517f08c379a0000000000000000000000000000000000000000000000000000000008152600401611ae090613f58565b60405180910390fd5b600073ffffffffffffffffffffffffffffffffffffffff168273ffffffffffffffffffffffffffffffffffffffff161415611b59576040517f08c379a0000000000000000000000000000000000000000000000000000000008152600401611b5090613fea565b60405180910390fd5b611b668383836001612336565b8273ffffffffffffffffffffffffffffffffffffffff16611b8682610d3a565b73ffffffffffffffffffffffffffffffffffffffff1614611bdc576040517f08c379a0000000000000000000000000000000000000000000000000000000008152600401611bd390613f58565b60405180910390fd5b6004600082815260200190815260200160002060006101000a81549073ffffffffffffffffffffffffffffffffffffffff02191690556001600360008573ffffffffffffffffffffffffffffffffffffffff1673ffffffffffffffffffffffffffffffffffffffff168152602001908152602001600020600082825403925050819055506001600360008473ffffffffffffffffffffffffffffffffffffffff1673ffffffffffffffffffffffffffffffffffffffff16815260200190815260200160002060008282540192505081905550816002600083815260200190815260200160002060006101000a81548173ffffffffffffffffffffffffffffffffffffffff021916908373ffffffffffffffffffffffffffffffffffffffff160217905550808273ffffffffffffffffffffffffffffffffffffffff168473ffffffffffffffffffffffffffffffffffffffff167fddf252ad1be2c89b69c2b068fc378daa952ba7f163c4a11628f55a4df523b3ef60405160405180910390a4611d688383836001612496565b505050565b611d7561191d565b73ffffffffffffffffffffffffffffffffffffffff16611d93610fe1565b73ffffffffffffffffffffffffffffffffffffffff1614611de9576040517f08c379a0000000000000000000000000000000000000000000000000000000008152600401611de090614056565b60405180910390fd5b565b60006002600083815260200190815260200160002060009054906101000a900473ffffffffffffffffffffffffffffffffffffffff169050919050565b6000600a60009054906101000a900473ffffffffffffffffffffffffffffffffffffffff16905081600a60006101000a81548173ffffffffffffffffffffffffffffffffffffffff021916908373ffffffffffffffffffffffffffffffffffffffff1602179055508173ffffffffffffffffffffffffffffffffffffffff168173ffffffffffffffffffffffffffffffffffffffff167f8be0079c531659141344cd1fd0a4f28419497f9722a3daafe3b4186f6b6457e060405160405180910390a35050565b8173ffffffffffffffffffffffffffffffffffffffff168373ffffffffffffffffffffffffffffffffffffffff161415611f5d576040517f08c379a0000000000000000000000000000000000000000000000000000000008152600401611f54906140c2565b60405180910390fd5b80600560008573ffffffffffffffffffffffffffffffffffffffff1673ffffffffffffffffffffffffffffffffffffffff16815260200190815260200160002060008473ffffffffffffffffffffffffffffffffffffffff1673ffffffffffffffffffffffffffffffffffffffff16815260200190815260200160002060006101000a81548160ff0219169083151502179055508173ffffffffffffffffffffffffffffffffffffffff168373ffffffffffffffffffffffffffffffffffffffff167f17307eab39ab6107e8899845ad3d59bd9653f200f220920489ca2b5937696c318360405161204e9190612d32565b60405180910390a3505050565b61207582826040518060200160405280600081525061249c565b5050565b612084848484611a73565b612090848484846124f7565b6120cf576040517f08c379a00000000000000000000000000000000000000000000000000000000081526004016120c690614154565b60405180910390fd5b50505050565b60008073ffffffffffffffffffffffffffffffffffffffff166120f783611deb565b73ffffffffffffffffffffffffffffffffffffffff1614159050919050565b60606040518060400160405280601d81526020017f646174613a6170706c69636174696f6e2f6a736f6e3b6261736536342c000000815250905090565b6060600082511415612176576040518060200160405280600081525090506122c7565b60006040518060600160405280604081526020016144df60409139905060006003600285516121a59190613a58565b6121af91906141a3565b60046121bb91906141d4565b905060006020826121cc9190613a58565b67ffffffffffffffff8111156121e5576121e4612fba565b5b6040519080825280601f01601f1916602001820160405280156122175781602001600182028036833780820191505090505b509050818152600183018586518101602084015b81831015612286576003830192508251603f8160121c168501518253600182019150603f81600c1c168501518253600182019150603f8160061c168501518253600182019150603f811685015182536001820191505061222b565b6003895106600181146122a057600281146122b0576122bb565b613d3d60f01b60028303526122bb565b603d60f81b60018303525b50505050508093505050505b919050565b60007f01ffc9a7000000000000000000000000000000000000000000000000000000007bffffffffffffffffffffffffffffffffffffffffffffffffffffffff1916827bffffffffffffffffffffffffffffffffffffffffffffffffffffffff1916149050919050565b6123428484848461268e565b6001811115612386576040517f08c379a000000000000000000000000000000000000000000000000000000000815260040161237d906142a0565b60405180910390fd5b6000829050600073ffffffffffffffffffffffffffffffffffffffff168573ffffffffffffffffffffffffffffffffffffffff1614156123ce576123c981612694565b61240d565b8373ffffffffffffffffffffffffffffffffffffffff168573ffffffffffffffffffffffffffffffffffffffff161461240c5761240b85826126dd565b5b5b600073ffffffffffffffffffffffffffffffffffffffff168473ffffffffffffffffffffffffffffffffffffffff1614156124505761244b8161284a565b61248f565b8473ffffffffffffffffffffffffffffffffffffffff168473ffffffffffffffffffffffffffffffffffffffff161461248e5761248d848261291b565b5b5b5050505050565b50505050565b6124a6838361299a565b6124b360008484846124f7565b6124f2576040517f08c379a00000000000000000000000000000000000000000000000000000000081526004016124e990614154565b60405180910390fd5b505050565b60006125188473ffffffffffffffffffffffffffffffffffffffff16612bb8565b15612681578373ffffffffffffffffffffffffffffffffffffffff1663150b7a0261254161191d565b8786866040518563ffffffff1660e01b81526004016125639493929190614315565b602060405180830381600087803b15801561257d57600080fd5b505af19250505080156125ae57506040513d601f19601f820116820180604052508101906125ab9190614376565b60015b612631573d80600081146125de576040519150601f19603f3d011682016040523d82523d6000602084013e6125e3565b606091505b50600081511415612629576040517f08c379a000000000000000000000000000000000000000000000000000000000815260040161262090614154565b60405180910390fd5b805181602001fd5b63150b7a0260e01b7bffffffffffffffffffffffffffffffffffffffffffffffffffffffff1916817bffffffffffffffffffffffffffffffffffffffffffffffffffffffff191614915050612686565b600190505b949350505050565b50505050565b6008805490506009600083815260200190815260200160002081905550600881908060018154018082558091505060019003906000526020600020016000909190919091505550565b600060016126ea84610f15565b6126f491906143a3565b90506000600760008481526020019081526020016000205490508181146127d9576000600660008673ffffffffffffffffffffffffffffffffffffffff1673ffffffffffffffffffffffffffffffffffffffff168152602001908152602001600020600084815260200190815260200160002054905080600660008773ffffffffffffffffffffffffffffffffffffffff1673ffffffffffffffffffffffffffffffffffffffff168152602001908152602001600020600084815260200190815260200160002081905550816007600083815260200190815260200160002081905550505b6007600084815260200190815260200160002060009055600660008573ffffffffffffffffffffffffffffffffffffffff1673ffffffffffffffffffffffffffffffffffffffff16815260200190815260200160002060008381526020019081526020016000206000905550505050565b6000600160088054905061285e91906143a3565b905060006009600084815260200190815260200160002054905060006008838154811061288e5761288d6137b8565b5b9060005260206000200154905080600883815481106128b0576128af6137b8565b5b9060005260206000200181905550816009600083815260200190815260200160002081905550600960008581526020019081526020016000206000905560088054806128ff576128fe6143d7565b5b6001900381819060005260206000200160009055905550505050565b600061292683610f15565b905081600660008573ffffffffffffffffffffffffffffffffffffffff1673ffffffffffffffffffffffffffffffffffffffff168152602001908152602001600020600083815260200190815260200160002081905550806007600084815260200190815260200160002081905550505050565b600073ffffffffffffffffffffffffffffffffffffffff168273ffffffffffffffffffffffffffffffffffffffff161415612a0a576040517f08c379a0000000000000000000000000000000000000000000000000000000008152600401612a0190614452565b60405180910390fd5b612a13816120d5565b15612a53576040517f08c379a0000000000000000000000000000000000000000000000000000000008152600401612a4a906144be565b60405180910390fd5b612a61600083836001612336565b612a6a816120d5565b15612aaa576040517f08c379a0000000000000000000000000000000000000000000000000000000008152600401612aa1906144be565b60405180910390fd5b6001600360008473ffffffffffffffffffffffffffffffffffffffff1673ffffffffffffffffffffffffffffffffffffffff16815260200190815260200160002060008282540192505081905550816002600083815260200190815260200160002060006101000a81548173ffffffffffffffffffffffffffffffffffffffff021916908373ffffffffffffffffffffffffffffffffffffffff160217905550808273ffffffffffffffffffffffffffffffffffffffff16600073ffffffffffffffffffffffffffffffffffffffff167fddf252ad1be2c89b69c2b068fc378daa952ba7f163c4a11628f55a4df523b3ef60405160405180910390a4612bb4600083836001612496565b5050565b6000808273ffffffffffffffffffffffffffffffffffffffff163b119050919050565b828054612be7906134ac565b90600052602060002090601f016020900481019282612c095760008555612c50565b82601f10612c2257805160ff1916838001178555612c50565b82800160010185558215612c50579182015b82811115612c4f578251825591602001919060010190612c34565b5b509050612c5d9190612c61565b5090565b5b80821115612c7a576000816000905550600101612c62565b5090565b6000604051905090565b600080fd5b600080fd5b60007fffffffff0000000000000000000000000000000000000000000000000000000082169050919050565b612cc781612c92565b8114612cd257600080fd5b50565b600081359050612ce481612cbe565b92915050565b600060208284031215612d0057612cff612c88565b5b6000612d0e84828501612cd5565b91505092915050565b60008115159050919050565b612d2c81612d17565b82525050565b6000602082019050612d476000830184612d23565b92915050565b600081519050919050565b600082825260208201905092915050565b60005b83811015612d87578082015181840152602081019050612d6c565b83811115612d96576000848401525b50505050565b6000601f19601f8301169050919050565b6000612db882612d4d565b612dc28185612d58565b9350612dd2818560208601612d69565b612ddb81612d9c565b840191505092915050565b60006020820190508181036000830152612e008184612dad565b905092915050565b6000819050919050565b612e1b81612e08565b8114612e2657600080fd5b50565b600081359050612e3881612e12565b92915050565b600060208284031215612e5457612e53612c88565b5b6000612e6284828501612e29565b91505092915050565b600073ffffffffffffffffffffffffffffffffffffffff82169050919050565b6000612e9682612e6b565b9050919050565b612ea681612e8b565b82525050565b6000602082019050612ec16000830184612e9d565b92915050565b612ed081612e8b565b8114612edb57600080fd5b50565b600081359050612eed81612ec7565b92915050565b60008060408385031215612f0a57612f09612c88565b5b6000612f1885828601612ede565b9250506020612f2985828601612e29565b9150509250929050565b612f3c81612e08565b82525050565b6000602082019050612f576000830184612f33565b92915050565b600080600060608486031215612f7657612f75612c88565b5b6000612f8486828701612ede565b9350506020612f9586828701612ede565b9250506040612fa686828701612e29565b9150509250925092565b600080fd5b600080fd5b7f4e487b7100000000000000000000000000000000000000000000000000000000600052604160045260246000fd5b612ff282612d9c565b810181811067ffffffffffffffff8211171561301157613010612fba565b5b80604052505050565b6000613024612c7e565b90506130308282612fe9565b919050565b600067ffffffffffffffff8211156130505761304f612fba565b5b61305982612d9c565b9050602081019050919050565b82818337600083830152505050565b600061308861308384613035565b61301a565b9050828152602081018484840111156130a4576130a3612fb5565b5b6130af848285613066565b509392505050565b600082601f8301126130cc576130cb612fb0565b5b81356130dc848260208601613075565b91505092915050565b600080604083850312156130fc576130fb612c88565b5b600061310a85828601612e29565b925050602083013567ffffffffffffffff81111561312b5761312a612c8d565b5b613137858286016130b7565b9150509250929050565b60006020828403121561315757613156612c88565b5b600061316584828501612ede565b91505092915050565b6000819050919050565b6131818161316e565b811461318c57600080fd5b50565b60008135905061319e81613178565b92915050565b600080604083850312156131bb576131ba612c88565b5b60006131c985828601612e29565b92505060206131da8582860161318f565b9150509250929050565b6131ed81612d17565b81146131f857600080fd5b50565b60008135905061320a816131e4565b92915050565b6000806040838503121561322757613226612c88565b5b600061323585828601612ede565b9250506020613246858286016131fb565b9150509250929050565b6000806000806080858703121561326a57613269612c88565b5b60006132788782880161318f565b945050602085013567ffffffffffffffff81111561329957613298612c8d565b5b6132a5878288016130b7565b935050604085013567ffffffffffffffff8111156132c6576132c5612c8d565b5b6132d2878288016130b7565b92505060606132e3878288016131fb565b91505092959194509250565b600067ffffffffffffffff82111561330a57613309612fba565b5b61331382612d9c565b9050602081019050919050565b600061333361332e846132ef565b61301a565b90508281526020810184848401111561334f5761334e612fb5565b5b61335a848285613066565b509392505050565b600082601f83011261337757613376612fb0565b5b8135613387848260208601613320565b91505092915050565b600080600080608085870312156133aa576133a9612c88565b5b60006133b887828801612ede565b94505060206133c987828801612ede565b93505060406133da87828801612e29565b925050606085013567ffffffffffffffff8111156133fb576133fa612c8d565b5b61340787828801613362565b91505092959194509250565b6000806040838503121561342a57613429612c88565b5b600061343885828601612ede565b925050602061344985828601612ede565b9150509250929050565b61345c8161316e565b82525050565b60006020820190506134776000830184613453565b92915050565b7f4e487b7100000000000000000000000000000000000000000000000000000000600052602260045260246000fd5b600060028204905060018216806134c457607f821691505b602082108114156134d8576134d761347d565b5b50919050565b7f4552433732313a20617070726f76616c20746f2063757272656e74206f776e6560008201527f7200000000000000000000000000000000000000000000000000000000000000602082015250565b600061353a602183612d58565b9150613545826134de565b604082019050919050565b600060208201905081810360008301526135698161352d565b9050919050565b7f4552433732313a20617070726f76652063616c6c6572206973206e6f7420746f60008201527f6b656e206f776e6572206f7220617070726f76656420666f7220616c6c000000602082015250565b60006135cc603d83612d58565b91506135d782613570565b604082019050919050565b600060208201905081810360008301526135fb816135bf565b9050919050565b7f4552433732313a2063616c6c6572206973206e6f7420746f6b656e206f776e6560008201527f72206f7220617070726f76656400000000000000000000000000000000000000602082015250565b600061365e602d83612d58565b915061366982613602565b604082019050919050565b6000602082019050818103600083015261368d81613651565b9050919050565b7f455243373231456e756d657261626c653a206f776e657220696e646578206f7560008201527f74206f6620626f756e6473000000000000000000000000000000000000000000602082015250565b60006136f0602b83612d58565b91506136fb82613694565b604082019050919050565b6000602082019050818103600083015261371f816136e3565b9050919050565b7f455243373231456e756d657261626c653a20676c6f62616c20696e646578206f60008201527f7574206f6620626f756e64730000000000000000000000000000000000000000602082015250565b6000613782602c83612d58565b915061378d82613726565b604082019050919050565b600060208201905081810360008301526137b181613775565b9050919050565b7f4e487b7100000000000000000000000000000000000000000000000000000000600052603260045260246000fd5b7f4552433732313a20696e76616c696420746f6b656e2049440000000000000000600082015250565b600061381d601883612d58565b9150613828826137e7565b602082019050919050565b6000602082019050818103600083015261384c81613810565b9050919050565b7f4f6e6c7920746865206f776e65722063616e207374616b6520746865204e4654600082015250565b6000613889602083612d58565b915061389482613853565b602082019050919050565b600060208201905081810360008301526138b88161387c565b9050919050565b7f4e465420697320616c7265616479207374616b65640000000000000000000000600082015250565b60006138f5601583612d58565b9150613900826138bf565b602082019050919050565b60006020820190508181036000830152613924816138e8565b9050919050565b7f4552433732313a2061646472657373207a65726f206973206e6f74206120766160008201527f6c6964206f776e65720000000000000000000000000000000000000000000000602082015250565b6000613987602983612d58565b91506139928261392b565b604082019050919050565b600060208201905081810360008301526139b68161397a565b9050919050565b7f4d6f726520455448207265717569726564000000000000000000000000000000600082015250565b60006139f3601183612d58565b91506139fe826139bd565b602082019050919050565b60006020820190508181036000830152613a22816139e6565b9050919050565b7f4e487b7100000000000000000000000000000000000000000000000000000000600052601160045260246000fd5b6000613a6382612e08565b9150613a6e83612e08565b9250827fffffffffffffffffffffffffffffffffffffffffffffffffffffffffffffffff03821115613aa357613aa2613a29565b5b828201905092915050565b7f4f6e6c7920746865206f776e65722063616e20756e7374616b6520746865204e60008201527f4654000000000000000000000000000000000000000000000000000000000000602082015250565b6000613b0a602283612d58565b9150613b1582613aae565b604082019050919050565b60006020820190508181036000830152613b3981613afd565b9050919050565b7f4e4654206973206e6f74207374616b6564000000000000000000000000000000600082015250565b6000613b76601183612d58565b9150613b8182613b40565b602082019050919050565b60006020820190508181036000830152613ba581613b69565b9050919050565b600081905092915050565b7f7b226e616d65223a220000000000000000000000000000000000000000000000600082015250565b6000613bed600983613bac565b9150613bf882613bb7565b600982019050919050565b6000613c0e82612d4d565b613c188185613bac565b9350613c28818560208601612d69565b80840191505092915050565b7f222c20226465736372697074696f6e223a2251222c2000000000000000000000600082015250565b6000613c6a601683613bac565b9150613c7582613c34565b601682019050919050565b7f2261747472696275746573223a00000000000000000000000000000000000000600082015250565b6000613cb6600d83613bac565b9150613cc182613c80565b600d82019050919050565b7f2c22696d616765223a2200000000000000000000000000000000000000000000600082015250565b6000613d02600a83613bac565b9150613d0d82613ccc565b600a82019050919050565b7f222c227374616b6564223a220000000000000000000000000000000000000000600082015250565b6000613d4e600c83613bac565b9150613d5982613d18565b600c82019050919050565b7f227d000000000000000000000000000000000000000000000000000000000000600082015250565b6000613d9a600283613bac565b9150613da582613d64565b600282019050919050565b6000613dbb82613be0565b9150613dc78287613c03565b9150613dd282613c5d565b9150613ddd82613ca9565b9150613de98286613c03565b9150613df482613cf5565b9150613e008285613c03565b9150613e0b82613d41565b9150613e178284613c03565b9150613e2282613d8d565b915081905095945050505050565b6000613e3c8285613c03565b9150613e488284613c03565b91508190509392505050565b7f4f776e61626c653a206e6577206f776e657220697320746865207a65726f206160008201527f6464726573730000000000000000000000000000000000000000000000000000602082015250565b6000613eb0602683612d58565b9150613ebb82613e54565b604082019050919050565b60006020820190508181036000830152613edf81613ea3565b9050919050565b7f4552433732313a207472616e736665722066726f6d20696e636f72726563742060008201527f6f776e6572000000000000000000000000000000000000000000000000000000602082015250565b6000613f42602583612d58565b9150613f4d82613ee6565b604082019050919050565b60006020820190508181036000830152613f7181613f35565b9050919050565b7f4552433732313a207472616e7366657220746f20746865207a65726f2061646460008201527f7265737300000000000000000000000000000000000000000000000000000000602082015250565b6000613fd4602483612d58565b9150613fdf82613f78565b604082019050919050565b6000602082019050818103600083015261400381613fc7565b9050919050565b7f4f776e61626c653a2063616c6c6572206973206e6f7420746865206f776e6572600082015250565b6000614040602083612d58565b915061404b8261400a565b602082019050919050565b6000602082019050818103600083015261406f81614033565b9050919050565b7f4552433732313a20617070726f766520746f2063616c6c657200000000000000600082015250565b60006140ac601983612d58565b91506140b782614076565b602082019050919050565b600060208201905081810360008301526140db8161409f565b9050919050565b7f4552433732313a207472616e7366657220746f206e6f6e20455243373231526560008201527f63656976657220696d706c656d656e7465720000000000000000000000000000602082015250565b600061413e603283612d58565b9150614149826140e2565b604082019050919050565b6000602082019050818103600083015261416d81614131565b9050919050565b7f4e487b7100000000000000000000000000000000000000000000000000000000600052601260045260246000fd5b60006141ae82612e08565b91506141b983612e08565b9250826141c9576141c8614174565b5b828204905092915050565b60006141df82612e08565b91506141ea83612e08565b9250817fffffffffffffffffffffffffffffffffffffffffffffffffffffffffffffffff048311821515161561422357614222613a29565b5b828202905092915050565b7f455243373231456e756d657261626c653a20636f6e736563757469766520747260008201527f616e7366657273206e6f7420737570706f727465640000000000000000000000602082015250565b600061428a603583612d58565b91506142958261422e565b604082019050919050565b600060208201905081810360008301526142b98161427d565b9050919050565b600081519050919050565b600082825260208201905092915050565b60006142e7826142c0565b6142f181856142cb565b9350614301818560208601612d69565b61430a81612d9c565b840191505092915050565b600060808201905061432a6000830187612e9d565b6143376020830186612e9d565b6143446040830185612f33565b818103606083015261435681846142dc565b905095945050505050565b60008151905061437081612cbe565b92915050565b60006020828403121561438c5761438b612c88565b5b600061439a84828501614361565b91505092915050565b60006143ae82612e08565b91506143b983612e08565b9250828210156143cc576143cb613a29565b5b828203905092915050565b7f4e487b7100000000000000000000000000000000000000000000000000000000600052603160045260246000fd5b7f4552433732313a206d696e7420746f20746865207a65726f2061646472657373600082015250565b600061443c602083612d58565b915061444782614406565b602082019050919050565b6000602082019050818103600083015261446b8161442f565b9050919050565b7f4552433732313a20746f6b656e20616c7265616479206d696e74656400000000600082015250565b60006144a8601c83612d58565b91506144b382614472565b602082019050919050565b600060208201905081810360008301526144d78161449b565b905091905056fe4142434445464748494a4b4c4d4e4f505152535455565758595a6162636465666768696a6b6c6d6e6f707172737475767778797a303132333435363738392b2fa2646970667358221220d604ff25d94c7dc81acd0d4cb72efb36cc25d803fc296b039357da0ce57d40c664736f6c63430008080033",
  "devdoc": {
    "kind": "dev",
    "methods": {
      "approve(address,uint256)": {
        "details": "See {IERC721-approve}."
      },
      "balanceOf(address)": {
        "details": "See {IERC721-balanceOf}."
      },
      "getApproved(uint256)": {
        "details": "See {IERC721-getApproved}."
      },
      "isApprovedForAll(address,address)": {
        "details": "See {IERC721-isApprovedForAll}."
      },
      "name()": {
        "details": "See {IERC721Metadata-name}."
      },
      "owner()": {
        "details": "Returns the address of the current owner."
      },
      "ownerOf(uint256)": {
        "details": "See {IERC721-ownerOf}."
      },
      "renounceOwnership()": {
        "details": "Leaves the contract without owner. It will not be possible to call `onlyOwner` functions anymore. Can only be called by the current owner. NOTE: Renouncing ownership will leave the contract without an owner, thereby removing any functionality that is only available to the owner."
      },
      "safeTransferFrom(address,address,uint256)": {
        "details": "See {IERC721-safeTransferFrom}."
      },
      "safeTransferFrom(address,address,uint256,bytes)": {
        "details": "See {IERC721-safeTransferFrom}."
      },
      "setApprovalForAll(address,bool)": {
        "details": "See {IERC721-setApprovalForAll}."
      },
      "supportsInterface(bytes4)": {
        "details": "See {IERC165-supportsInterface}."
      },
      "symbol()": {
        "details": "See {IERC721Metadata-symbol}."
      },
      "tokenByIndex(uint256)": {
        "details": "See {IERC721Enumerable-tokenByIndex}."
      },
      "tokenOfOwnerByIndex(address,uint256)": {
        "details": "See {IERC721Enumerable-tokenOfOwnerByIndex}."
      },
      "tokenURI(uint256)": {
        "details": "See {IERC721Metadata-tokenURI}."
      },
      "totalSupply()": {
        "details": "See {IERC721Enumerable-totalSupply}."
      },
      "transferFrom(address,address,uint256)": {
        "details": "See {IERC721-transferFrom}."
      },
      "transferOwnership(address)": {
        "details": "Transfers ownership of the contract to a new account (`newOwner`). Can only be called by the current owner."
      }
    },
    "version": 1
  },
  "userdoc": {
    "kind": "user",
    "methods": {},
    "version": 1
  },
  "storageLayout": {
    "storage": [
      {
        "astId": 138,
        "contract": "contracts/DynamicPngNft.sol:DynamicPngNft",
        "label": "_name",
        "offset": 0,
        "slot": "0",
        "type": "t_string_storage"
      },
      {
        "astId": 140,
        "contract": "contracts/DynamicPngNft.sol:DynamicPngNft",
        "label": "_symbol",
        "offset": 0,
        "slot": "1",
        "type": "t_string_storage"
      },
      {
        "astId": 144,
        "contract": "contracts/DynamicPngNft.sol:DynamicPngNft",
        "label": "_owners",
        "offset": 0,
        "slot": "2",
        "type": "t_mapping(t_uint256,t_address)"
      },
      {
        "astId": 148,
        "contract": "contracts/DynamicPngNft.sol:DynamicPngNft",
        "label": "_balances",
        "offset": 0,
        "slot": "3",
        "type": "t_mapping(t_address,t_uint256)"
      },
      {
        "astId": 152,
        "contract": "contracts/DynamicPngNft.sol:DynamicPngNft",
        "label": "_tokenApprovals",
        "offset": 0,
        "slot": "4",
        "type": "t_mapping(t_uint256,t_address)"
      },
      {
        "astId": 158,
        "contract": "contracts/DynamicPngNft.sol:DynamicPngNft",
        "label": "_operatorApprovals",
        "offset": 0,
        "slot": "5",
        "type": "t_mapping(t_address,t_mapping(t_address,t_bool))"
      },
      {
        "astId": 1188,
        "contract": "contracts/DynamicPngNft.sol:DynamicPngNft",
        "label": "_ownedTokens",
        "offset": 0,
        "slot": "6",
        "type": "t_mapping(t_address,t_mapping(t_uint256,t_uint256))"
      },
      {
        "astId": 1192,
        "contract": "contracts/DynamicPngNft.sol:DynamicPngNft",
        "label": "_ownedTokensIndex",
        "offset": 0,
        "slot": "7",
        "type": "t_mapping(t_uint256,t_uint256)"
      },
      {
        "astId": 1195,
        "contract": "contracts/DynamicPngNft.sol:DynamicPngNft",
        "label": "_allTokens",
        "offset": 0,
        "slot": "8",
        "type": "t_array(t_uint256)dyn_storage"
      },
      {
        "astId": 1199,
        "contract": "contracts/DynamicPngNft.sol:DynamicPngNft",
        "label": "_allTokensIndex",
        "offset": 0,
        "slot": "9",
        "type": "t_mapping(t_uint256,t_uint256)"
      },
      {
        "astId": 7,
        "contract": "contracts/DynamicPngNft.sol:DynamicPngNft",
        "label": "_owner",
        "offset": 0,
        "slot": "10",
        "type": "t_address"
      },
      {
        "astId": 3142,
        "contract": "contracts/DynamicPngNft.sol:DynamicPngNft",
        "label": "s_tokenCounter",
        "offset": 0,
        "slot": "11",
        "type": "t_uint256"
      },
      {
        "astId": 3144,
        "contract": "contracts/DynamicPngNft.sol:DynamicPngNft",
        "label": "s_isQR",
        "offset": 0,
        "slot": "12",
        "type": "t_bool"
      },
      {
        "astId": 3146,
        "contract": "contracts/DynamicPngNft.sol:DynamicPngNft",
        "label": "s_mintFee",
        "offset": 0,
        "slot": "13",
        "type": "t_uint256"
      },
      {
        "astId": 3150,
        "contract": "contracts/DynamicPngNft.sol:DynamicPngNft",
        "label": "s_tokenIdToMembershipStatus",
        "offset": 0,
        "slot": "14",
        "type": "t_mapping(t_uint256,t_int256)"
      },
      {
        "astId": 3154,
        "contract": "contracts/DynamicPngNft.sol:DynamicPngNft",
        "label": "s_tokenIdToImageURL",
        "offset": 0,
        "slot": "15",
        "type": "t_mapping(t_uint256,t_string_storage)"
      },
      {
        "astId": 3158,
        "contract": "contracts/DynamicPngNft.sol:DynamicPngNft",
        "label": "s_tokenIdToAttributes",
        "offset": 0,
        "slot": "16",
        "type": "t_mapping(t_uint256,t_string_storage)"
      },
      {
        "astId": 3162,
        "contract": "contracts/DynamicPngNft.sol:DynamicPngNft",
        "label": "s_tokenIdToStaked",
        "offset": 0,
        "slot": "17",
        "type": "t_mapping(t_uint256,t_bool)"
      }
    ],
    "types": {
      "t_address": {
        "encoding": "inplace",
        "label": "address",
        "numberOfBytes": "20"
      },
      "t_array(t_uint256)dyn_storage": {
        "base": "t_uint256",
        "encoding": "dynamic_array",
        "label": "uint256[]",
        "numberOfBytes": "32"
      },
      "t_bool": {
        "encoding": "inplace",
        "label": "bool",
        "numberOfBytes": "1"
      },
      "t_int256": {
        "encoding": "inplace",
        "label": "int256",
        "numberOfBytes": "32"
      },
      "t_mapping(t_address,t_bool)": {
        "encoding": "mapping",
        "key": "t_address",
        "label": "mapping(address => bool)",
        "numberOfBytes": "32",
        "value": "t_bool"
      },
      "t_mapping(t_address,t_mapping(t_address,t_bool))": {
        "encoding": "mapping",
        "key": "t_address",
        "label": "mapping(address => mapping(address => bool))",
        "numberOfBytes": "32",
        "value": "t_mapping(t_address,t_bool)"
      },
      "t_mapping(t_address,t_mapping(t_uint256,t_uint256))": {
        "encoding": "mapping",
        "key": "t_address",
        "label": "mapping(address => mapping(uint256 => uint256))",
        "numberOfBytes": "32",
        "value": "t_mapping(t_uint256,t_uint256)"
      },
      "t_mapping(t_address,t_uint256)": {
        "encoding": "mapping",
        "key": "t_address",
        "label": "mapping(address => uint256)",
        "numberOfBytes": "32",
        "value": "t_uint256"
      },
      "t_mapping(t_uint256,t_address)": {
        "encoding": "mapping",
        "key": "t_uint256",
        "label": "mapping(uint256 => address)",
        "numberOfBytes": "32",
        "value": "t_address"
      },
      "t_mapping(t_uint256,t_bool)": {
        "encoding": "mapping",
        "key": "t_uint256",
        "label": "mapping(uint256 => bool)",
        "numberOfBytes": "32",
        "value": "t_bool"
      },
      "t_mapping(t_uint256,t_int256)": {
        "encoding": "mapping",
        "key": "t_uint256",
        "label": "mapping(uint256 => int256)",
        "numberOfBytes": "32",
        "value": "t_int256"
      },
      "t_mapping(t_uint256,t_string_storage)": {
        "encoding": "mapping",
        "key": "t_uint256",
        "label": "mapping(uint256 => string)",
        "numberOfBytes": "32",
        "value": "t_string_storage"
      },
      "t_mapping(t_uint256,t_uint256)": {
        "encoding": "mapping",
        "key": "t_uint256",
        "label": "mapping(uint256 => uint256)",
        "numberOfBytes": "32",
        "value": "t_uint256"
      },
      "t_string_storage": {
        "encoding": "bytes",
        "label": "string",
        "numberOfBytes": "32"
      },
      "t_uint256": {
        "encoding": "inplace",
        "label": "uint256",
        "numberOfBytes": "32"
      }
    }
  }
}