{
  "address": "0x5FbDB2315678afecb367f032d93F642f64180aa3",
  "abi": [
    {
      "inputs": [
        {
          "internalType": "uint256",
          "name": "mintFee",
          "type": "uint256"
        }
      ],
      "stateMutability": "nonpayable",
      "type": "constructor"
    },
    {
      "inputs": [],
      "name": "ERC721Metadata__URI_QueryFor_NonExistentToken",
      "type": "error"
    },
    {
      "anonymous": false,
      "inputs": [
        {
          "indexed": true,
          "internalType": "address",
          "name": "owner",
          "type": "address"
        },
        {
          "indexed": true,
          "internalType": "address",
          "name": "approved",
          "type": "address"
        },
        {
          "indexed": true,
          "internalType": "uint256",
          "name": "tokenId",
          "type": "uint256"
        }
      ],
      "name": "Approval",
      "type": "event"
    },
    {
      "anonymous": false,
      "inputs": [
        {
          "indexed": true,
          "internalType": "address",
          "name": "owner",
          "type": "address"
        },
        {
          "indexed": true,
          "internalType": "address",
          "name": "operator",
          "type": "address"
        },
        {
          "indexed": false,
          "internalType": "bool",
          "name": "approved",
          "type": "bool"
        }
      ],
      "name": "ApprovalForAll",
      "type": "event"
    },
    {
      "anonymous": false,
      "inputs": [
        {
          "indexed": true,
          "internalType": "uint256",
          "name": "tokenId",
          "type": "uint256"
        },
        {
          "indexed": false,
          "internalType": "int256",
          "name": "membership_status",
          "type": "int256"
        }
      ],
      "name": "CreatedNFT",
      "type": "event"
    },
    {
      "anonymous": false,
      "inputs": [
        {
          "indexed": true,
          "internalType": "address",
          "name": "staker",
          "type": "address"
        },
        {
          "indexed": true,
          "internalType": "uint256",
          "name": "tokenId",
          "type": "uint256"
        }
      ],
      "name": "NFTStaked",
      "type": "event"
    },
    {
      "anonymous": false,
      "inputs": [
        {
          "indexed": true,
          "internalType": "address",
          "name": "unstaker",
          "type": "address"
        },
        {
          "indexed": true,
          "internalType": "uint256",
          "name": "tokenId",
          "type": "uint256"
        }
      ],
      "name": "NFTUnstaked",
      "type": "event"
    },
    {
      "anonymous": false,
      "inputs": [
        {
          "indexed": true,
          "internalType": "address",
          "name": "previousOwner",
          "type": "address"
        },
        {
          "indexed": true,
          "internalType": "address",
          "name": "newOwner",
          "type": "address"
        }
      ],
      "name": "OwnershipTransferred",
      "type": "event"
    },
    {
      "anonymous": false,
      "inputs": [
        {
          "indexed": true,
          "internalType": "address",
          "name": "from",
          "type": "address"
        },
        {
          "indexed": true,
          "internalType": "address",
          "name": "to",
          "type": "address"
        },
        {
          "indexed": true,
          "internalType": "uint256",
          "name": "tokenId",
          "type": "uint256"
        }
      ],
      "name": "Transfer",
      "type": "event"
    },
    {
      "inputs": [
        {
          "internalType": "address",
          "name": "to",
          "type": "address"
        },
        {
          "internalType": "uint256",
          "name": "tokenId",
          "type": "uint256"
        }
      ],
      "name": "approve",
      "outputs": [],
      "stateMutability": "nonpayable",
      "type": "function"
    },
    {
      "inputs": [
        {
          "internalType": "address",
          "name": "owner",
          "type": "address"
        }
      ],
      "name": "balanceOf",
      "outputs": [
        {
          "internalType": "uint256",
          "name": "",
          "type": "uint256"
        }
      ],
      "stateMutability": "view",
      "type": "function"
    },
    {
      "inputs": [
        {
          "internalType": "uint256",
          "name": "tokenId",
          "type": "uint256"
        }
      ],
      "name": "getApproved",
      "outputs": [
        {
          "internalType": "address",
          "name": "",
          "type": "address"
        }
      ],
      "stateMutability": "view",
      "type": "function"
    },
    {
      "inputs": [
        {
          "internalType": "uint256",
          "name": "tokenId",
          "type": "uint256"
        }
      ],
      "name": "getAttributes",
      "outputs": [
        {
          "internalType": "string",
          "name": "",
          "type": "string"
        }
      ],
      "stateMutability": "view",
      "type": "function"
    },
    {
      "inputs": [
        {
          "internalType": "uint256",
          "name": "tokenId",
          "type": "uint256"
        }
      ],
      "name": "getFit",
      "outputs": [
        {
          "internalType": "string",
          "name": "",
          "type": "string"
        }
      ],
      "stateMutability": "view",
      "type": "function"
    },
    {
      "inputs": [
        {
          "internalType": "uint256",
          "name": "tokenId",
          "type": "uint256"
        }
      ],
      "name": "getImage",
      "outputs": [
        {
          "internalType": "string",
          "name": "",
          "type": "string"
        }
      ],
      "stateMutability": "view",
      "type": "function"
    },
    {
      "inputs": [
        {
          "internalType": "uint256",
          "name": "tokenId",
          "type": "uint256"
        }
      ],
      "name": "getMembershipStatus",
      "outputs": [
        {
          "internalType": "int256",
          "name": "",
          "type": "int256"
        }
      ],
      "stateMutability": "view",
      "type": "function"
    },
    {
      "inputs": [
        {
          "internalType": "uint256",
          "name": "tokenId",
          "type": "uint256"
        }
      ],
      "name": "getStaked",
      "outputs": [
        {
          "internalType": "bool",
          "name": "",
          "type": "bool"
        }
      ],
      "stateMutability": "view",
      "type": "function"
    },
    {
      "inputs": [],
      "name": "getTokenCounter",
      "outputs": [
        {
          "internalType": "uint256",
          "name": "",
          "type": "uint256"
        }
      ],
      "stateMutability": "view",
      "type": "function"
    },
    {
      "inputs": [
        {
          "internalType": "address",
          "name": "owner",
          "type": "address"
        },
        {
          "internalType": "address",
          "name": "operator",
          "type": "address"
        }
      ],
      "name": "isApprovedForAll",
      "outputs": [
        {
          "internalType": "bool",
          "name": "",
          "type": "bool"
        }
      ],
      "stateMutability": "view",
      "type": "function"
    },
    {
      "inputs": [
        {
          "internalType": "int256",
          "name": "membership_status",
          "type": "int256"
        },
        {
          "internalType": "string",
          "name": "imageURL",
          "type": "string"
        },
        {
          "internalType": "string",
          "name": "attributes",
          "type": "string"
        },
        {
          "internalType": "string",
          "name": "fit",
          "type": "string"
        },
        {
          "internalType": "bool",
          "name": "isQR",
          "type": "bool"
        }
      ],
      "name": "mintNft",
      "outputs": [],
      "stateMutability": "payable",
      "type": "function"
    },
    {
      "inputs": [],
      "name": "name",
      "outputs": [
        {
          "internalType": "string",
          "name": "",
          "type": "string"
        }
      ],
      "stateMutability": "view",
      "type": "function"
    },
    {
      "inputs": [],
      "name": "owner",
      "outputs": [
        {
          "internalType": "address",
          "name": "",
          "type": "address"
        }
      ],
      "stateMutability": "view",
      "type": "function"
    },
    {
      "inputs": [
        {
          "internalType": "uint256",
          "name": "tokenId",
          "type": "uint256"
        }
      ],
      "name": "ownerOf",
      "outputs": [
        {
          "internalType": "address",
          "name": "",
          "type": "address"
        }
      ],
      "stateMutability": "view",
      "type": "function"
    },
    {
      "inputs": [],
      "name": "renounceOwnership",
      "outputs": [],
      "stateMutability": "nonpayable",
      "type": "function"
    },
    {
      "inputs": [
        {
          "internalType": "address",
          "name": "from",
          "type": "address"
        },
        {
          "internalType": "address",
          "name": "to",
          "type": "address"
        },
        {
          "internalType": "uint256",
          "name": "tokenId",
          "type": "uint256"
        }
      ],
      "name": "safeTransferFrom",
      "outputs": [],
      "stateMutability": "nonpayable",
      "type": "function"
    },
    {
      "inputs": [
        {
          "internalType": "address",
          "name": "from",
          "type": "address"
        },
        {
          "internalType": "address",
          "name": "to",
          "type": "address"
        },
        {
          "internalType": "uint256",
          "name": "tokenId",
          "type": "uint256"
        },
        {
          "internalType": "bytes",
          "name": "data",
          "type": "bytes"
        }
      ],
      "name": "safeTransferFrom",
      "outputs": [],
      "stateMutability": "nonpayable",
      "type": "function"
    },
    {
      "inputs": [
        {
          "internalType": "address",
          "name": "operator",
          "type": "address"
        },
        {
          "internalType": "bool",
          "name": "approved",
          "type": "bool"
        }
      ],
      "name": "setApprovalForAll",
      "outputs": [],
      "stateMutability": "nonpayable",
      "type": "function"
    },
    {
      "inputs": [
        {
          "internalType": "uint256",
          "name": "tokenId",
          "type": "uint256"
        },
        {
          "internalType": "string",
          "name": "attributes",
          "type": "string"
        }
      ],
      "name": "setAttributes",
      "outputs": [],
      "stateMutability": "nonpayable",
      "type": "function"
    },
    {
      "inputs": [
        {
          "internalType": "uint256",
          "name": "tokenId",
          "type": "uint256"
        },
        {
          "internalType": "string",
          "name": "fit",
          "type": "string"
        }
      ],
      "name": "setFit",
      "outputs": [],
      "stateMutability": "nonpayable",
      "type": "function"
    },
    {
      "inputs": [
        {
          "internalType": "uint256",
          "name": "tokenId",
          "type": "uint256"
        },
        {
          "internalType": "string",
          "name": "image",
          "type": "string"
        }
      ],
      "name": "setImage",
      "outputs": [],
      "stateMutability": "nonpayable",
      "type": "function"
    },
    {
      "inputs": [
        {
          "internalType": "uint256",
          "name": "tokenId",
          "type": "uint256"
        },
        {
          "internalType": "int256",
          "name": "status",
          "type": "int256"
        }
      ],
      "name": "setMembership",
      "outputs": [],
      "stateMutability": "nonpayable",
      "type": "function"
    },
    {
      "inputs": [
        {
          "internalType": "uint256",
          "name": "mintFee",
          "type": "uint256"
        }
      ],
      "name": "setMintFee",
      "outputs": [],
      "stateMutability": "nonpayable",
      "type": "function"
    },
    {
      "inputs": [
        {
          "internalType": "uint256",
          "name": "tokenId",
          "type": "uint256"
        }
      ],
      "name": "stakeNFT",
      "outputs": [],
      "stateMutability": "nonpayable",
      "type": "function"
    },
    {
      "inputs": [
        {
          "internalType": "bytes4",
          "name": "interfaceId",
          "type": "bytes4"
        }
      ],
      "name": "supportsInterface",
      "outputs": [
        {
          "internalType": "bool",
          "name": "",
          "type": "bool"
        }
      ],
      "stateMutability": "view",
      "type": "function"
    },
    {
      "inputs": [],
      "name": "symbol",
      "outputs": [
        {
          "internalType": "string",
          "name": "",
          "type": "string"
        }
      ],
      "stateMutability": "view",
      "type": "function"
    },
    {
      "inputs": [
        {
          "internalType": "uint256",
          "name": "index",
          "type": "uint256"
        }
      ],
      "name": "tokenByIndex",
      "outputs": [
        {
          "internalType": "uint256",
          "name": "",
          "type": "uint256"
        }
      ],
      "stateMutability": "view",
      "type": "function"
    },
    {
      "inputs": [
        {
          "internalType": "address",
          "name": "owner",
          "type": "address"
        },
        {
          "internalType": "uint256",
          "name": "index",
          "type": "uint256"
        }
      ],
      "name": "tokenOfOwnerByIndex",
      "outputs": [
        {
          "internalType": "uint256",
          "name": "",
          "type": "uint256"
        }
      ],
      "stateMutability": "view",
      "type": "function"
    },
    {
      "inputs": [
        {
          "internalType": "uint256",
          "name": "tokenId",
          "type": "uint256"
        }
      ],
      "name": "tokenURI",
      "outputs": [
        {
          "internalType": "string",
          "name": "",
          "type": "string"
        }
      ],
      "stateMutability": "view",
      "type": "function"
    },
    {
      "inputs": [],
      "name": "totalSupply",
      "outputs": [
        {
          "internalType": "uint256",
          "name": "",
          "type": "uint256"
        }
      ],
      "stateMutability": "view",
      "type": "function"
    },
    {
      "inputs": [
        {
          "internalType": "address",
          "name": "from",
          "type": "address"
        },
        {
          "internalType": "address",
          "name": "to",
          "type": "address"
        },
        {
          "internalType": "uint256",
          "name": "tokenId",
          "type": "uint256"
        }
      ],
      "name": "transferFrom",
      "outputs": [],
      "stateMutability": "nonpayable",
      "type": "function"
    },
    {
      "inputs": [
        {
          "internalType": "address",
          "name": "newOwner",
          "type": "address"
        }
      ],
      "name": "transferOwnership",
      "outputs": [],
      "stateMutability": "nonpayable",
      "type": "function"
    },
    {
      "inputs": [
        {
          "internalType": "uint256",
          "name": "tokenId",
          "type": "uint256"
        }
      ],
      "name": "unstakeNFT",
      "outputs": [],
      "stateMutability": "nonpayable",
      "type": "function"
    }
  ],
  "transactionHash": "0x295f0d13b24bfe29bc8bcdb4e269d1b9ae9bb1892bc6fb54651798a3fbba96a0",
  "args": [
    "10000000000000000"
  ],
  "numDeployments": 1,
  "solcInputHash": "a52d277a466acdbed56acc1ee9f50929",
  "bytecode": "0x60806040523480156200001157600080fd5b5060405162004b7d38038062004b7d8339818101604052810190620000379190620002cb565b6040518060400160405280600f81526020017f44796e616d696320504e47204e465400000000000000000000000000000000008152506040518060400160405280600381526020017f44534e00000000000000000000000000000000000000000000000000000000008152508160009080519060200190620000bb929190620001db565b508060019080519060200190620000d4929190620001db565b505050620000f7620000eb6200010d60201b60201c565b6200011560201b60201c565b6000600b8190555080600d819055505062000362565b600033905090565b6000600a60009054906101000a900473ffffffffffffffffffffffffffffffffffffffff16905081600a60006101000a81548173ffffffffffffffffffffffffffffffffffffffff021916908373ffffffffffffffffffffffffffffffffffffffff1602179055508173ffffffffffffffffffffffffffffffffffffffff168173ffffffffffffffffffffffffffffffffffffffff167f8be0079c531659141344cd1fd0a4f28419497f9722a3daafe3b4186f6b6457e060405160405180910390a35050565b828054620001e9906200032c565b90600052602060002090601f0160209004810192826200020d576000855562000259565b82601f106200022857805160ff191683800117855562000259565b8280016001018555821562000259579182015b82811115620002585782518255916020019190600101906200023b565b5b5090506200026891906200026c565b5090565b5b80821115620002875760008160009055506001016200026d565b5090565b600080fd5b6000819050919050565b620002a58162000290565b8114620002b157600080fd5b50565b600081519050620002c5816200029a565b92915050565b600060208284031215620002e457620002e36200028b565b5b6000620002f484828501620002b4565b91505092915050565b7f4e487b7100000000000000000000000000000000000000000000000000000000600052602260045260246000fd5b600060028204905060018216806200034557607f821691505b602082108114156200035c576200035b620002fd565b5b50919050565b61480b80620003726000396000f3fe6080604052600436106101ee5760003560e01c8063715018a61161010d578063b88d4fde116100a0578063e985e9c51161006f578063e985e9c514610722578063eddd0d9c1461075f578063f2fde38b14610788578063fac9101c146107b1578063ff4af37d146107ee576101ee565b8063b88d4fde1461066a578063c1dfa0bb14610693578063c87b56dd146106bc578063c980c626146106f9576101ee565b806393e62e97116100dc57806393e62e97146105c457806395d89b41146105ed578063a22cb46514610618578063aa771db914610641576101ee565b8063715018a61461052957806374f624f014610540578063773849f51461057d5780638da5cb5b14610599576101ee565b80633bdecd7b116101855780636352211e116101545780636352211e1461045b5780636e02007d146104985780636eb604e0146104c357806370a08231146104ec576101ee565b80633bdecd7b1461038f57806342842e0e146103b85780634378a6e3146103e15780634f6ccce71461041e576101ee565b806318160ddd116101c157806318160ddd146102c157806323b872dd146102ec5780632607aafa146103155780632f745c5914610352576101ee565b806301ffc9a7146101f357806306fdde0314610230578063081812fc1461025b578063095ea7b314610298575b600080fd5b3480156101ff57600080fd5b5061021a60048036038101906102159190612f0d565b61082b565b6040516102279190612f55565b60405180910390f35b34801561023c57600080fd5b506102456108a5565b6040516102529190613009565b60405180910390f35b34801561026757600080fd5b50610282600480360381019061027d9190613061565b610937565b60405161028f91906130cf565b60405180910390f35b3480156102a457600080fd5b506102bf60048036038101906102ba9190613116565b61097d565b005b3480156102cd57600080fd5b506102d6610a95565b6040516102e39190613165565b60405180910390f35b3480156102f857600080fd5b50610313600480360381019061030e9190613180565b610aa2565b005b34801561032157600080fd5b5061033c60048036038101906103379190613061565b610b02565b6040516103499190613009565b60405180910390f35b34801561035e57600080fd5b5061037960048036038101906103749190613116565b610ba7565b6040516103869190613165565b60405180910390f35b34801561039b57600080fd5b506103b660048036038101906103b19190613308565b610c4c565b005b3480156103c457600080fd5b506103df60048036038101906103da9190613180565b610c80565b005b3480156103ed57600080fd5b5061040860048036038101906104039190613061565b610ca0565b6040516104159190613009565b60405180910390f35b34801561042a57600080fd5b5061044560048036038101906104409190613061565b610d45565b6040516104529190613165565b60405180910390f35b34801561046757600080fd5b50610482600480360381019061047d9190613061565b610db6565b60405161048f91906130cf565b60405180910390f35b3480156104a457600080fd5b506104ad610e3d565b6040516104ba9190613165565b60405180910390f35b3480156104cf57600080fd5b506104ea60048036038101906104e59190613061565b610e47565b005b3480156104f857600080fd5b50610513600480360381019061050e9190613364565b610f91565b6040516105209190613165565b60405180910390f35b34801561053557600080fd5b5061053e611049565b005b34801561054c57600080fd5b5061056760048036038101906105629190613061565b61105d565b6040516105749190613009565b60405180910390f35b610597600480360381019061059291906133f3565b611102565b005b3480156105a557600080fd5b506105ae61125b565b6040516105bb91906130cf565b60405180910390f35b3480156105d057600080fd5b506105eb60048036038101906105e691906134c2565b611285565b005b3480156105f957600080fd5b506106026112a9565b60405161060f9190613009565b60405180910390f35b34801561062457600080fd5b5061063f600480360381019061063a9190613502565b61133b565b005b34801561064d57600080fd5b5061066860048036038101906106639190613308565b611351565b005b34801561067657600080fd5b50610691600480360381019061068c91906135e3565b611385565b005b34801561069f57600080fd5b506106ba60048036038101906106b59190613061565b6113e7565b005b3480156106c857600080fd5b506106e360048036038101906106de9190613061565b611530565b6040516106f09190613009565b60405180910390f35b34801561070557600080fd5b50610720600480360381019061071b9190613308565b611856565b005b34801561072e57600080fd5b5061074960048036038101906107449190613666565b6118a2565b6040516107569190612f55565b60405180910390f35b34801561076b57600080fd5b5061078660048036038101906107819190613061565b611936565b005b34801561079457600080fd5b506107af60048036038101906107aa9190613364565b611948565b005b3480156107bd57600080fd5b506107d860048036038101906107d39190613061565b6119cc565b6040516107e59190612f55565b60405180910390f35b3480156107fa57600080fd5b5061081560048036038101906108109190613061565b6119f6565b60405161082291906136b5565b60405180910390f35b60007f780e9d63000000000000000000000000000000000000000000000000000000007bffffffffffffffffffffffffffffffffffffffffffffffffffffffff1916827bffffffffffffffffffffffffffffffffffffffffffffffffffffffff1916148061089e575061089d82611a13565b5b9050919050565b6060600080546108b4906136ff565b80601f01602080910402602001604051908101604052809291908181526020018280546108e0906136ff565b801561092d5780601f106109025761010080835404028352916020019161092d565b820191906000526020600020905b81548152906001019060200180831161091057829003601f168201915b5050505050905090565b600061094282611af5565b6004600083815260200190815260200160002060009054906101000a900473ffffffffffffffffffffffffffffffffffffffff169050919050565b600061098882610db6565b90508073ffffffffffffffffffffffffffffffffffffffff168373ffffffffffffffffffffffffffffffffffffffff1614156109f9576040517f08c379a00000000000000000000000000000000000000000000000000000000081526004016109f0906137a3565b60405180910390fd5b8073ffffffffffffffffffffffffffffffffffffffff16610a18611b40565b73ffffffffffffffffffffffffffffffffffffffff161480610a475750610a4681610a41611b40565b6118a2565b5b610a86576040517f08c379a0000000000000000000000000000000000000000000000000000000008152600401610a7d90613835565b60405180910390fd5b610a908383611b48565b505050565b6000600880549050905090565b610ab3610aad611b40565b82611c01565b610af2576040517f08c379a0000000000000000000000000000000000000000000000000000000008152600401610ae9906138c7565b60405180910390fd5b610afd838383611c96565b505050565b6060600f60008381526020019081526020016000208054610b22906136ff565b80601f0160208091040260200160405190810160405280929190818152602001828054610b4e906136ff565b8015610b9b5780601f10610b7057610100808354040283529160200191610b9b565b820191906000526020600020905b815481529060010190602001808311610b7e57829003601f168201915b50505050509050919050565b6000610bb283610f91565b8210610bf3576040517f08c379a0000000000000000000000000000000000000000000000000000000008152600401610bea90613959565b60405180910390fd5b600660008473ffffffffffffffffffffffffffffffffffffffff1673ffffffffffffffffffffffffffffffffffffffff168152602001908152602001600020600083815260200190815260200160002054905092915050565b610c54611f90565b80601060008481526020019081526020016000209080519060200190610c7b929190612dfe565b505050565b610c9b83838360405180602001604052806000815250611385565b505050565b6060601060008381526020019081526020016000208054610cc0906136ff565b80601f0160208091040260200160405190810160405280929190818152602001828054610cec906136ff565b8015610d395780601f10610d0e57610100808354040283529160200191610d39565b820191906000526020600020905b815481529060010190602001808311610d1c57829003601f168201915b50505050509050919050565b6000610d4f610a95565b8210610d90576040517f08c379a0000000000000000000000000000000000000000000000000000000008152600401610d87906139eb565b60405180910390fd5b60088281548110610da457610da3613a0b565b5b90600052602060002001549050919050565b600080610dc28361200e565b9050600073ffffffffffffffffffffffffffffffffffffffff168173ffffffffffffffffffffffffffffffffffffffff161415610e34576040517f08c379a0000000000000000000000000000000000000000000000000000000008152600401610e2b90613a86565b60405180910390fd5b80915050919050565b6000600b54905090565b3373ffffffffffffffffffffffffffffffffffffffff16610e6782610db6565b73ffffffffffffffffffffffffffffffffffffffff1614610ebd576040517f08c379a0000000000000000000000000000000000000000000000000000000008152600401610eb490613af2565b60405180910390fd5b6012600082815260200190815260200160002060009054906101000a900460ff1615610f1e576040517f08c379a0000000000000000000000000000000000000000000000000000000008152600401610f1590613b5e565b60405180910390fd5b60016012600083815260200190815260200160002060006101000a81548160ff021916908315150217905550803373ffffffffffffffffffffffffffffffffffffffff167f0cda5cf38f6592672c7b4a22ff3d50874d1913629bd5ffedc27b7b40503d60fd60405160405180910390a350565b60008073ffffffffffffffffffffffffffffffffffffffff168273ffffffffffffffffffffffffffffffffffffffff161415611002576040517f08c379a0000000000000000000000000000000000000000000000000000000008152600401610ff990613bf0565b60405180910390fd5b600360008373ffffffffffffffffffffffffffffffffffffffff1673ffffffffffffffffffffffffffffffffffffffff168152602001908152602001600020549050919050565b611051611f90565b61105b600061204b565b565b606060116000838152602001908152602001600020805461107d906136ff565b80601f01602080910402602001604051908101604052809291908181526020018280546110a9906136ff565b80156110f65780601f106110cb576101008083540402835291602001916110f6565b820191906000526020600020905b8154815290600101906020018083116110d957829003601f168201915b50505050509050919050565b600d54341015611147576040517f08c379a000000000000000000000000000000000000000000000000000000000815260040161113e90613c5c565b60405180910390fd5b80600c60006101000a81548160ff02191690831515021790555084600e6000600b5481526020019081526020016000208190555083600f6000600b54815260200190815260200160002090805190602001906111a4929190612dfe565b508260106000600b54815260200190815260200160002090805190602001906111ce929190612dfe565b508160116000600b54815260200190815260200160002090805190602001906111f8929190612dfe565b5061120533600b54612111565b6001600b546112149190613cab565b600b81905550600b547f882d3b5a729a8bb95cf6c0083c99b42ecd9637123d4425bd7b768877fd8af8b08660405161124c91906136b5565b60405180910390a25050505050565b6000600a60009054906101000a900473ffffffffffffffffffffffffffffffffffffffff16905090565b61128d611f90565b80600e6000848152602001908152602001600020819055505050565b6060600180546112b8906136ff565b80601f01602080910402602001604051908101604052809291908181526020018280546112e4906136ff565b80156113315780601f1061130657610100808354040283529160200191611331565b820191906000526020600020905b81548152906001019060200180831161131457829003601f168201915b5050505050905090565b61134d611346611b40565b838361212f565b5050565b611359611f90565b80601160008481526020019081526020016000209080519060200190611380929190612dfe565b505050565b611396611390611b40565b83611c01565b6113d5576040517f08c379a00000000000000000000000000000000000000000000000000000000081526004016113cc906138c7565b60405180910390fd5b6113e18484848461229c565b50505050565b3373ffffffffffffffffffffffffffffffffffffffff1661140782610db6565b73ffffffffffffffffffffffffffffffffffffffff161461145d576040517f08c379a000000000000000000000000000000000000000000000000000000000815260040161145490613d73565b60405180910390fd5b6012600082815260200190815260200160002060009054906101000a900460ff166114bd576040517f08c379a00000000000000000000000000000000000000000000000000000000081526004016114b490613ddf565b60405180910390fd5b60006012600083815260200190815260200160002060006101000a81548160ff021916908315150217905550803373ffffffffffffffffffffffffffffffffffffffff167f963148346e3c93bb3eb4b4c296e2e13321ff22bf1118c91686cb1bfe4adcd91860405160405180910390a350565b606061153b826122f8565b611571576040517f6df5edae00000000000000000000000000000000000000000000000000000000815260040160405180910390fd5b6000600f60008481526020019081526020016000208054611591906136ff565b80601f01602080910402602001604051908101604052809291908181526020018280546115bd906136ff565b801561160a5780601f106115df5761010080835404028352916020019161160a565b820191906000526020600020905b8154815290600101906020018083116115ed57829003601f168201915b505050505090506000601060008581526020019081526020016000208054611631906136ff565b80601f016020809104026020016040519081016040528092919081815260200182805461165d906136ff565b80156116aa5780601f1061167f576101008083540402835291602001916116aa565b820191906000526020600020905b81548152906001019060200180831161168d57829003601f168201915b5050505050905060006011600086815260200190815260200160002080546116d1906136ff565b80601f01602080910402602001604051908101604052809291908181526020018280546116fd906136ff565b801561174a5780601f1061171f5761010080835404028352916020019161174a565b820191906000526020600020905b81548152906001019060200180831161172d57829003601f168201915b5050505050905060006012600087815260200190815260200160002060009054906101000a900460ff16905061177e612339565b61182b6117896108a5565b858588866117cc576040518060400160405280600581526020017f66616c7365000000000000000000000000000000000000000000000000000000815250611803565b6040518060400160405280600481526020017f74727565000000000000000000000000000000000000000000000000000000008152505b60405160200161181795949392919061404f565b604051602081830303815290604052612376565b60405160200161183c9291906140e7565b604051602081830303815290604052945050505050919050565b61185e611f90565b6000611869836119f6565b9050600181141561189d5781600f6000858152602001908152602001600020908051906020019061189b929190612dfe565b505b505050565b6000600560008473ffffffffffffffffffffffffffffffffffffffff1673ffffffffffffffffffffffffffffffffffffffff16815260200190815260200160002060008373ffffffffffffffffffffffffffffffffffffffff1673ffffffffffffffffffffffffffffffffffffffff16815260200190815260200160002060009054906101000a900460ff16905092915050565b61193e611f90565b80600d8190555050565b611950611f90565b600073ffffffffffffffffffffffffffffffffffffffff168173ffffffffffffffffffffffffffffffffffffffff1614156119c0576040517f08c379a00000000000000000000000000000000000000000000000000000000081526004016119b79061417d565b60405180910390fd5b6119c98161204b565b50565b60006012600083815260200190815260200160002060009054906101000a900460ff169050919050565b6000600e6000838152602001908152602001600020549050919050565b60007f80ac58cd000000000000000000000000000000000000000000000000000000007bffffffffffffffffffffffffffffffffffffffffffffffffffffffff1916827bffffffffffffffffffffffffffffffffffffffffffffffffffffffff19161480611ade57507f5b5e139f000000000000000000000000000000000000000000000000000000007bffffffffffffffffffffffffffffffffffffffffffffffffffffffff1916827bffffffffffffffffffffffffffffffffffffffffffffffffffffffff1916145b80611aee5750611aed826124ef565b5b9050919050565b611afe816122f8565b611b3d576040517f08c379a0000000000000000000000000000000000000000000000000000000008152600401611b3490613a86565b60405180910390fd5b50565b600033905090565b816004600083815260200190815260200160002060006101000a81548173ffffffffffffffffffffffffffffffffffffffff021916908373ffffffffffffffffffffffffffffffffffffffff160217905550808273ffffffffffffffffffffffffffffffffffffffff16611bbb83610db6565b73ffffffffffffffffffffffffffffffffffffffff167f8c5be1e5ebec7d5bd14f71427d1e84f3dd0314c0f7b2291e5b200ac8c7c3b92560405160405180910390a45050565b600080611c0d83610db6565b90508073ffffffffffffffffffffffffffffffffffffffff168473ffffffffffffffffffffffffffffffffffffffff161480611c4f5750611c4e81856118a2565b5b80611c8d57508373ffffffffffffffffffffffffffffffffffffffff16611c7584610937565b73ffffffffffffffffffffffffffffffffffffffff16145b91505092915050565b8273ffffffffffffffffffffffffffffffffffffffff16611cb682610db6565b73ffffffffffffffffffffffffffffffffffffffff1614611d0c576040517f08c379a0000000000000000000000000000000000000000000000000000000008152600401611d039061420f565b60405180910390fd5b600073ffffffffffffffffffffffffffffffffffffffff168273ffffffffffffffffffffffffffffffffffffffff161415611d7c576040517f08c379a0000000000000000000000000000000000000000000000000000000008152600401611d73906142a1565b60405180910390fd5b611d898383836001612559565b8273ffffffffffffffffffffffffffffffffffffffff16611da982610db6565b73ffffffffffffffffffffffffffffffffffffffff1614611dff576040517f08c379a0000000000000000000000000000000000000000000000000000000008152600401611df69061420f565b60405180910390fd5b6004600082815260200190815260200160002060006101000a81549073ffffffffffffffffffffffffffffffffffffffff02191690556001600360008573ffffffffffffffffffffffffffffffffffffffff1673ffffffffffffffffffffffffffffffffffffffff168152602001908152602001600020600082825403925050819055506001600360008473ffffffffffffffffffffffffffffffffffffffff1673ffffffffffffffffffffffffffffffffffffffff16815260200190815260200160002060008282540192505081905550816002600083815260200190815260200160002060006101000a81548173ffffffffffffffffffffffffffffffffffffffff021916908373ffffffffffffffffffffffffffffffffffffffff160217905550808273ffffffffffffffffffffffffffffffffffffffff168473ffffffffffffffffffffffffffffffffffffffff167fddf252ad1be2c89b69c2b068fc378daa952ba7f163c4a11628f55a4df523b3ef60405160405180910390a4611f8b83838360016126b9565b505050565b611f98611b40565b73ffffffffffffffffffffffffffffffffffffffff16611fb661125b565b73ffffffffffffffffffffffffffffffffffffffff161461200c576040517f08c379a00000000000000000000000000000000000000000000000000000000081526004016120039061430d565b60405180910390fd5b565b60006002600083815260200190815260200160002060009054906101000a900473ffffffffffffffffffffffffffffffffffffffff169050919050565b6000600a60009054906101000a900473ffffffffffffffffffffffffffffffffffffffff16905081600a60006101000a81548173ffffffffffffffffffffffffffffffffffffffff021916908373ffffffffffffffffffffffffffffffffffffffff1602179055508173ffffffffffffffffffffffffffffffffffffffff168173ffffffffffffffffffffffffffffffffffffffff167f8be0079c531659141344cd1fd0a4f28419497f9722a3daafe3b4186f6b6457e060405160405180910390a35050565b61212b8282604051806020016040528060008152506126bf565b5050565b8173ffffffffffffffffffffffffffffffffffffffff168373ffffffffffffffffffffffffffffffffffffffff16141561219e576040517f08c379a000000000000000000000000000000000000000000000000000000000815260040161219590614379565b60405180910390fd5b80600560008573ffffffffffffffffffffffffffffffffffffffff1673ffffffffffffffffffffffffffffffffffffffff16815260200190815260200160002060008473ffffffffffffffffffffffffffffffffffffffff1673ffffffffffffffffffffffffffffffffffffffff16815260200190815260200160002060006101000a81548160ff0219169083151502179055508173ffffffffffffffffffffffffffffffffffffffff168373ffffffffffffffffffffffffffffffffffffffff167f17307eab39ab6107e8899845ad3d59bd9653f200f220920489ca2b5937696c318360405161228f9190612f55565b60405180910390a3505050565b6122a7848484611c96565b6122b38484848461271a565b6122f2576040517f08c379a00000000000000000000000000000000000000000000000000000000081526004016122e99061440b565b60405180910390fd5b50505050565b60008073ffffffffffffffffffffffffffffffffffffffff1661231a8361200e565b73ffffffffffffffffffffffffffffffffffffffff1614159050919050565b60606040518060400160405280601d81526020017f646174613a6170706c69636174696f6e2f6a736f6e3b6261736536342c000000815250905090565b6060600082511415612399576040518060200160405280600081525090506124ea565b600060405180606001604052806040815260200161479660409139905060006003600285516123c89190613cab565b6123d2919061445a565b60046123de919061448b565b905060006020826123ef9190613cab565b67ffffffffffffffff811115612408576124076131dd565b5b6040519080825280601f01601f19166020018201604052801561243a5781602001600182028036833780820191505090505b509050818152600183018586518101602084015b818310156124a9576003830192508251603f8160121c168501518253600182019150603f81600c1c168501518253600182019150603f8160061c168501518253600182019150603f811685015182536001820191505061244e565b6003895106600181146124c357600281146124d3576124de565b613d3d60f01b60028303526124de565b603d60f81b60018303525b50505050508093505050505b919050565b60007f01ffc9a7000000000000000000000000000000000000000000000000000000007bffffffffffffffffffffffffffffffffffffffffffffffffffffffff1916827bffffffffffffffffffffffffffffffffffffffffffffffffffffffff1916149050919050565b612565848484846128b1565b60018111156125a9576040517f08c379a00000000000000000000000000000000000000000000000000000000081526004016125a090614557565b60405180910390fd5b6000829050600073ffffffffffffffffffffffffffffffffffffffff168573ffffffffffffffffffffffffffffffffffffffff1614156125f1576125ec816128b7565b612630565b8373ffffffffffffffffffffffffffffffffffffffff168573ffffffffffffffffffffffffffffffffffffffff161461262f5761262e8582612900565b5b5b600073ffffffffffffffffffffffffffffffffffffffff168473ffffffffffffffffffffffffffffffffffffffff1614156126735761266e81612a6d565b6126b2565b8473ffffffffffffffffffffffffffffffffffffffff168473ffffffffffffffffffffffffffffffffffffffff16146126b1576126b08482612b3e565b5b5b5050505050565b50505050565b6126c98383612bbd565b6126d6600084848461271a565b612715576040517f08c379a000000000000000000000000000000000000000000000000000000000815260040161270c9061440b565b60405180910390fd5b505050565b600061273b8473ffffffffffffffffffffffffffffffffffffffff16612ddb565b156128a4578373ffffffffffffffffffffffffffffffffffffffff1663150b7a02612764611b40565b8786866040518563ffffffff1660e01b815260040161278694939291906145cc565b602060405180830381600087803b1580156127a057600080fd5b505af19250505080156127d157506040513d601f19601f820116820180604052508101906127ce919061462d565b60015b612854573d8060008114612801576040519150601f19603f3d011682016040523d82523d6000602084013e612806565b606091505b5060008151141561284c576040517f08c379a00000000000000000000000000000000000000000000000000000000081526004016128439061440b565b60405180910390fd5b805181602001fd5b63150b7a0260e01b7bffffffffffffffffffffffffffffffffffffffffffffffffffffffff1916817bffffffffffffffffffffffffffffffffffffffffffffffffffffffff1916149150506128a9565b600190505b949350505050565b50505050565b6008805490506009600083815260200190815260200160002081905550600881908060018154018082558091505060019003906000526020600020016000909190919091505550565b6000600161290d84610f91565b612917919061465a565b90506000600760008481526020019081526020016000205490508181146129fc576000600660008673ffffffffffffffffffffffffffffffffffffffff1673ffffffffffffffffffffffffffffffffffffffff168152602001908152602001600020600084815260200190815260200160002054905080600660008773ffffffffffffffffffffffffffffffffffffffff1673ffffffffffffffffffffffffffffffffffffffff168152602001908152602001600020600084815260200190815260200160002081905550816007600083815260200190815260200160002081905550505b6007600084815260200190815260200160002060009055600660008573ffffffffffffffffffffffffffffffffffffffff1673ffffffffffffffffffffffffffffffffffffffff16815260200190815260200160002060008381526020019081526020016000206000905550505050565b60006001600880549050612a81919061465a565b9050600060096000848152602001908152602001600020549050600060088381548110612ab157612ab0613a0b565b5b906000526020600020015490508060088381548110612ad357612ad2613a0b565b5b906000526020600020018190555081600960008381526020019081526020016000208190555060096000858152602001908152602001600020600090556008805480612b2257612b2161468e565b5b6001900381819060005260206000200160009055905550505050565b6000612b4983610f91565b905081600660008573ffffffffffffffffffffffffffffffffffffffff1673ffffffffffffffffffffffffffffffffffffffff168152602001908152602001600020600083815260200190815260200160002081905550806007600084815260200190815260200160002081905550505050565b600073ffffffffffffffffffffffffffffffffffffffff168273ffffffffffffffffffffffffffffffffffffffff161415612c2d576040517f08c379a0000000000000000000000000000000000000000000000000000000008152600401612c2490614709565b60405180910390fd5b612c36816122f8565b15612c76576040517f08c379a0000000000000000000000000000000000000000000000000000000008152600401612c6d90614775565b60405180910390fd5b612c84600083836001612559565b612c8d816122f8565b15612ccd576040517f08c379a0000000000000000000000000000000000000000000000000000000008152600401612cc490614775565b60405180910390fd5b6001600360008473ffffffffffffffffffffffffffffffffffffffff1673ffffffffffffffffffffffffffffffffffffffff16815260200190815260200160002060008282540192505081905550816002600083815260200190815260200160002060006101000a81548173ffffffffffffffffffffffffffffffffffffffff021916908373ffffffffffffffffffffffffffffffffffffffff160217905550808273ffffffffffffffffffffffffffffffffffffffff16600073ffffffffffffffffffffffffffffffffffffffff167fddf252ad1be2c89b69c2b068fc378daa952ba7f163c4a11628f55a4df523b3ef60405160405180910390a4612dd76000838360016126b9565b5050565b6000808273ffffffffffffffffffffffffffffffffffffffff163b119050919050565b828054612e0a906136ff565b90600052602060002090601f016020900481019282612e2c5760008555612e73565b82601f10612e4557805160ff1916838001178555612e73565b82800160010185558215612e73579182015b82811115612e72578251825591602001919060010190612e57565b5b509050612e809190612e84565b5090565b5b80821115612e9d576000816000905550600101612e85565b5090565b6000604051905090565b600080fd5b600080fd5b60007fffffffff0000000000000000000000000000000000000000000000000000000082169050919050565b612eea81612eb5565b8114612ef557600080fd5b50565b600081359050612f0781612ee1565b92915050565b600060208284031215612f2357612f22612eab565b5b6000612f3184828501612ef8565b91505092915050565b60008115159050919050565b612f4f81612f3a565b82525050565b6000602082019050612f6a6000830184612f46565b92915050565b600081519050919050565b600082825260208201905092915050565b60005b83811015612faa578082015181840152602081019050612f8f565b83811115612fb9576000848401525b50505050565b6000601f19601f8301169050919050565b6000612fdb82612f70565b612fe58185612f7b565b9350612ff5818560208601612f8c565b612ffe81612fbf565b840191505092915050565b600060208201905081810360008301526130238184612fd0565b905092915050565b6000819050919050565b61303e8161302b565b811461304957600080fd5b50565b60008135905061305b81613035565b92915050565b60006020828403121561307757613076612eab565b5b60006130858482850161304c565b91505092915050565b600073ffffffffffffffffffffffffffffffffffffffff82169050919050565b60006130b98261308e565b9050919050565b6130c9816130ae565b82525050565b60006020820190506130e460008301846130c0565b92915050565b6130f3816130ae565b81146130fe57600080fd5b50565b600081359050613110816130ea565b92915050565b6000806040838503121561312d5761312c612eab565b5b600061313b85828601613101565b925050602061314c8582860161304c565b9150509250929050565b61315f8161302b565b82525050565b600060208201905061317a6000830184613156565b92915050565b60008060006060848603121561319957613198612eab565b5b60006131a786828701613101565b93505060206131b886828701613101565b92505060406131c98682870161304c565b9150509250925092565b600080fd5b600080fd5b7f4e487b7100000000000000000000000000000000000000000000000000000000600052604160045260246000fd5b61321582612fbf565b810181811067ffffffffffffffff82111715613234576132336131dd565b5b80604052505050565b6000613247612ea1565b9050613253828261320c565b919050565b600067ffffffffffffffff821115613273576132726131dd565b5b61327c82612fbf565b9050602081019050919050565b82818337600083830152505050565b60006132ab6132a684613258565b61323d565b9050828152602081018484840111156132c7576132c66131d8565b5b6132d2848285613289565b509392505050565b600082601f8301126132ef576132ee6131d3565b5b81356132ff848260208601613298565b91505092915050565b6000806040838503121561331f5761331e612eab565b5b600061332d8582860161304c565b925050602083013567ffffffffffffffff81111561334e5761334d612eb0565b5b61335a858286016132da565b9150509250929050565b60006020828403121561337a57613379612eab565b5b600061338884828501613101565b91505092915050565b6000819050919050565b6133a481613391565b81146133af57600080fd5b50565b6000813590506133c18161339b565b92915050565b6133d081612f3a565b81146133db57600080fd5b50565b6000813590506133ed816133c7565b92915050565b600080600080600060a0868803121561340f5761340e612eab565b5b600061341d888289016133b2565b955050602086013567ffffffffffffffff81111561343e5761343d612eb0565b5b61344a888289016132da565b945050604086013567ffffffffffffffff81111561346b5761346a612eb0565b5b613477888289016132da565b935050606086013567ffffffffffffffff81111561349857613497612eb0565b5b6134a4888289016132da565b92505060806134b5888289016133de565b9150509295509295909350565b600080604083850312156134d9576134d8612eab565b5b60006134e78582860161304c565b92505060206134f8858286016133b2565b9150509250929050565b6000806040838503121561351957613518612eab565b5b600061352785828601613101565b9250506020613538858286016133de565b9150509250929050565b600067ffffffffffffffff82111561355d5761355c6131dd565b5b61356682612fbf565b9050602081019050919050565b600061358661358184613542565b61323d565b9050828152602081018484840111156135a2576135a16131d8565b5b6135ad848285613289565b509392505050565b600082601f8301126135ca576135c96131d3565b5b81356135da848260208601613573565b91505092915050565b600080600080608085870312156135fd576135fc612eab565b5b600061360b87828801613101565b945050602061361c87828801613101565b935050604061362d8782880161304c565b925050606085013567ffffffffffffffff81111561364e5761364d612eb0565b5b61365a878288016135b5565b91505092959194509250565b6000806040838503121561367d5761367c612eab565b5b600061368b85828601613101565b925050602061369c85828601613101565b9150509250929050565b6136af81613391565b82525050565b60006020820190506136ca60008301846136a6565b92915050565b7f4e487b7100000000000000000000000000000000000000000000000000000000600052602260045260246000fd5b6000600282049050600182168061371757607f821691505b6020821081141561372b5761372a6136d0565b5b50919050565b7f4552433732313a20617070726f76616c20746f2063757272656e74206f776e6560008201527f7200000000000000000000000000000000000000000000000000000000000000602082015250565b600061378d602183612f7b565b915061379882613731565b604082019050919050565b600060208201905081810360008301526137bc81613780565b9050919050565b7f4552433732313a20617070726f76652063616c6c6572206973206e6f7420746f60008201527f6b656e206f776e6572206f7220617070726f76656420666f7220616c6c000000602082015250565b600061381f603d83612f7b565b915061382a826137c3565b604082019050919050565b6000602082019050818103600083015261384e81613812565b9050919050565b7f4552433732313a2063616c6c6572206973206e6f7420746f6b656e206f776e6560008201527f72206f7220617070726f76656400000000000000000000000000000000000000602082015250565b60006138b1602d83612f7b565b91506138bc82613855565b604082019050919050565b600060208201905081810360008301526138e0816138a4565b9050919050565b7f455243373231456e756d657261626c653a206f776e657220696e646578206f7560008201527f74206f6620626f756e6473000000000000000000000000000000000000000000602082015250565b6000613943602b83612f7b565b915061394e826138e7565b604082019050919050565b6000602082019050818103600083015261397281613936565b9050919050565b7f455243373231456e756d657261626c653a20676c6f62616c20696e646578206f60008201527f7574206f6620626f756e64730000000000000000000000000000000000000000602082015250565b60006139d5602c83612f7b565b91506139e082613979565b604082019050919050565b60006020820190508181036000830152613a04816139c8565b9050919050565b7f4e487b7100000000000000000000000000000000000000000000000000000000600052603260045260246000fd5b7f4552433732313a20696e76616c696420746f6b656e2049440000000000000000600082015250565b6000613a70601883612f7b565b9150613a7b82613a3a565b602082019050919050565b60006020820190508181036000830152613a9f81613a63565b9050919050565b7f4f6e6c7920746865206f776e65722063616e207374616b6520746865204e4654600082015250565b6000613adc602083612f7b565b9150613ae782613aa6565b602082019050919050565b60006020820190508181036000830152613b0b81613acf565b9050919050565b7f4e465420697320616c7265616479207374616b65640000000000000000000000600082015250565b6000613b48601583612f7b565b9150613b5382613b12565b602082019050919050565b60006020820190508181036000830152613b7781613b3b565b9050919050565b7f4552433732313a2061646472657373207a65726f206973206e6f74206120766160008201527f6c6964206f776e65720000000000000000000000000000000000000000000000602082015250565b6000613bda602983612f7b565b9150613be582613b7e565b604082019050919050565b60006020820190508181036000830152613c0981613bcd565b9050919050565b7f4d6f726520455448207265717569726564000000000000000000000000000000600082015250565b6000613c46601183612f7b565b9150613c5182613c10565b602082019050919050565b60006020820190508181036000830152613c7581613c39565b9050919050565b7f4e487b7100000000000000000000000000000000000000000000000000000000600052601160045260246000fd5b6000613cb68261302b565b9150613cc18361302b565b9250827fffffffffffffffffffffffffffffffffffffffffffffffffffffffffffffffff03821115613cf657613cf5613c7c565b5b828201905092915050565b7f4f6e6c7920746865206f776e65722063616e20756e7374616b6520746865204e60008201527f4654000000000000000000000000000000000000000000000000000000000000602082015250565b6000613d5d602283612f7b565b9150613d6882613d01565b604082019050919050565b60006020820190508181036000830152613d8c81613d50565b9050919050565b7f4e4654206973206e6f74207374616b6564000000000000000000000000000000600082015250565b6000613dc9601183612f7b565b9150613dd482613d93565b602082019050919050565b60006020820190508181036000830152613df881613dbc565b9050919050565b600081905092915050565b7f7b226e616d65223a220000000000000000000000000000000000000000000000600082015250565b6000613e40600983613dff565b9150613e4b82613e0a565b600982019050919050565b6000613e6182612f70565b613e6b8185613dff565b9350613e7b818560208601612f8c565b80840191505092915050565b7f222c20226465736372697074696f6e223a2251222c2000000000000000000000600082015250565b6000613ebd601683613dff565b9150613ec882613e87565b601682019050919050565b7f2261747472696275746573223a00000000000000000000000000000000000000600082015250565b6000613f09600d83613dff565b9150613f1482613ed3565b600d82019050919050565b7f2c22666974223a00000000000000000000000000000000000000000000000000600082015250565b6000613f55600783613dff565b9150613f6082613f1f565b600782019050919050565b7f2c22696d616765223a2200000000000000000000000000000000000000000000600082015250565b6000613fa1600a83613dff565b9150613fac82613f6b565b600a82019050919050565b7f222c227374616b6564223a220000000000000000000000000000000000000000600082015250565b6000613fed600c83613dff565b9150613ff882613fb7565b600c82019050919050565b7f227d000000000000000000000000000000000000000000000000000000000000600082015250565b6000614039600283613dff565b915061404482614003565b600282019050919050565b600061405a82613e33565b91506140668288613e56565b915061407182613eb0565b915061407c82613efc565b91506140888287613e56565b915061409382613f48565b915061409f8286613e56565b91506140aa82613f94565b91506140b68285613e56565b91506140c182613fe0565b91506140cd8284613e56565b91506140d88261402c565b91508190509695505050505050565b60006140f38285613e56565b91506140ff8284613e56565b91508190509392505050565b7f4f776e61626c653a206e6577206f776e657220697320746865207a65726f206160008201527f6464726573730000000000000000000000000000000000000000000000000000602082015250565b6000614167602683612f7b565b91506141728261410b565b604082019050919050565b600060208201905081810360008301526141968161415a565b9050919050565b7f4552433732313a207472616e736665722066726f6d20696e636f72726563742060008201527f6f776e6572000000000000000000000000000000000000000000000000000000602082015250565b60006141f9602583612f7b565b91506142048261419d565b604082019050919050565b60006020820190508181036000830152614228816141ec565b9050919050565b7f4552433732313a207472616e7366657220746f20746865207a65726f2061646460008201527f7265737300000000000000000000000000000000000000000000000000000000602082015250565b600061428b602483612f7b565b91506142968261422f565b604082019050919050565b600060208201905081810360008301526142ba8161427e565b9050919050565b7f4f776e61626c653a2063616c6c6572206973206e6f7420746865206f776e6572600082015250565b60006142f7602083612f7b565b9150614302826142c1565b602082019050919050565b60006020820190508181036000830152614326816142ea565b9050919050565b7f4552433732313a20617070726f766520746f2063616c6c657200000000000000600082015250565b6000614363601983612f7b565b915061436e8261432d565b602082019050919050565b6000602082019050818103600083015261439281614356565b9050919050565b7f4552433732313a207472616e7366657220746f206e6f6e20455243373231526560008201527f63656976657220696d706c656d656e7465720000000000000000000000000000602082015250565b60006143f5603283612f7b565b915061440082614399565b604082019050919050565b60006020820190508181036000830152614424816143e8565b9050919050565b7f4e487b7100000000000000000000000000000000000000000000000000000000600052601260045260246000fd5b60006144658261302b565b91506144708361302b565b9250826144805761447f61442b565b5b828204905092915050565b60006144968261302b565b91506144a18361302b565b9250817fffffffffffffffffffffffffffffffffffffffffffffffffffffffffffffffff04831182151516156144da576144d9613c7c565b5b828202905092915050565b7f455243373231456e756d657261626c653a20636f6e736563757469766520747260008201527f616e7366657273206e6f7420737570706f727465640000000000000000000000602082015250565b6000614541603583612f7b565b915061454c826144e5565b604082019050919050565b6000602082019050818103600083015261457081614534565b9050919050565b600081519050919050565b600082825260208201905092915050565b600061459e82614577565b6145a88185614582565b93506145b8818560208601612f8c565b6145c181612fbf565b840191505092915050565b60006080820190506145e160008301876130c0565b6145ee60208301866130c0565b6145fb6040830185613156565b818103606083015261460d8184614593565b905095945050505050565b60008151905061462781612ee1565b92915050565b60006020828403121561464357614642612eab565b5b600061465184828501614618565b91505092915050565b60006146658261302b565b91506146708361302b565b92508282101561468357614682613c7c565b5b828203905092915050565b7f4e487b7100000000000000000000000000000000000000000000000000000000600052603160045260246000fd5b7f4552433732313a206d696e7420746f20746865207a65726f2061646472657373600082015250565b60006146f3602083612f7b565b91506146fe826146bd565b602082019050919050565b60006020820190508181036000830152614722816146e6565b9050919050565b7f4552433732313a20746f6b656e20616c7265616479206d696e74656400000000600082015250565b600061475f601c83612f7b565b915061476a82614729565b602082019050919050565b6000602082019050818103600083015261478e81614752565b905091905056fe4142434445464748494a4b4c4d4e4f505152535455565758595a6162636465666768696a6b6c6d6e6f707172737475767778797a303132333435363738392b2fa2646970667358221220c1edb14aff06bf89803e5d295c23a31eacc5ea27a7fa4290c980d11567a55e9964736f6c63430008080033",
  "devdoc": {
    "kind": "dev",
    "methods": {
      "approve(address,uint256)": {
        "details": "See {IERC721-approve}."
      },
      "balanceOf(address)": {
        "details": "See {IERC721-balanceOf}."
      },
      "getApproved(uint256)": {
        "details": "See {IERC721-getApproved}."
      },
      "isApprovedForAll(address,address)": {
        "details": "See {IERC721-isApprovedForAll}."
      },
      "name()": {
        "details": "See {IERC721Metadata-name}."
      },
      "owner()": {
        "details": "Returns the address of the current owner."
      },
      "ownerOf(uint256)": {
        "details": "See {IERC721-ownerOf}."
      },
      "renounceOwnership()": {
        "details": "Leaves the contract without owner. It will not be possible to call `onlyOwner` functions anymore. Can only be called by the current owner. NOTE: Renouncing ownership will leave the contract without an owner, thereby removing any functionality that is only available to the owner."
      },
      "safeTransferFrom(address,address,uint256)": {
        "details": "See {IERC721-safeTransferFrom}."
      },
      "safeTransferFrom(address,address,uint256,bytes)": {
        "details": "See {IERC721-safeTransferFrom}."
      },
      "setApprovalForAll(address,bool)": {
        "details": "See {IERC721-setApprovalForAll}."
      },
      "supportsInterface(bytes4)": {
        "details": "See {IERC165-supportsInterface}."
      },
      "symbol()": {
        "details": "See {IERC721Metadata-symbol}."
      },
      "tokenByIndex(uint256)": {
        "details": "See {IERC721Enumerable-tokenByIndex}."
      },
      "tokenOfOwnerByIndex(address,uint256)": {
        "details": "See {IERC721Enumerable-tokenOfOwnerByIndex}."
      },
      "tokenURI(uint256)": {
        "details": "See {IERC721Metadata-tokenURI}."
      },
      "totalSupply()": {
        "details": "See {IERC721Enumerable-totalSupply}."
      },
      "transferFrom(address,address,uint256)": {
        "details": "See {IERC721-transferFrom}."
      },
      "transferOwnership(address)": {
        "details": "Transfers ownership of the contract to a new account (`newOwner`). Can only be called by the current owner."
      }
    },
    "version": 1
  },
  "userdoc": {
    "kind": "user",
    "methods": {},
    "version": 1
  },
  "storageLayout": {
    "storage": [
      {
        "astId": 138,
        "contract": "contracts/DynamicPngNft.sol:DynamicPngNft",
        "label": "_name",
        "offset": 0,
        "slot": "0",
        "type": "t_string_storage"
      },
      {
        "astId": 140,
        "contract": "contracts/DynamicPngNft.sol:DynamicPngNft",
        "label": "_symbol",
        "offset": 0,
        "slot": "1",
        "type": "t_string_storage"
      },
      {
        "astId": 144,
        "contract": "contracts/DynamicPngNft.sol:DynamicPngNft",
        "label": "_owners",
        "offset": 0,
        "slot": "2",
        "type": "t_mapping(t_uint256,t_address)"
      },
      {
        "astId": 148,
        "contract": "contracts/DynamicPngNft.sol:DynamicPngNft",
        "label": "_balances",
        "offset": 0,
        "slot": "3",
        "type": "t_mapping(t_address,t_uint256)"
      },
      {
        "astId": 152,
        "contract": "contracts/DynamicPngNft.sol:DynamicPngNft",
        "label": "_tokenApprovals",
        "offset": 0,
        "slot": "4",
        "type": "t_mapping(t_uint256,t_address)"
      },
      {
        "astId": 158,
        "contract": "contracts/DynamicPngNft.sol:DynamicPngNft",
        "label": "_operatorApprovals",
        "offset": 0,
        "slot": "5",
        "type": "t_mapping(t_address,t_mapping(t_address,t_bool))"
      },
      {
        "astId": 1188,
        "contract": "contracts/DynamicPngNft.sol:DynamicPngNft",
        "label": "_ownedTokens",
        "offset": 0,
        "slot": "6",
        "type": "t_mapping(t_address,t_mapping(t_uint256,t_uint256))"
      },
      {
        "astId": 1192,
        "contract": "contracts/DynamicPngNft.sol:DynamicPngNft",
        "label": "_ownedTokensIndex",
        "offset": 0,
        "slot": "7",
        "type": "t_mapping(t_uint256,t_uint256)"
      },
      {
        "astId": 1195,
        "contract": "contracts/DynamicPngNft.sol:DynamicPngNft",
        "label": "_allTokens",
        "offset": 0,
        "slot": "8",
        "type": "t_array(t_uint256)dyn_storage"
      },
      {
        "astId": 1199,
        "contract": "contracts/DynamicPngNft.sol:DynamicPngNft",
        "label": "_allTokensIndex",
        "offset": 0,
        "slot": "9",
        "type": "t_mapping(t_uint256,t_uint256)"
      },
      {
        "astId": 7,
        "contract": "contracts/DynamicPngNft.sol:DynamicPngNft",
        "label": "_owner",
        "offset": 0,
        "slot": "10",
        "type": "t_address"
      },
      {
        "astId": 3142,
        "contract": "contracts/DynamicPngNft.sol:DynamicPngNft",
        "label": "s_tokenCounter",
        "offset": 0,
        "slot": "11",
        "type": "t_uint256"
      },
      {
        "astId": 3144,
        "contract": "contracts/DynamicPngNft.sol:DynamicPngNft",
        "label": "s_isQR",
        "offset": 0,
        "slot": "12",
        "type": "t_bool"
      },
      {
        "astId": 3146,
        "contract": "contracts/DynamicPngNft.sol:DynamicPngNft",
        "label": "s_mintFee",
        "offset": 0,
        "slot": "13",
        "type": "t_uint256"
      },
      {
        "astId": 3150,
        "contract": "contracts/DynamicPngNft.sol:DynamicPngNft",
        "label": "s_tokenIdToMembershipStatus",
        "offset": 0,
        "slot": "14",
        "type": "t_mapping(t_uint256,t_int256)"
      },
      {
        "astId": 3154,
        "contract": "contracts/DynamicPngNft.sol:DynamicPngNft",
        "label": "s_tokenIdToImageURL",
        "offset": 0,
        "slot": "15",
        "type": "t_mapping(t_uint256,t_string_storage)"
      },
      {
        "astId": 3158,
        "contract": "contracts/DynamicPngNft.sol:DynamicPngNft",
        "label": "s_tokenIdToAttributes",
        "offset": 0,
        "slot": "16",
        "type": "t_mapping(t_uint256,t_string_storage)"
      },
      {
        "astId": 3162,
        "contract": "contracts/DynamicPngNft.sol:DynamicPngNft",
        "label": "s_tokenIdToFit",
        "offset": 0,
        "slot": "17",
        "type": "t_mapping(t_uint256,t_string_storage)"
      },
      {
        "astId": 3166,
        "contract": "contracts/DynamicPngNft.sol:DynamicPngNft",
        "label": "s_tokenIdToStaked",
        "offset": 0,
        "slot": "18",
        "type": "t_mapping(t_uint256,t_bool)"
      }
    ],
    "types": {
      "t_address": {
        "encoding": "inplace",
        "label": "address",
        "numberOfBytes": "20"
      },
      "t_array(t_uint256)dyn_storage": {
        "base": "t_uint256",
        "encoding": "dynamic_array",
        "label": "uint256[]",
        "numberOfBytes": "32"
      },
      "t_bool": {
        "encoding": "inplace",
        "label": "bool",
        "numberOfBytes": "1"
      },
      "t_int256": {
        "encoding": "inplace",
        "label": "int256",
        "numberOfBytes": "32"
      },
      "t_mapping(t_address,t_bool)": {
        "encoding": "mapping",
        "key": "t_address",
        "label": "mapping(address => bool)",
        "numberOfBytes": "32",
        "value": "t_bool"
      },
      "t_mapping(t_address,t_mapping(t_address,t_bool))": {
        "encoding": "mapping",
        "key": "t_address",
        "label": "mapping(address => mapping(address => bool))",
        "numberOfBytes": "32",
        "value": "t_mapping(t_address,t_bool)"
      },
      "t_mapping(t_address,t_mapping(t_uint256,t_uint256))": {
        "encoding": "mapping",
        "key": "t_address",
        "label": "mapping(address => mapping(uint256 => uint256))",
        "numberOfBytes": "32",
        "value": "t_mapping(t_uint256,t_uint256)"
      },
      "t_mapping(t_address,t_uint256)": {
        "encoding": "mapping",
        "key": "t_address",
        "label": "mapping(address => uint256)",
        "numberOfBytes": "32",
        "value": "t_uint256"
      },
      "t_mapping(t_uint256,t_address)": {
        "encoding": "mapping",
        "key": "t_uint256",
        "label": "mapping(uint256 => address)",
        "numberOfBytes": "32",
        "value": "t_address"
      },
      "t_mapping(t_uint256,t_bool)": {
        "encoding": "mapping",
        "key": "t_uint256",
        "label": "mapping(uint256 => bool)",
        "numberOfBytes": "32",
        "value": "t_bool"
      },
      "t_mapping(t_uint256,t_int256)": {
        "encoding": "mapping",
        "key": "t_uint256",
        "label": "mapping(uint256 => int256)",
        "numberOfBytes": "32",
        "value": "t_int256"
      },
      "t_mapping(t_uint256,t_string_storage)": {
        "encoding": "mapping",
        "key": "t_uint256",
        "label": "mapping(uint256 => string)",
        "numberOfBytes": "32",
        "value": "t_string_storage"
      },
      "t_mapping(t_uint256,t_uint256)": {
        "encoding": "mapping",
        "key": "t_uint256",
        "label": "mapping(uint256 => uint256)",
        "numberOfBytes": "32",
        "value": "t_uint256"
      },
      "t_string_storage": {
        "encoding": "bytes",
        "label": "string",
        "numberOfBytes": "32"
      },
      "t_uint256": {
        "encoding": "inplace",
        "label": "uint256",
        "numberOfBytes": "32"
      }
    }
  }
}