{
  "address": "0x5FbDB2315678afecb367f032d93F642f64180aa3",
  "abi": [
    {
      "inputs": [
        {
          "internalType": "uint256",
          "name": "mintFee",
          "type": "uint256"
        }
      ],
      "stateMutability": "nonpayable",
      "type": "constructor"
    },
    {
      "inputs": [],
      "name": "ERC721Metadata__URI_QueryFor_NonExistentToken",
      "type": "error"
    },
    {
      "anonymous": false,
      "inputs": [
        {
          "indexed": true,
          "internalType": "address",
          "name": "owner",
          "type": "address"
        },
        {
          "indexed": true,
          "internalType": "address",
          "name": "approved",
          "type": "address"
        },
        {
          "indexed": true,
          "internalType": "uint256",
          "name": "tokenId",
          "type": "uint256"
        }
      ],
      "name": "Approval",
      "type": "event"
    },
    {
      "anonymous": false,
      "inputs": [
        {
          "indexed": true,
          "internalType": "address",
          "name": "owner",
          "type": "address"
        },
        {
          "indexed": true,
          "internalType": "address",
          "name": "operator",
          "type": "address"
        },
        {
          "indexed": false,
          "internalType": "bool",
          "name": "approved",
          "type": "bool"
        }
      ],
      "name": "ApprovalForAll",
      "type": "event"
    },
    {
      "anonymous": false,
      "inputs": [
        {
          "indexed": true,
          "internalType": "uint256",
          "name": "tokenId",
          "type": "uint256"
        },
        {
          "indexed": false,
          "internalType": "int256",
          "name": "membership_status",
          "type": "int256"
        }
      ],
      "name": "CreatedNFT",
      "type": "event"
    },
    {
      "anonymous": false,
      "inputs": [
        {
          "indexed": true,
          "internalType": "address",
          "name": "staker",
          "type": "address"
        },
        {
          "indexed": true,
          "internalType": "uint256",
          "name": "tokenId",
          "type": "uint256"
        }
      ],
      "name": "NFTStaked",
      "type": "event"
    },
    {
      "anonymous": false,
      "inputs": [
        {
          "indexed": true,
          "internalType": "address",
          "name": "unstaker",
          "type": "address"
        },
        {
          "indexed": true,
          "internalType": "uint256",
          "name": "tokenId",
          "type": "uint256"
        }
      ],
      "name": "NFTUnstaked",
      "type": "event"
    },
    {
      "anonymous": false,
      "inputs": [
        {
          "indexed": true,
          "internalType": "address",
          "name": "previousOwner",
          "type": "address"
        },
        {
          "indexed": true,
          "internalType": "address",
          "name": "newOwner",
          "type": "address"
        }
      ],
      "name": "OwnershipTransferred",
      "type": "event"
    },
    {
      "anonymous": false,
      "inputs": [
        {
          "indexed": true,
          "internalType": "address",
          "name": "from",
          "type": "address"
        },
        {
          "indexed": true,
          "internalType": "address",
          "name": "to",
          "type": "address"
        },
        {
          "indexed": true,
          "internalType": "uint256",
          "name": "tokenId",
          "type": "uint256"
        }
      ],
      "name": "Transfer",
      "type": "event"
    },
    {
      "inputs": [
        {
          "internalType": "address",
          "name": "to",
          "type": "address"
        },
        {
          "internalType": "uint256",
          "name": "tokenId",
          "type": "uint256"
        }
      ],
      "name": "approve",
      "outputs": [],
      "stateMutability": "nonpayable",
      "type": "function"
    },
    {
      "inputs": [
        {
          "internalType": "address",
          "name": "owner",
          "type": "address"
        }
      ],
      "name": "balanceOf",
      "outputs": [
        {
          "internalType": "uint256",
          "name": "",
          "type": "uint256"
        }
      ],
      "stateMutability": "view",
      "type": "function"
    },
    {
      "inputs": [
        {
          "internalType": "uint256",
          "name": "tokenId",
          "type": "uint256"
        }
      ],
      "name": "getApproved",
      "outputs": [
        {
          "internalType": "address",
          "name": "",
          "type": "address"
        }
      ],
      "stateMutability": "view",
      "type": "function"
    },
    {
      "inputs": [
        {
          "internalType": "uint256",
          "name": "tokenId",
          "type": "uint256"
        }
      ],
      "name": "getAttributes",
      "outputs": [
        {
          "internalType": "string",
          "name": "",
          "type": "string"
        }
      ],
      "stateMutability": "view",
      "type": "function"
    },
    {
      "inputs": [
        {
          "internalType": "uint256",
          "name": "tokenId",
          "type": "uint256"
        }
      ],
      "name": "getFit",
      "outputs": [
        {
          "internalType": "string",
          "name": "",
          "type": "string"
        }
      ],
      "stateMutability": "view",
      "type": "function"
    },
    {
      "inputs": [
        {
          "internalType": "uint256",
          "name": "tokenId",
          "type": "uint256"
        }
      ],
      "name": "getImage",
      "outputs": [
        {
          "internalType": "string",
          "name": "",
          "type": "string"
        }
      ],
      "stateMutability": "view",
      "type": "function"
    },
    {
      "inputs": [
        {
          "internalType": "uint256",
          "name": "tokenId",
          "type": "uint256"
        }
      ],
      "name": "getMembershipStatus",
      "outputs": [
        {
          "internalType": "int256",
          "name": "",
          "type": "int256"
        }
      ],
      "stateMutability": "view",
      "type": "function"
    },
    {
      "inputs": [
        {
          "internalType": "uint256",
          "name": "tokenId",
          "type": "uint256"
        }
      ],
      "name": "getStaked",
      "outputs": [
        {
          "internalType": "bool",
          "name": "",
          "type": "bool"
        }
      ],
      "stateMutability": "view",
      "type": "function"
    },
    {
      "inputs": [],
      "name": "getTokenCounter",
      "outputs": [
        {
          "internalType": "uint256",
          "name": "",
          "type": "uint256"
        }
      ],
      "stateMutability": "view",
      "type": "function"
    },
    {
      "inputs": [
        {
          "internalType": "address",
          "name": "owner",
          "type": "address"
        },
        {
          "internalType": "address",
          "name": "operator",
          "type": "address"
        }
      ],
      "name": "isApprovedForAll",
      "outputs": [
        {
          "internalType": "bool",
          "name": "",
          "type": "bool"
        }
      ],
      "stateMutability": "view",
      "type": "function"
    },
    {
      "inputs": [
        {
          "internalType": "int256",
          "name": "membership_status",
          "type": "int256"
        },
        {
          "internalType": "string",
          "name": "imageURL",
          "type": "string"
        },
        {
          "internalType": "string",
          "name": "attributes",
          "type": "string"
        },
        {
          "internalType": "string",
          "name": "fit",
          "type": "string"
        },
        {
          "internalType": "bool",
          "name": "isQR",
          "type": "bool"
        }
      ],
      "name": "mintNft",
      "outputs": [],
      "stateMutability": "payable",
      "type": "function"
    },
    {
      "inputs": [],
      "name": "name",
      "outputs": [
        {
          "internalType": "string",
          "name": "",
          "type": "string"
        }
      ],
      "stateMutability": "view",
      "type": "function"
    },
    {
      "inputs": [],
      "name": "owner",
      "outputs": [
        {
          "internalType": "address",
          "name": "",
          "type": "address"
        }
      ],
      "stateMutability": "view",
      "type": "function"
    },
    {
      "inputs": [
        {
          "internalType": "uint256",
          "name": "tokenId",
          "type": "uint256"
        }
      ],
      "name": "ownerOf",
      "outputs": [
        {
          "internalType": "address",
          "name": "",
          "type": "address"
        }
      ],
      "stateMutability": "view",
      "type": "function"
    },
    {
      "inputs": [],
      "name": "renounceOwnership",
      "outputs": [],
      "stateMutability": "nonpayable",
      "type": "function"
    },
    {
      "inputs": [
        {
          "internalType": "address",
          "name": "from",
          "type": "address"
        },
        {
          "internalType": "address",
          "name": "to",
          "type": "address"
        },
        {
          "internalType": "uint256",
          "name": "tokenId",
          "type": "uint256"
        }
      ],
      "name": "safeTransferFrom",
      "outputs": [],
      "stateMutability": "nonpayable",
      "type": "function"
    },
    {
      "inputs": [
        {
          "internalType": "address",
          "name": "from",
          "type": "address"
        },
        {
          "internalType": "address",
          "name": "to",
          "type": "address"
        },
        {
          "internalType": "uint256",
          "name": "tokenId",
          "type": "uint256"
        },
        {
          "internalType": "bytes",
          "name": "data",
          "type": "bytes"
        }
      ],
      "name": "safeTransferFrom",
      "outputs": [],
      "stateMutability": "nonpayable",
      "type": "function"
    },
    {
      "inputs": [
        {
          "internalType": "address",
          "name": "operator",
          "type": "address"
        },
        {
          "internalType": "bool",
          "name": "approved",
          "type": "bool"
        }
      ],
      "name": "setApprovalForAll",
      "outputs": [],
      "stateMutability": "nonpayable",
      "type": "function"
    },
    {
      "inputs": [
        {
          "internalType": "uint256",
          "name": "tokenId",
          "type": "uint256"
        },
        {
          "internalType": "string",
          "name": "attributes",
          "type": "string"
        }
      ],
      "name": "setAttributes",
      "outputs": [],
      "stateMutability": "nonpayable",
      "type": "function"
    },
    {
      "inputs": [
        {
          "internalType": "uint256",
          "name": "tokenId",
          "type": "uint256"
        },
        {
          "internalType": "string",
          "name": "fit",
          "type": "string"
        }
      ],
      "name": "setFit",
      "outputs": [],
      "stateMutability": "nonpayable",
      "type": "function"
    },
    {
      "inputs": [
        {
          "internalType": "uint256",
          "name": "tokenId",
          "type": "uint256"
        },
        {
          "internalType": "string",
          "name": "image",
          "type": "string"
        }
      ],
      "name": "setImage",
      "outputs": [],
      "stateMutability": "nonpayable",
      "type": "function"
    },
    {
      "inputs": [
        {
          "internalType": "uint256",
          "name": "tokenId",
          "type": "uint256"
        },
        {
          "internalType": "int256",
          "name": "status",
          "type": "int256"
        }
      ],
      "name": "setMembership",
      "outputs": [],
      "stateMutability": "nonpayable",
      "type": "function"
    },
    {
      "inputs": [
        {
          "internalType": "uint256",
          "name": "mintFee",
          "type": "uint256"
        }
      ],
      "name": "setMintFee",
      "outputs": [],
      "stateMutability": "nonpayable",
      "type": "function"
    },
    {
      "inputs": [
        {
          "internalType": "uint256",
          "name": "tokenId",
          "type": "uint256"
        }
      ],
      "name": "stakeNFT",
      "outputs": [],
      "stateMutability": "nonpayable",
      "type": "function"
    },
    {
      "inputs": [
        {
          "internalType": "bytes4",
          "name": "interfaceId",
          "type": "bytes4"
        }
      ],
      "name": "supportsInterface",
      "outputs": [
        {
          "internalType": "bool",
          "name": "",
          "type": "bool"
        }
      ],
      "stateMutability": "view",
      "type": "function"
    },
    {
      "inputs": [],
      "name": "symbol",
      "outputs": [
        {
          "internalType": "string",
          "name": "",
          "type": "string"
        }
      ],
      "stateMutability": "view",
      "type": "function"
    },
    {
      "inputs": [
        {
          "internalType": "uint256",
          "name": "index",
          "type": "uint256"
        }
      ],
      "name": "tokenByIndex",
      "outputs": [
        {
          "internalType": "uint256",
          "name": "",
          "type": "uint256"
        }
      ],
      "stateMutability": "view",
      "type": "function"
    },
    {
      "inputs": [
        {
          "internalType": "address",
          "name": "owner",
          "type": "address"
        },
        {
          "internalType": "uint256",
          "name": "index",
          "type": "uint256"
        }
      ],
      "name": "tokenOfOwnerByIndex",
      "outputs": [
        {
          "internalType": "uint256",
          "name": "",
          "type": "uint256"
        }
      ],
      "stateMutability": "view",
      "type": "function"
    },
    {
      "inputs": [
        {
          "internalType": "uint256",
          "name": "tokenId",
          "type": "uint256"
        }
      ],
      "name": "tokenURI",
      "outputs": [
        {
          "internalType": "string",
          "name": "",
          "type": "string"
        }
      ],
      "stateMutability": "view",
      "type": "function"
    },
    {
      "inputs": [],
      "name": "totalSupply",
      "outputs": [
        {
          "internalType": "uint256",
          "name": "",
          "type": "uint256"
        }
      ],
      "stateMutability": "view",
      "type": "function"
    },
    {
      "inputs": [
        {
          "internalType": "address",
          "name": "from",
          "type": "address"
        },
        {
          "internalType": "address",
          "name": "to",
          "type": "address"
        },
        {
          "internalType": "uint256",
          "name": "tokenId",
          "type": "uint256"
        }
      ],
      "name": "transferFrom",
      "outputs": [],
      "stateMutability": "nonpayable",
      "type": "function"
    },
    {
      "inputs": [
        {
          "internalType": "address",
          "name": "newOwner",
          "type": "address"
        }
      ],
      "name": "transferOwnership",
      "outputs": [],
      "stateMutability": "nonpayable",
      "type": "function"
    },
    {
      "inputs": [
        {
          "internalType": "uint256",
          "name": "tokenId",
          "type": "uint256"
        }
      ],
      "name": "unstakeNFT",
      "outputs": [],
      "stateMutability": "nonpayable",
      "type": "function"
    }
  ],
  "transactionHash": "0x82de4d440e1aff44b829855eaf3650aaad97681a35eec9362565aa6793676027",
  "args": [
    "10000000000000000"
  ],
  "numDeployments": 1,
  "solcInputHash": "4c33be59c9c122c33207683c9e8d3d5b",
  "bytecode": "0x60806040523480156200001157600080fd5b5060405162004b8d38038062004b8d8339818101604052810190620000379190620002cb565b6040518060400160405280600f81526020017f44796e616d696320504e47204e465400000000000000000000000000000000008152506040518060400160405280600381526020017f44534e00000000000000000000000000000000000000000000000000000000008152508160009080519060200190620000bb929190620001db565b508060019080519060200190620000d4929190620001db565b505050620000f7620000eb6200010d60201b60201c565b6200011560201b60201c565b6000600b8190555080600d819055505062000362565b600033905090565b6000600a60009054906101000a900473ffffffffffffffffffffffffffffffffffffffff16905081600a60006101000a81548173ffffffffffffffffffffffffffffffffffffffff021916908373ffffffffffffffffffffffffffffffffffffffff1602179055508173ffffffffffffffffffffffffffffffffffffffff168173ffffffffffffffffffffffffffffffffffffffff167f8be0079c531659141344cd1fd0a4f28419497f9722a3daafe3b4186f6b6457e060405160405180910390a35050565b828054620001e9906200032c565b90600052602060002090601f0160209004810192826200020d576000855562000259565b82601f106200022857805160ff191683800117855562000259565b8280016001018555821562000259579182015b82811115620002585782518255916020019190600101906200023b565b5b5090506200026891906200026c565b5090565b5b80821115620002875760008160009055506001016200026d565b5090565b600080fd5b6000819050919050565b620002a58162000290565b8114620002b157600080fd5b50565b600081519050620002c5816200029a565b92915050565b600060208284031215620002e457620002e36200028b565b5b6000620002f484828501620002b4565b91505092915050565b7f4e487b7100000000000000000000000000000000000000000000000000000000600052602260045260246000fd5b600060028204905060018216806200034557607f821691505b602082108114156200035c576200035b620002fd565b5b50919050565b61481b80620003726000396000f3fe6080604052600436106101ee5760003560e01c8063715018a61161010d578063b88d4fde116100a0578063e985e9c51161006f578063e985e9c514610722578063eddd0d9c1461075f578063f2fde38b14610788578063fac9101c146107b1578063ff4af37d146107ee576101ee565b8063b88d4fde1461066a578063c1dfa0bb14610693578063c87b56dd146106bc578063c980c626146106f9576101ee565b806393e62e97116100dc57806393e62e97146105c457806395d89b41146105ed578063a22cb46514610618578063aa771db914610641576101ee565b8063715018a61461052957806374f624f014610540578063773849f51461057d5780638da5cb5b14610599576101ee565b80633bdecd7b116101855780636352211e116101545780636352211e1461045b5780636e02007d146104985780636eb604e0146104c357806370a08231146104ec576101ee565b80633bdecd7b1461038f57806342842e0e146103b85780634378a6e3146103e15780634f6ccce71461041e576101ee565b806318160ddd116101c157806318160ddd146102c157806323b872dd146102ec5780632607aafa146103155780632f745c5914610352576101ee565b806301ffc9a7146101f357806306fdde0314610230578063081812fc1461025b578063095ea7b314610298575b600080fd5b3480156101ff57600080fd5b5061021a60048036038101906102159190612f1d565b61082b565b6040516102279190612f65565b60405180910390f35b34801561023c57600080fd5b506102456108a5565b6040516102529190613019565b60405180910390f35b34801561026757600080fd5b50610282600480360381019061027d9190613071565b610937565b60405161028f91906130df565b60405180910390f35b3480156102a457600080fd5b506102bf60048036038101906102ba9190613126565b61097d565b005b3480156102cd57600080fd5b506102d6610a95565b6040516102e39190613175565b60405180910390f35b3480156102f857600080fd5b50610313600480360381019061030e9190613190565b610aa2565b005b34801561032157600080fd5b5061033c60048036038101906103379190613071565b610b02565b6040516103499190613019565b60405180910390f35b34801561035e57600080fd5b5061037960048036038101906103749190613126565b610ba7565b6040516103869190613175565b60405180910390f35b34801561039b57600080fd5b506103b660048036038101906103b19190613318565b610c4c565b005b3480156103c457600080fd5b506103df60048036038101906103da9190613190565b610c80565b005b3480156103ed57600080fd5b5061040860048036038101906104039190613071565b610ca0565b6040516104159190613019565b60405180910390f35b34801561042a57600080fd5b5061044560048036038101906104409190613071565b610d45565b6040516104529190613175565b60405180910390f35b34801561046757600080fd5b50610482600480360381019061047d9190613071565b610db6565b60405161048f91906130df565b60405180910390f35b3480156104a457600080fd5b506104ad610e3d565b6040516104ba9190613175565b60405180910390f35b3480156104cf57600080fd5b506104ea60048036038101906104e59190613071565b610e47565b005b3480156104f857600080fd5b50610513600480360381019061050e9190613374565b610f99565b6040516105209190613175565b60405180910390f35b34801561053557600080fd5b5061053e611051565b005b34801561054c57600080fd5b5061056760048036038101906105629190613071565b611065565b6040516105749190613019565b60405180910390f35b61059760048036038101906105929190613403565b61110a565b005b3480156105a557600080fd5b506105ae611263565b6040516105bb91906130df565b60405180910390f35b3480156105d057600080fd5b506105eb60048036038101906105e691906134d2565b61128d565b005b3480156105f957600080fd5b506106026112b1565b60405161060f9190613019565b60405180910390f35b34801561062457600080fd5b5061063f600480360381019061063a9190613512565b611343565b005b34801561064d57600080fd5b5061066860048036038101906106639190613318565b611359565b005b34801561067657600080fd5b50610691600480360381019061068c91906135f3565b61138d565b005b34801561069f57600080fd5b506106ba60048036038101906106b59190613071565b6113ef565b005b3480156106c857600080fd5b506106e360048036038101906106de9190613071565b611540565b6040516106f09190613019565b60405180910390f35b34801561070557600080fd5b50610720600480360381019061071b9190613318565b611866565b005b34801561072e57600080fd5b5061074960048036038101906107449190613676565b6118b2565b6040516107569190612f65565b60405180910390f35b34801561076b57600080fd5b5061078660048036038101906107819190613071565b611946565b005b34801561079457600080fd5b506107af60048036038101906107aa9190613374565b611958565b005b3480156107bd57600080fd5b506107d860048036038101906107d39190613071565b6119dc565b6040516107e59190612f65565b60405180910390f35b3480156107fa57600080fd5b5061081560048036038101906108109190613071565b611a06565b60405161082291906136c5565b60405180910390f35b60007f780e9d63000000000000000000000000000000000000000000000000000000007bffffffffffffffffffffffffffffffffffffffffffffffffffffffff1916827bffffffffffffffffffffffffffffffffffffffffffffffffffffffff1916148061089e575061089d82611a23565b5b9050919050565b6060600080546108b49061370f565b80601f01602080910402602001604051908101604052809291908181526020018280546108e09061370f565b801561092d5780601f106109025761010080835404028352916020019161092d565b820191906000526020600020905b81548152906001019060200180831161091057829003601f168201915b5050505050905090565b600061094282611b05565b6004600083815260200190815260200160002060009054906101000a900473ffffffffffffffffffffffffffffffffffffffff169050919050565b600061098882610db6565b90508073ffffffffffffffffffffffffffffffffffffffff168373ffffffffffffffffffffffffffffffffffffffff1614156109f9576040517f08c379a00000000000000000000000000000000000000000000000000000000081526004016109f0906137b3565b60405180910390fd5b8073ffffffffffffffffffffffffffffffffffffffff16610a18611b50565b73ffffffffffffffffffffffffffffffffffffffff161480610a475750610a4681610a41611b50565b6118b2565b5b610a86576040517f08c379a0000000000000000000000000000000000000000000000000000000008152600401610a7d90613845565b60405180910390fd5b610a908383611b58565b505050565b6000600880549050905090565b610ab3610aad611b50565b82611c11565b610af2576040517f08c379a0000000000000000000000000000000000000000000000000000000008152600401610ae9906138d7565b60405180910390fd5b610afd838383611ca6565b505050565b6060600f60008381526020019081526020016000208054610b229061370f565b80601f0160208091040260200160405190810160405280929190818152602001828054610b4e9061370f565b8015610b9b5780601f10610b7057610100808354040283529160200191610b9b565b820191906000526020600020905b815481529060010190602001808311610b7e57829003601f168201915b50505050509050919050565b6000610bb283610f99565b8210610bf3576040517f08c379a0000000000000000000000000000000000000000000000000000000008152600401610bea90613969565b60405180910390fd5b600660008473ffffffffffffffffffffffffffffffffffffffff1673ffffffffffffffffffffffffffffffffffffffff168152602001908152602001600020600083815260200190815260200160002054905092915050565b610c54611fa0565b80601060008481526020019081526020016000209080519060200190610c7b929190612e0e565b505050565b610c9b8383836040518060200160405280600081525061138d565b505050565b6060601060008381526020019081526020016000208054610cc09061370f565b80601f0160208091040260200160405190810160405280929190818152602001828054610cec9061370f565b8015610d395780601f10610d0e57610100808354040283529160200191610d39565b820191906000526020600020905b815481529060010190602001808311610d1c57829003601f168201915b50505050509050919050565b6000610d4f610a95565b8210610d90576040517f08c379a0000000000000000000000000000000000000000000000000000000008152600401610d87906139fb565b60405180910390fd5b60088281548110610da457610da3613a1b565b5b90600052602060002001549050919050565b600080610dc28361201e565b9050600073ffffffffffffffffffffffffffffffffffffffff168173ffffffffffffffffffffffffffffffffffffffff161415610e34576040517f08c379a0000000000000000000000000000000000000000000000000000000008152600401610e2b90613a96565b60405180910390fd5b80915050919050565b6000600b54905090565b610e4f611fa0565b3373ffffffffffffffffffffffffffffffffffffffff16610e6f82610db6565b73ffffffffffffffffffffffffffffffffffffffff1614610ec5576040517f08c379a0000000000000000000000000000000000000000000000000000000008152600401610ebc90613b02565b60405180910390fd5b6012600082815260200190815260200160002060009054906101000a900460ff1615610f26576040517f08c379a0000000000000000000000000000000000000000000000000000000008152600401610f1d90613b6e565b60405180910390fd5b60016012600083815260200190815260200160002060006101000a81548160ff021916908315150217905550803373ffffffffffffffffffffffffffffffffffffffff167f0cda5cf38f6592672c7b4a22ff3d50874d1913629bd5ffedc27b7b40503d60fd60405160405180910390a350565b60008073ffffffffffffffffffffffffffffffffffffffff168273ffffffffffffffffffffffffffffffffffffffff16141561100a576040517f08c379a000000000000000000000000000000000000000000000000000000000815260040161100190613c00565b60405180910390fd5b600360008373ffffffffffffffffffffffffffffffffffffffff1673ffffffffffffffffffffffffffffffffffffffff168152602001908152602001600020549050919050565b611059611fa0565b611063600061205b565b565b60606011600083815260200190815260200160002080546110859061370f565b80601f01602080910402602001604051908101604052809291908181526020018280546110b19061370f565b80156110fe5780601f106110d3576101008083540402835291602001916110fe565b820191906000526020600020905b8154815290600101906020018083116110e157829003601f168201915b50505050509050919050565b600d5434101561114f576040517f08c379a000000000000000000000000000000000000000000000000000000000815260040161114690613c6c565b60405180910390fd5b80600c60006101000a81548160ff02191690831515021790555084600e6000600b5481526020019081526020016000208190555083600f6000600b54815260200190815260200160002090805190602001906111ac929190612e0e565b508260106000600b54815260200190815260200160002090805190602001906111d6929190612e0e565b508160116000600b5481526020019081526020016000209080519060200190611200929190612e0e565b5061120d33600b54612121565b6001600b5461121c9190613cbb565b600b81905550600b547f882d3b5a729a8bb95cf6c0083c99b42ecd9637123d4425bd7b768877fd8af8b08660405161125491906136c5565b60405180910390a25050505050565b6000600a60009054906101000a900473ffffffffffffffffffffffffffffffffffffffff16905090565b611295611fa0565b80600e6000848152602001908152602001600020819055505050565b6060600180546112c09061370f565b80601f01602080910402602001604051908101604052809291908181526020018280546112ec9061370f565b80156113395780601f1061130e57610100808354040283529160200191611339565b820191906000526020600020905b81548152906001019060200180831161131c57829003601f168201915b5050505050905090565b61135561134e611b50565b838361213f565b5050565b611361611fa0565b80601160008481526020019081526020016000209080519060200190611388929190612e0e565b505050565b61139e611398611b50565b83611c11565b6113dd576040517f08c379a00000000000000000000000000000000000000000000000000000000081526004016113d4906138d7565b60405180910390fd5b6113e9848484846122ac565b50505050565b6113f7611fa0565b3373ffffffffffffffffffffffffffffffffffffffff1661141782610db6565b73ffffffffffffffffffffffffffffffffffffffff161461146d576040517f08c379a000000000000000000000000000000000000000000000000000000000815260040161146490613d83565b60405180910390fd5b6012600082815260200190815260200160002060009054906101000a900460ff166114cd576040517f08c379a00000000000000000000000000000000000000000000000000000000081526004016114c490613def565b60405180910390fd5b60006012600083815260200190815260200160002060006101000a81548160ff021916908315150217905550803373ffffffffffffffffffffffffffffffffffffffff167f963148346e3c93bb3eb4b4c296e2e13321ff22bf1118c91686cb1bfe4adcd91860405160405180910390a350565b606061154b82612308565b611581576040517f6df5edae00000000000000000000000000000000000000000000000000000000815260040160405180910390fd5b6000600f600084815260200190815260200160002080546115a19061370f565b80601f01602080910402602001604051908101604052809291908181526020018280546115cd9061370f565b801561161a5780601f106115ef5761010080835404028352916020019161161a565b820191906000526020600020905b8154815290600101906020018083116115fd57829003601f168201915b5050505050905060006010600085815260200190815260200160002080546116419061370f565b80601f016020809104026020016040519081016040528092919081815260200182805461166d9061370f565b80156116ba5780601f1061168f576101008083540402835291602001916116ba565b820191906000526020600020905b81548152906001019060200180831161169d57829003601f168201915b5050505050905060006011600086815260200190815260200160002080546116e19061370f565b80601f016020809104026020016040519081016040528092919081815260200182805461170d9061370f565b801561175a5780601f1061172f5761010080835404028352916020019161175a565b820191906000526020600020905b81548152906001019060200180831161173d57829003601f168201915b5050505050905060006012600087815260200190815260200160002060009054906101000a900460ff16905061178e612349565b61183b6117996108a5565b858588866117dc576040518060400160405280600581526020017f66616c7365000000000000000000000000000000000000000000000000000000815250611813565b6040518060400160405280600481526020017f74727565000000000000000000000000000000000000000000000000000000008152505b60405160200161182795949392919061405f565b604051602081830303815290604052612386565b60405160200161184c9291906140f7565b604051602081830303815290604052945050505050919050565b61186e611fa0565b600061187983611a06565b905060018114156118ad5781600f600085815260200190815260200160002090805190602001906118ab929190612e0e565b505b505050565b6000600560008473ffffffffffffffffffffffffffffffffffffffff1673ffffffffffffffffffffffffffffffffffffffff16815260200190815260200160002060008373ffffffffffffffffffffffffffffffffffffffff1673ffffffffffffffffffffffffffffffffffffffff16815260200190815260200160002060009054906101000a900460ff16905092915050565b61194e611fa0565b80600d8190555050565b611960611fa0565b600073ffffffffffffffffffffffffffffffffffffffff168173ffffffffffffffffffffffffffffffffffffffff1614156119d0576040517f08c379a00000000000000000000000000000000000000000000000000000000081526004016119c79061418d565b60405180910390fd5b6119d98161205b565b50565b60006012600083815260200190815260200160002060009054906101000a900460ff169050919050565b6000600e6000838152602001908152602001600020549050919050565b60007f80ac58cd000000000000000000000000000000000000000000000000000000007bffffffffffffffffffffffffffffffffffffffffffffffffffffffff1916827bffffffffffffffffffffffffffffffffffffffffffffffffffffffff19161480611aee57507f5b5e139f000000000000000000000000000000000000000000000000000000007bffffffffffffffffffffffffffffffffffffffffffffffffffffffff1916827bffffffffffffffffffffffffffffffffffffffffffffffffffffffff1916145b80611afe5750611afd826124ff565b5b9050919050565b611b0e81612308565b611b4d576040517f08c379a0000000000000000000000000000000000000000000000000000000008152600401611b4490613a96565b60405180910390fd5b50565b600033905090565b816004600083815260200190815260200160002060006101000a81548173ffffffffffffffffffffffffffffffffffffffff021916908373ffffffffffffffffffffffffffffffffffffffff160217905550808273ffffffffffffffffffffffffffffffffffffffff16611bcb83610db6565b73ffffffffffffffffffffffffffffffffffffffff167f8c5be1e5ebec7d5bd14f71427d1e84f3dd0314c0f7b2291e5b200ac8c7c3b92560405160405180910390a45050565b600080611c1d83610db6565b90508073ffffffffffffffffffffffffffffffffffffffff168473ffffffffffffffffffffffffffffffffffffffff161480611c5f5750611c5e81856118b2565b5b80611c9d57508373ffffffffffffffffffffffffffffffffffffffff16611c8584610937565b73ffffffffffffffffffffffffffffffffffffffff16145b91505092915050565b8273ffffffffffffffffffffffffffffffffffffffff16611cc682610db6565b73ffffffffffffffffffffffffffffffffffffffff1614611d1c576040517f08c379a0000000000000000000000000000000000000000000000000000000008152600401611d139061421f565b60405180910390fd5b600073ffffffffffffffffffffffffffffffffffffffff168273ffffffffffffffffffffffffffffffffffffffff161415611d8c576040517f08c379a0000000000000000000000000000000000000000000000000000000008152600401611d83906142b1565b60405180910390fd5b611d998383836001612569565b8273ffffffffffffffffffffffffffffffffffffffff16611db982610db6565b73ffffffffffffffffffffffffffffffffffffffff1614611e0f576040517f08c379a0000000000000000000000000000000000000000000000000000000008152600401611e069061421f565b60405180910390fd5b6004600082815260200190815260200160002060006101000a81549073ffffffffffffffffffffffffffffffffffffffff02191690556001600360008573ffffffffffffffffffffffffffffffffffffffff1673ffffffffffffffffffffffffffffffffffffffff168152602001908152602001600020600082825403925050819055506001600360008473ffffffffffffffffffffffffffffffffffffffff1673ffffffffffffffffffffffffffffffffffffffff16815260200190815260200160002060008282540192505081905550816002600083815260200190815260200160002060006101000a81548173ffffffffffffffffffffffffffffffffffffffff021916908373ffffffffffffffffffffffffffffffffffffffff160217905550808273ffffffffffffffffffffffffffffffffffffffff168473ffffffffffffffffffffffffffffffffffffffff167fddf252ad1be2c89b69c2b068fc378daa952ba7f163c4a11628f55a4df523b3ef60405160405180910390a4611f9b83838360016126c9565b505050565b611fa8611b50565b73ffffffffffffffffffffffffffffffffffffffff16611fc6611263565b73ffffffffffffffffffffffffffffffffffffffff161461201c576040517f08c379a00000000000000000000000000000000000000000000000000000000081526004016120139061431d565b60405180910390fd5b565b60006002600083815260200190815260200160002060009054906101000a900473ffffffffffffffffffffffffffffffffffffffff169050919050565b6000600a60009054906101000a900473ffffffffffffffffffffffffffffffffffffffff16905081600a60006101000a81548173ffffffffffffffffffffffffffffffffffffffff021916908373ffffffffffffffffffffffffffffffffffffffff1602179055508173ffffffffffffffffffffffffffffffffffffffff168173ffffffffffffffffffffffffffffffffffffffff167f8be0079c531659141344cd1fd0a4f28419497f9722a3daafe3b4186f6b6457e060405160405180910390a35050565b61213b8282604051806020016040528060008152506126cf565b5050565b8173ffffffffffffffffffffffffffffffffffffffff168373ffffffffffffffffffffffffffffffffffffffff1614156121ae576040517f08c379a00000000000000000000000000000000000000000000000000000000081526004016121a590614389565b60405180910390fd5b80600560008573ffffffffffffffffffffffffffffffffffffffff1673ffffffffffffffffffffffffffffffffffffffff16815260200190815260200160002060008473ffffffffffffffffffffffffffffffffffffffff1673ffffffffffffffffffffffffffffffffffffffff16815260200190815260200160002060006101000a81548160ff0219169083151502179055508173ffffffffffffffffffffffffffffffffffffffff168373ffffffffffffffffffffffffffffffffffffffff167f17307eab39ab6107e8899845ad3d59bd9653f200f220920489ca2b5937696c318360405161229f9190612f65565b60405180910390a3505050565b6122b7848484611ca6565b6122c38484848461272a565b612302576040517f08c379a00000000000000000000000000000000000000000000000000000000081526004016122f99061441b565b60405180910390fd5b50505050565b60008073ffffffffffffffffffffffffffffffffffffffff1661232a8361201e565b73ffffffffffffffffffffffffffffffffffffffff1614159050919050565b60606040518060400160405280601d81526020017f646174613a6170706c69636174696f6e2f6a736f6e3b6261736536342c000000815250905090565b60606000825114156123a9576040518060200160405280600081525090506124fa565b60006040518060600160405280604081526020016147a660409139905060006003600285516123d89190613cbb565b6123e2919061446a565b60046123ee919061449b565b905060006020826123ff9190613cbb565b67ffffffffffffffff811115612418576124176131ed565b5b6040519080825280601f01601f19166020018201604052801561244a5781602001600182028036833780820191505090505b509050818152600183018586518101602084015b818310156124b9576003830192508251603f8160121c168501518253600182019150603f81600c1c168501518253600182019150603f8160061c168501518253600182019150603f811685015182536001820191505061245e565b6003895106600181146124d357600281146124e3576124ee565b613d3d60f01b60028303526124ee565b603d60f81b60018303525b50505050508093505050505b919050565b60007f01ffc9a7000000000000000000000000000000000000000000000000000000007bffffffffffffffffffffffffffffffffffffffffffffffffffffffff1916827bffffffffffffffffffffffffffffffffffffffffffffffffffffffff1916149050919050565b612575848484846128c1565b60018111156125b9576040517f08c379a00000000000000000000000000000000000000000000000000000000081526004016125b090614567565b60405180910390fd5b6000829050600073ffffffffffffffffffffffffffffffffffffffff168573ffffffffffffffffffffffffffffffffffffffff161415612601576125fc816128c7565b612640565b8373ffffffffffffffffffffffffffffffffffffffff168573ffffffffffffffffffffffffffffffffffffffff161461263f5761263e8582612910565b5b5b600073ffffffffffffffffffffffffffffffffffffffff168473ffffffffffffffffffffffffffffffffffffffff1614156126835761267e81612a7d565b6126c2565b8473ffffffffffffffffffffffffffffffffffffffff168473ffffffffffffffffffffffffffffffffffffffff16146126c1576126c08482612b4e565b5b5b5050505050565b50505050565b6126d98383612bcd565b6126e6600084848461272a565b612725576040517f08c379a000000000000000000000000000000000000000000000000000000000815260040161271c9061441b565b60405180910390fd5b505050565b600061274b8473ffffffffffffffffffffffffffffffffffffffff16612deb565b156128b4578373ffffffffffffffffffffffffffffffffffffffff1663150b7a02612774611b50565b8786866040518563ffffffff1660e01b815260040161279694939291906145dc565b602060405180830381600087803b1580156127b057600080fd5b505af19250505080156127e157506040513d601f19601f820116820180604052508101906127de919061463d565b60015b612864573d8060008114612811576040519150601f19603f3d011682016040523d82523d6000602084013e612816565b606091505b5060008151141561285c576040517f08c379a00000000000000000000000000000000000000000000000000000000081526004016128539061441b565b60405180910390fd5b805181602001fd5b63150b7a0260e01b7bffffffffffffffffffffffffffffffffffffffffffffffffffffffff1916817bffffffffffffffffffffffffffffffffffffffffffffffffffffffff1916149150506128b9565b600190505b949350505050565b50505050565b6008805490506009600083815260200190815260200160002081905550600881908060018154018082558091505060019003906000526020600020016000909190919091505550565b6000600161291d84610f99565b612927919061466a565b9050600060076000848152602001908152602001600020549050818114612a0c576000600660008673ffffffffffffffffffffffffffffffffffffffff1673ffffffffffffffffffffffffffffffffffffffff168152602001908152602001600020600084815260200190815260200160002054905080600660008773ffffffffffffffffffffffffffffffffffffffff1673ffffffffffffffffffffffffffffffffffffffff168152602001908152602001600020600084815260200190815260200160002081905550816007600083815260200190815260200160002081905550505b6007600084815260200190815260200160002060009055600660008573ffffffffffffffffffffffffffffffffffffffff1673ffffffffffffffffffffffffffffffffffffffff16815260200190815260200160002060008381526020019081526020016000206000905550505050565b60006001600880549050612a91919061466a565b9050600060096000848152602001908152602001600020549050600060088381548110612ac157612ac0613a1b565b5b906000526020600020015490508060088381548110612ae357612ae2613a1b565b5b906000526020600020018190555081600960008381526020019081526020016000208190555060096000858152602001908152602001600020600090556008805480612b3257612b3161469e565b5b6001900381819060005260206000200160009055905550505050565b6000612b5983610f99565b905081600660008573ffffffffffffffffffffffffffffffffffffffff1673ffffffffffffffffffffffffffffffffffffffff168152602001908152602001600020600083815260200190815260200160002081905550806007600084815260200190815260200160002081905550505050565b600073ffffffffffffffffffffffffffffffffffffffff168273ffffffffffffffffffffffffffffffffffffffff161415612c3d576040517f08c379a0000000000000000000000000000000000000000000000000000000008152600401612c3490614719565b60405180910390fd5b612c4681612308565b15612c86576040517f08c379a0000000000000000000000000000000000000000000000000000000008152600401612c7d90614785565b60405180910390fd5b612c94600083836001612569565b612c9d81612308565b15612cdd576040517f08c379a0000000000000000000000000000000000000000000000000000000008152600401612cd490614785565b60405180910390fd5b6001600360008473ffffffffffffffffffffffffffffffffffffffff1673ffffffffffffffffffffffffffffffffffffffff16815260200190815260200160002060008282540192505081905550816002600083815260200190815260200160002060006101000a81548173ffffffffffffffffffffffffffffffffffffffff021916908373ffffffffffffffffffffffffffffffffffffffff160217905550808273ffffffffffffffffffffffffffffffffffffffff16600073ffffffffffffffffffffffffffffffffffffffff167fddf252ad1be2c89b69c2b068fc378daa952ba7f163c4a11628f55a4df523b3ef60405160405180910390a4612de76000838360016126c9565b5050565b6000808273ffffffffffffffffffffffffffffffffffffffff163b119050919050565b828054612e1a9061370f565b90600052602060002090601f016020900481019282612e3c5760008555612e83565b82601f10612e5557805160ff1916838001178555612e83565b82800160010185558215612e83579182015b82811115612e82578251825591602001919060010190612e67565b5b509050612e909190612e94565b5090565b5b80821115612ead576000816000905550600101612e95565b5090565b6000604051905090565b600080fd5b600080fd5b60007fffffffff0000000000000000000000000000000000000000000000000000000082169050919050565b612efa81612ec5565b8114612f0557600080fd5b50565b600081359050612f1781612ef1565b92915050565b600060208284031215612f3357612f32612ebb565b5b6000612f4184828501612f08565b91505092915050565b60008115159050919050565b612f5f81612f4a565b82525050565b6000602082019050612f7a6000830184612f56565b92915050565b600081519050919050565b600082825260208201905092915050565b60005b83811015612fba578082015181840152602081019050612f9f565b83811115612fc9576000848401525b50505050565b6000601f19601f8301169050919050565b6000612feb82612f80565b612ff58185612f8b565b9350613005818560208601612f9c565b61300e81612fcf565b840191505092915050565b600060208201905081810360008301526130338184612fe0565b905092915050565b6000819050919050565b61304e8161303b565b811461305957600080fd5b50565b60008135905061306b81613045565b92915050565b60006020828403121561308757613086612ebb565b5b60006130958482850161305c565b91505092915050565b600073ffffffffffffffffffffffffffffffffffffffff82169050919050565b60006130c98261309e565b9050919050565b6130d9816130be565b82525050565b60006020820190506130f460008301846130d0565b92915050565b613103816130be565b811461310e57600080fd5b50565b600081359050613120816130fa565b92915050565b6000806040838503121561313d5761313c612ebb565b5b600061314b85828601613111565b925050602061315c8582860161305c565b9150509250929050565b61316f8161303b565b82525050565b600060208201905061318a6000830184613166565b92915050565b6000806000606084860312156131a9576131a8612ebb565b5b60006131b786828701613111565b93505060206131c886828701613111565b92505060406131d98682870161305c565b9150509250925092565b600080fd5b600080fd5b7f4e487b7100000000000000000000000000000000000000000000000000000000600052604160045260246000fd5b61322582612fcf565b810181811067ffffffffffffffff82111715613244576132436131ed565b5b80604052505050565b6000613257612eb1565b9050613263828261321c565b919050565b600067ffffffffffffffff821115613283576132826131ed565b5b61328c82612fcf565b9050602081019050919050565b82818337600083830152505050565b60006132bb6132b684613268565b61324d565b9050828152602081018484840111156132d7576132d66131e8565b5b6132e2848285613299565b509392505050565b600082601f8301126132ff576132fe6131e3565b5b813561330f8482602086016132a8565b91505092915050565b6000806040838503121561332f5761332e612ebb565b5b600061333d8582860161305c565b925050602083013567ffffffffffffffff81111561335e5761335d612ec0565b5b61336a858286016132ea565b9150509250929050565b60006020828403121561338a57613389612ebb565b5b600061339884828501613111565b91505092915050565b6000819050919050565b6133b4816133a1565b81146133bf57600080fd5b50565b6000813590506133d1816133ab565b92915050565b6133e081612f4a565b81146133eb57600080fd5b50565b6000813590506133fd816133d7565b92915050565b600080600080600060a0868803121561341f5761341e612ebb565b5b600061342d888289016133c2565b955050602086013567ffffffffffffffff81111561344e5761344d612ec0565b5b61345a888289016132ea565b945050604086013567ffffffffffffffff81111561347b5761347a612ec0565b5b613487888289016132ea565b935050606086013567ffffffffffffffff8111156134a8576134a7612ec0565b5b6134b4888289016132ea565b92505060806134c5888289016133ee565b9150509295509295909350565b600080604083850312156134e9576134e8612ebb565b5b60006134f78582860161305c565b9250506020613508858286016133c2565b9150509250929050565b6000806040838503121561352957613528612ebb565b5b600061353785828601613111565b9250506020613548858286016133ee565b9150509250929050565b600067ffffffffffffffff82111561356d5761356c6131ed565b5b61357682612fcf565b9050602081019050919050565b600061359661359184613552565b61324d565b9050828152602081018484840111156135b2576135b16131e8565b5b6135bd848285613299565b509392505050565b600082601f8301126135da576135d96131e3565b5b81356135ea848260208601613583565b91505092915050565b6000806000806080858703121561360d5761360c612ebb565b5b600061361b87828801613111565b945050602061362c87828801613111565b935050604061363d8782880161305c565b925050606085013567ffffffffffffffff81111561365e5761365d612ec0565b5b61366a878288016135c5565b91505092959194509250565b6000806040838503121561368d5761368c612ebb565b5b600061369b85828601613111565b92505060206136ac85828601613111565b9150509250929050565b6136bf816133a1565b82525050565b60006020820190506136da60008301846136b6565b92915050565b7f4e487b7100000000000000000000000000000000000000000000000000000000600052602260045260246000fd5b6000600282049050600182168061372757607f821691505b6020821081141561373b5761373a6136e0565b5b50919050565b7f4552433732313a20617070726f76616c20746f2063757272656e74206f776e6560008201527f7200000000000000000000000000000000000000000000000000000000000000602082015250565b600061379d602183612f8b565b91506137a882613741565b604082019050919050565b600060208201905081810360008301526137cc81613790565b9050919050565b7f4552433732313a20617070726f76652063616c6c6572206973206e6f7420746f60008201527f6b656e206f776e6572206f7220617070726f76656420666f7220616c6c000000602082015250565b600061382f603d83612f8b565b915061383a826137d3565b604082019050919050565b6000602082019050818103600083015261385e81613822565b9050919050565b7f4552433732313a2063616c6c6572206973206e6f7420746f6b656e206f776e6560008201527f72206f7220617070726f76656400000000000000000000000000000000000000602082015250565b60006138c1602d83612f8b565b91506138cc82613865565b604082019050919050565b600060208201905081810360008301526138f0816138b4565b9050919050565b7f455243373231456e756d657261626c653a206f776e657220696e646578206f7560008201527f74206f6620626f756e6473000000000000000000000000000000000000000000602082015250565b6000613953602b83612f8b565b915061395e826138f7565b604082019050919050565b6000602082019050818103600083015261398281613946565b9050919050565b7f455243373231456e756d657261626c653a20676c6f62616c20696e646578206f60008201527f7574206f6620626f756e64730000000000000000000000000000000000000000602082015250565b60006139e5602c83612f8b565b91506139f082613989565b604082019050919050565b60006020820190508181036000830152613a14816139d8565b9050919050565b7f4e487b7100000000000000000000000000000000000000000000000000000000600052603260045260246000fd5b7f4552433732313a20696e76616c696420746f6b656e2049440000000000000000600082015250565b6000613a80601883612f8b565b9150613a8b82613a4a565b602082019050919050565b60006020820190508181036000830152613aaf81613a73565b9050919050565b7f4f6e6c7920746865206f776e65722063616e207374616b6520746865204e4654600082015250565b6000613aec602083612f8b565b9150613af782613ab6565b602082019050919050565b60006020820190508181036000830152613b1b81613adf565b9050919050565b7f4e465420697320616c7265616479207374616b65640000000000000000000000600082015250565b6000613b58601583612f8b565b9150613b6382613b22565b602082019050919050565b60006020820190508181036000830152613b8781613b4b565b9050919050565b7f4552433732313a2061646472657373207a65726f206973206e6f74206120766160008201527f6c6964206f776e65720000000000000000000000000000000000000000000000602082015250565b6000613bea602983612f8b565b9150613bf582613b8e565b604082019050919050565b60006020820190508181036000830152613c1981613bdd565b9050919050565b7f4d6f726520455448207265717569726564000000000000000000000000000000600082015250565b6000613c56601183612f8b565b9150613c6182613c20565b602082019050919050565b60006020820190508181036000830152613c8581613c49565b9050919050565b7f4e487b7100000000000000000000000000000000000000000000000000000000600052601160045260246000fd5b6000613cc68261303b565b9150613cd18361303b565b9250827fffffffffffffffffffffffffffffffffffffffffffffffffffffffffffffffff03821115613d0657613d05613c8c565b5b828201905092915050565b7f4f6e6c7920746865206f776e65722063616e20756e7374616b6520746865204e60008201527f4654000000000000000000000000000000000000000000000000000000000000602082015250565b6000613d6d602283612f8b565b9150613d7882613d11565b604082019050919050565b60006020820190508181036000830152613d9c81613d60565b9050919050565b7f4e4654206973206e6f74207374616b6564000000000000000000000000000000600082015250565b6000613dd9601183612f8b565b9150613de482613da3565b602082019050919050565b60006020820190508181036000830152613e0881613dcc565b9050919050565b600081905092915050565b7f7b226e616d65223a220000000000000000000000000000000000000000000000600082015250565b6000613e50600983613e0f565b9150613e5b82613e1a565b600982019050919050565b6000613e7182612f80565b613e7b8185613e0f565b9350613e8b818560208601612f9c565b80840191505092915050565b7f222c20226465736372697074696f6e223a2251222c2000000000000000000000600082015250565b6000613ecd601683613e0f565b9150613ed882613e97565b601682019050919050565b7f2261747472696275746573223a00000000000000000000000000000000000000600082015250565b6000613f19600d83613e0f565b9150613f2482613ee3565b600d82019050919050565b7f2c22666974223a00000000000000000000000000000000000000000000000000600082015250565b6000613f65600783613e0f565b9150613f7082613f2f565b600782019050919050565b7f2c22696d616765223a2200000000000000000000000000000000000000000000600082015250565b6000613fb1600a83613e0f565b9150613fbc82613f7b565b600a82019050919050565b7f222c227374616b6564223a220000000000000000000000000000000000000000600082015250565b6000613ffd600c83613e0f565b915061400882613fc7565b600c82019050919050565b7f227d000000000000000000000000000000000000000000000000000000000000600082015250565b6000614049600283613e0f565b915061405482614013565b600282019050919050565b600061406a82613e43565b91506140768288613e66565b915061408182613ec0565b915061408c82613f0c565b91506140988287613e66565b91506140a382613f58565b91506140af8286613e66565b91506140ba82613fa4565b91506140c68285613e66565b91506140d182613ff0565b91506140dd8284613e66565b91506140e88261403c565b91508190509695505050505050565b60006141038285613e66565b915061410f8284613e66565b91508190509392505050565b7f4f776e61626c653a206e6577206f776e657220697320746865207a65726f206160008201527f6464726573730000000000000000000000000000000000000000000000000000602082015250565b6000614177602683612f8b565b91506141828261411b565b604082019050919050565b600060208201905081810360008301526141a68161416a565b9050919050565b7f4552433732313a207472616e736665722066726f6d20696e636f72726563742060008201527f6f776e6572000000000000000000000000000000000000000000000000000000602082015250565b6000614209602583612f8b565b9150614214826141ad565b604082019050919050565b60006020820190508181036000830152614238816141fc565b9050919050565b7f4552433732313a207472616e7366657220746f20746865207a65726f2061646460008201527f7265737300000000000000000000000000000000000000000000000000000000602082015250565b600061429b602483612f8b565b91506142a68261423f565b604082019050919050565b600060208201905081810360008301526142ca8161428e565b9050919050565b7f4f776e61626c653a2063616c6c6572206973206e6f7420746865206f776e6572600082015250565b6000614307602083612f8b565b9150614312826142d1565b602082019050919050565b60006020820190508181036000830152614336816142fa565b9050919050565b7f4552433732313a20617070726f766520746f2063616c6c657200000000000000600082015250565b6000614373601983612f8b565b915061437e8261433d565b602082019050919050565b600060208201905081810360008301526143a281614366565b9050919050565b7f4552433732313a207472616e7366657220746f206e6f6e20455243373231526560008201527f63656976657220696d706c656d656e7465720000000000000000000000000000602082015250565b6000614405603283612f8b565b9150614410826143a9565b604082019050919050565b60006020820190508181036000830152614434816143f8565b9050919050565b7f4e487b7100000000000000000000000000000000000000000000000000000000600052601260045260246000fd5b60006144758261303b565b91506144808361303b565b9250826144905761448f61443b565b5b828204905092915050565b60006144a68261303b565b91506144b18361303b565b9250817fffffffffffffffffffffffffffffffffffffffffffffffffffffffffffffffff04831182151516156144ea576144e9613c8c565b5b828202905092915050565b7f455243373231456e756d657261626c653a20636f6e736563757469766520747260008201527f616e7366657273206e6f7420737570706f727465640000000000000000000000602082015250565b6000614551603583612f8b565b915061455c826144f5565b604082019050919050565b6000602082019050818103600083015261458081614544565b9050919050565b600081519050919050565b600082825260208201905092915050565b60006145ae82614587565b6145b88185614592565b93506145c8818560208601612f9c565b6145d181612fcf565b840191505092915050565b60006080820190506145f160008301876130d0565b6145fe60208301866130d0565b61460b6040830185613166565b818103606083015261461d81846145a3565b905095945050505050565b60008151905061463781612ef1565b92915050565b60006020828403121561465357614652612ebb565b5b600061466184828501614628565b91505092915050565b60006146758261303b565b91506146808361303b565b92508282101561469357614692613c8c565b5b828203905092915050565b7f4e487b7100000000000000000000000000000000000000000000000000000000600052603160045260246000fd5b7f4552433732313a206d696e7420746f20746865207a65726f2061646472657373600082015250565b6000614703602083612f8b565b915061470e826146cd565b602082019050919050565b60006020820190508181036000830152614732816146f6565b9050919050565b7f4552433732313a20746f6b656e20616c7265616479206d696e74656400000000600082015250565b600061476f601c83612f8b565b915061477a82614739565b602082019050919050565b6000602082019050818103600083015261479e81614762565b905091905056fe4142434445464748494a4b4c4d4e4f505152535455565758595a6162636465666768696a6b6c6d6e6f707172737475767778797a303132333435363738392b2fa26469706673582212202e06aabfb1d4e28416925623754a16bfc8e1f9eaa408a17a8685747a024e0a7964736f6c63430008080033",
  "devdoc": {
    "kind": "dev",
    "methods": {
      "approve(address,uint256)": {
        "details": "See {IERC721-approve}."
      },
      "balanceOf(address)": {
        "details": "See {IERC721-balanceOf}."
      },
      "getApproved(uint256)": {
        "details": "See {IERC721-getApproved}."
      },
      "isApprovedForAll(address,address)": {
        "details": "See {IERC721-isApprovedForAll}."
      },
      "name()": {
        "details": "See {IERC721Metadata-name}."
      },
      "owner()": {
        "details": "Returns the address of the current owner."
      },
      "ownerOf(uint256)": {
        "details": "See {IERC721-ownerOf}."
      },
      "renounceOwnership()": {
        "details": "Leaves the contract without owner. It will not be possible to call `onlyOwner` functions anymore. Can only be called by the current owner. NOTE: Renouncing ownership will leave the contract without an owner, thereby removing any functionality that is only available to the owner."
      },
      "safeTransferFrom(address,address,uint256)": {
        "details": "See {IERC721-safeTransferFrom}."
      },
      "safeTransferFrom(address,address,uint256,bytes)": {
        "details": "See {IERC721-safeTransferFrom}."
      },
      "setApprovalForAll(address,bool)": {
        "details": "See {IERC721-setApprovalForAll}."
      },
      "supportsInterface(bytes4)": {
        "details": "See {IERC165-supportsInterface}."
      },
      "symbol()": {
        "details": "See {IERC721Metadata-symbol}."
      },
      "tokenByIndex(uint256)": {
        "details": "See {IERC721Enumerable-tokenByIndex}."
      },
      "tokenOfOwnerByIndex(address,uint256)": {
        "details": "See {IERC721Enumerable-tokenOfOwnerByIndex}."
      },
      "tokenURI(uint256)": {
        "details": "See {IERC721Metadata-tokenURI}."
      },
      "totalSupply()": {
        "details": "See {IERC721Enumerable-totalSupply}."
      },
      "transferFrom(address,address,uint256)": {
        "details": "See {IERC721-transferFrom}."
      },
      "transferOwnership(address)": {
        "details": "Transfers ownership of the contract to a new account (`newOwner`). Can only be called by the current owner."
      }
    },
    "version": 1
  },
  "userdoc": {
    "kind": "user",
    "methods": {},
    "version": 1
  },
  "storageLayout": {
    "storage": [
      {
        "astId": 138,
        "contract": "contracts/DynamicPngNft.sol:DynamicPngNft",
        "label": "_name",
        "offset": 0,
        "slot": "0",
        "type": "t_string_storage"
      },
      {
        "astId": 140,
        "contract": "contracts/DynamicPngNft.sol:DynamicPngNft",
        "label": "_symbol",
        "offset": 0,
        "slot": "1",
        "type": "t_string_storage"
      },
      {
        "astId": 144,
        "contract": "contracts/DynamicPngNft.sol:DynamicPngNft",
        "label": "_owners",
        "offset": 0,
        "slot": "2",
        "type": "t_mapping(t_uint256,t_address)"
      },
      {
        "astId": 148,
        "contract": "contracts/DynamicPngNft.sol:DynamicPngNft",
        "label": "_balances",
        "offset": 0,
        "slot": "3",
        "type": "t_mapping(t_address,t_uint256)"
      },
      {
        "astId": 152,
        "contract": "contracts/DynamicPngNft.sol:DynamicPngNft",
        "label": "_tokenApprovals",
        "offset": 0,
        "slot": "4",
        "type": "t_mapping(t_uint256,t_address)"
      },
      {
        "astId": 158,
        "contract": "contracts/DynamicPngNft.sol:DynamicPngNft",
        "label": "_operatorApprovals",
        "offset": 0,
        "slot": "5",
        "type": "t_mapping(t_address,t_mapping(t_address,t_bool))"
      },
      {
        "astId": 1188,
        "contract": "contracts/DynamicPngNft.sol:DynamicPngNft",
        "label": "_ownedTokens",
        "offset": 0,
        "slot": "6",
        "type": "t_mapping(t_address,t_mapping(t_uint256,t_uint256))"
      },
      {
        "astId": 1192,
        "contract": "contracts/DynamicPngNft.sol:DynamicPngNft",
        "label": "_ownedTokensIndex",
        "offset": 0,
        "slot": "7",
        "type": "t_mapping(t_uint256,t_uint256)"
      },
      {
        "astId": 1195,
        "contract": "contracts/DynamicPngNft.sol:DynamicPngNft",
        "label": "_allTokens",
        "offset": 0,
        "slot": "8",
        "type": "t_array(t_uint256)dyn_storage"
      },
      {
        "astId": 1199,
        "contract": "contracts/DynamicPngNft.sol:DynamicPngNft",
        "label": "_allTokensIndex",
        "offset": 0,
        "slot": "9",
        "type": "t_mapping(t_uint256,t_uint256)"
      },
      {
        "astId": 7,
        "contract": "contracts/DynamicPngNft.sol:DynamicPngNft",
        "label": "_owner",
        "offset": 0,
        "slot": "10",
        "type": "t_address"
      },
      {
        "astId": 3142,
        "contract": "contracts/DynamicPngNft.sol:DynamicPngNft",
        "label": "s_tokenCounter",
        "offset": 0,
        "slot": "11",
        "type": "t_uint256"
      },
      {
        "astId": 3144,
        "contract": "contracts/DynamicPngNft.sol:DynamicPngNft",
        "label": "s_isQR",
        "offset": 0,
        "slot": "12",
        "type": "t_bool"
      },
      {
        "astId": 3146,
        "contract": "contracts/DynamicPngNft.sol:DynamicPngNft",
        "label": "s_mintFee",
        "offset": 0,
        "slot": "13",
        "type": "t_uint256"
      },
      {
        "astId": 3150,
        "contract": "contracts/DynamicPngNft.sol:DynamicPngNft",
        "label": "s_tokenIdToMembershipStatus",
        "offset": 0,
        "slot": "14",
        "type": "t_mapping(t_uint256,t_int256)"
      },
      {
        "astId": 3154,
        "contract": "contracts/DynamicPngNft.sol:DynamicPngNft",
        "label": "s_tokenIdToImageURL",
        "offset": 0,
        "slot": "15",
        "type": "t_mapping(t_uint256,t_string_storage)"
      },
      {
        "astId": 3158,
        "contract": "contracts/DynamicPngNft.sol:DynamicPngNft",
        "label": "s_tokenIdToAttributes",
        "offset": 0,
        "slot": "16",
        "type": "t_mapping(t_uint256,t_string_storage)"
      },
      {
        "astId": 3162,
        "contract": "contracts/DynamicPngNft.sol:DynamicPngNft",
        "label": "s_tokenIdToFit",
        "offset": 0,
        "slot": "17",
        "type": "t_mapping(t_uint256,t_string_storage)"
      },
      {
        "astId": 3166,
        "contract": "contracts/DynamicPngNft.sol:DynamicPngNft",
        "label": "s_tokenIdToStaked",
        "offset": 0,
        "slot": "18",
        "type": "t_mapping(t_uint256,t_bool)"
      }
    ],
    "types": {
      "t_address": {
        "encoding": "inplace",
        "label": "address",
        "numberOfBytes": "20"
      },
      "t_array(t_uint256)dyn_storage": {
        "base": "t_uint256",
        "encoding": "dynamic_array",
        "label": "uint256[]",
        "numberOfBytes": "32"
      },
      "t_bool": {
        "encoding": "inplace",
        "label": "bool",
        "numberOfBytes": "1"
      },
      "t_int256": {
        "encoding": "inplace",
        "label": "int256",
        "numberOfBytes": "32"
      },
      "t_mapping(t_address,t_bool)": {
        "encoding": "mapping",
        "key": "t_address",
        "label": "mapping(address => bool)",
        "numberOfBytes": "32",
        "value": "t_bool"
      },
      "t_mapping(t_address,t_mapping(t_address,t_bool))": {
        "encoding": "mapping",
        "key": "t_address",
        "label": "mapping(address => mapping(address => bool))",
        "numberOfBytes": "32",
        "value": "t_mapping(t_address,t_bool)"
      },
      "t_mapping(t_address,t_mapping(t_uint256,t_uint256))": {
        "encoding": "mapping",
        "key": "t_address",
        "label": "mapping(address => mapping(uint256 => uint256))",
        "numberOfBytes": "32",
        "value": "t_mapping(t_uint256,t_uint256)"
      },
      "t_mapping(t_address,t_uint256)": {
        "encoding": "mapping",
        "key": "t_address",
        "label": "mapping(address => uint256)",
        "numberOfBytes": "32",
        "value": "t_uint256"
      },
      "t_mapping(t_uint256,t_address)": {
        "encoding": "mapping",
        "key": "t_uint256",
        "label": "mapping(uint256 => address)",
        "numberOfBytes": "32",
        "value": "t_address"
      },
      "t_mapping(t_uint256,t_bool)": {
        "encoding": "mapping",
        "key": "t_uint256",
        "label": "mapping(uint256 => bool)",
        "numberOfBytes": "32",
        "value": "t_bool"
      },
      "t_mapping(t_uint256,t_int256)": {
        "encoding": "mapping",
        "key": "t_uint256",
        "label": "mapping(uint256 => int256)",
        "numberOfBytes": "32",
        "value": "t_int256"
      },
      "t_mapping(t_uint256,t_string_storage)": {
        "encoding": "mapping",
        "key": "t_uint256",
        "label": "mapping(uint256 => string)",
        "numberOfBytes": "32",
        "value": "t_string_storage"
      },
      "t_mapping(t_uint256,t_uint256)": {
        "encoding": "mapping",
        "key": "t_uint256",
        "label": "mapping(uint256 => uint256)",
        "numberOfBytes": "32",
        "value": "t_uint256"
      },
      "t_string_storage": {
        "encoding": "bytes",
        "label": "string",
        "numberOfBytes": "32"
      },
      "t_uint256": {
        "encoding": "inplace",
        "label": "uint256",
        "numberOfBytes": "32"
      }
    }
  }
}