{
  "_format": "hh-sol-artifact-1",
  "contractName": "MyNFT",
  "sourceName": "contracts/NFT_deployment.sol",
  "abi": [
    {
      "inputs": [],
      "stateMutability": "nonpayable",
      "type": "constructor"
    },
    {
      "anonymous": false,
      "inputs": [
        {
          "indexed": true,
          "internalType": "address",
          "name": "owner",
          "type": "address"
        },
        {
          "indexed": true,
          "internalType": "address",
          "name": "approved",
          "type": "address"
        },
        {
          "indexed": true,
          "internalType": "uint256",
          "name": "tokenId",
          "type": "uint256"
        }
      ],
      "name": "Approval",
      "type": "event"
    },
    {
      "anonymous": false,
      "inputs": [
        {
          "indexed": true,
          "internalType": "address",
          "name": "owner",
          "type": "address"
        },
        {
          "indexed": true,
          "internalType": "address",
          "name": "operator",
          "type": "address"
        },
        {
          "indexed": false,
          "internalType": "bool",
          "name": "approved",
          "type": "bool"
        }
      ],
      "name": "ApprovalForAll",
      "type": "event"
    },
    {
      "anonymous": false,
      "inputs": [
        {
          "indexed": true,
          "internalType": "address",
          "name": "from",
          "type": "address"
        },
        {
          "indexed": true,
          "internalType": "address",
          "name": "to",
          "type": "address"
        },
        {
          "indexed": true,
          "internalType": "uint256",
          "name": "tokenId",
          "type": "uint256"
        }
      ],
      "name": "Transfer",
      "type": "event"
    },
    {
      "inputs": [
        {
          "internalType": "string",
          "name": "qrCodeData",
          "type": "string"
        }
      ],
      "name": "addValidQRCodeData",
      "outputs": [],
      "stateMutability": "nonpayable",
      "type": "function"
    },
    {
      "inputs": [
        {
          "internalType": "address",
          "name": "to",
          "type": "address"
        },
        {
          "internalType": "uint256",
          "name": "tokenId",
          "type": "uint256"
        }
      ],
      "name": "approve",
      "outputs": [],
      "stateMutability": "nonpayable",
      "type": "function"
    },
    {
      "inputs": [
        {
          "internalType": "address",
          "name": "owner",
          "type": "address"
        }
      ],
      "name": "balanceOf",
      "outputs": [
        {
          "internalType": "uint256",
          "name": "",
          "type": "uint256"
        }
      ],
      "stateMutability": "view",
      "type": "function"
    },
    {
      "inputs": [
        {
          "internalType": "uint256",
          "name": "tokenId",
          "type": "uint256"
        }
      ],
      "name": "getApproved",
      "outputs": [
        {
          "internalType": "address",
          "name": "",
          "type": "address"
        }
      ],
      "stateMutability": "view",
      "type": "function"
    },
    {
      "inputs": [
        {
          "internalType": "address",
          "name": "owner",
          "type": "address"
        },
        {
          "internalType": "address",
          "name": "operator",
          "type": "address"
        }
      ],
      "name": "isApprovedForAll",
      "outputs": [
        {
          "internalType": "bool",
          "name": "",
          "type": "bool"
        }
      ],
      "stateMutability": "view",
      "type": "function"
    },
    {
      "inputs": [
        {
          "internalType": "string",
          "name": "qrCodeData",
          "type": "string"
        }
      ],
      "name": "isQRCodeDataValid",
      "outputs": [
        {
          "internalType": "bool",
          "name": "",
          "type": "bool"
        }
      ],
      "stateMutability": "view",
      "type": "function"
    },
    {
      "inputs": [
        {
          "internalType": "address",
          "name": "recipient",
          "type": "address"
        },
        {
          "internalType": "string",
          "name": "tokenURI",
          "type": "string"
        },
        {
          "internalType": "string",
          "name": "qrCodeData",
          "type": "string"
        }
      ],
      "name": "mintNFT",
      "outputs": [
        {
          "internalType": "uint256",
          "name": "",
          "type": "uint256"
        }
      ],
      "stateMutability": "nonpayable",
      "type": "function"
    },
    {
      "inputs": [],
      "name": "name",
      "outputs": [
        {
          "internalType": "string",
          "name": "",
          "type": "string"
        }
      ],
      "stateMutability": "view",
      "type": "function"
    },
    {
      "inputs": [
        {
          "internalType": "uint256",
          "name": "tokenId",
          "type": "uint256"
        }
      ],
      "name": "ownerOf",
      "outputs": [
        {
          "internalType": "address",
          "name": "",
          "type": "address"
        }
      ],
      "stateMutability": "view",
      "type": "function"
    },
    {
      "inputs": [
        {
          "internalType": "address",
          "name": "from",
          "type": "address"
        },
        {
          "internalType": "address",
          "name": "to",
          "type": "address"
        },
        {
          "internalType": "uint256",
          "name": "tokenId",
          "type": "uint256"
        }
      ],
      "name": "safeTransferFrom",
      "outputs": [],
      "stateMutability": "nonpayable",
      "type": "function"
    },
    {
      "inputs": [
        {
          "internalType": "address",
          "name": "from",
          "type": "address"
        },
        {
          "internalType": "address",
          "name": "to",
          "type": "address"
        },
        {
          "internalType": "uint256",
          "name": "tokenId",
          "type": "uint256"
        },
        {
          "internalType": "bytes",
          "name": "data",
          "type": "bytes"
        }
      ],
      "name": "safeTransferFrom",
      "outputs": [],
      "stateMutability": "nonpayable",
      "type": "function"
    },
    {
      "inputs": [
        {
          "internalType": "address",
          "name": "operator",
          "type": "address"
        },
        {
          "internalType": "bool",
          "name": "approved",
          "type": "bool"
        }
      ],
      "name": "setApprovalForAll",
      "outputs": [],
      "stateMutability": "nonpayable",
      "type": "function"
    },
    {
      "inputs": [
        {
          "internalType": "bytes4",
          "name": "interfaceId",
          "type": "bytes4"
        }
      ],
      "name": "supportsInterface",
      "outputs": [
        {
          "internalType": "bool",
          "name": "",
          "type": "bool"
        }
      ],
      "stateMutability": "view",
      "type": "function"
    },
    {
      "inputs": [],
      "name": "symbol",
      "outputs": [
        {
          "internalType": "string",
          "name": "",
          "type": "string"
        }
      ],
      "stateMutability": "view",
      "type": "function"
    },
    {
      "inputs": [
        {
          "internalType": "uint256",
          "name": "tokenId",
          "type": "uint256"
        }
      ],
      "name": "tokenURI",
      "outputs": [
        {
          "internalType": "string",
          "name": "",
          "type": "string"
        }
      ],
      "stateMutability": "view",
      "type": "function"
    },
    {
      "inputs": [
        {
          "internalType": "address",
          "name": "from",
          "type": "address"
        },
        {
          "internalType": "address",
          "name": "to",
          "type": "address"
        },
        {
          "internalType": "uint256",
          "name": "tokenId",
          "type": "uint256"
        }
      ],
      "name": "transferFrom",
      "outputs": [],
      "stateMutability": "nonpayable",
      "type": "function"
    }
  ],
  "bytecode": "0x60806040523480156200001157600080fd5b506040518060400160405280600581526020017f4d794e46540000000000000000000000000000000000000000000000000000008152506040518060400160405280600481526020017f4d4e465400000000000000000000000000000000000000000000000000000000815250816000908051906020019062000096929190620000b8565b508060019080519060200190620000af929190620000b8565b505050620001cd565b828054620000c69062000168565b90600052602060002090601f016020900481019282620000ea576000855562000136565b82601f106200010557805160ff191683800117855562000136565b8280016001018555821562000136579182015b828111156200013557825182559160200191906001019062000118565b5b50905062000145919062000149565b5090565b5b80821115620001645760008160009055506001016200014a565b5090565b600060028204905060018216806200018157607f821691505b602082108114156200019857620001976200019e565b5b50919050565b7f4e487b7100000000000000000000000000000000000000000000000000000000600052602260045260246000fd5b612b5480620001dd6000396000f3fe608060405234801561001057600080fd5b50600436106101005760003560e01c8063689a6ebe11610097578063a3ee38ae11610066578063a3ee38ae146102bd578063b88d4fde146102ed578063c87b56dd14610309578063e985e9c51461033957610100565b8063689a6ebe1461022357806370a082311461025357806395d89b4114610283578063a22cb465146102a157610100565b806323b872dd116100d357806323b872dd1461019f57806330867cb8146101bb57806342842e0e146101d75780636352211e146101f357610100565b806301ffc9a71461010557806306fdde0314610135578063081812fc14610153578063095ea7b314610183575b600080fd5b61011f600480360381019061011a9190611f3e565b610369565b60405161012c9190612333565b60405180910390f35b61013d61044b565b60405161014a919061234e565b60405180910390f35b61016d60048036038101906101689190611fd1565b6104dd565b60405161017a91906122cc565b60405180910390f35b61019d60048036038101906101989190611f02565b610523565b005b6101b960048036038101906101b49190611d7d565b61063b565b005b6101d560048036038101906101d09190611f90565b61069b565b005b6101f160048036038101906101ec9190611d7d565b6106d5565b005b61020d60048036038101906102089190611fd1565b6106f5565b60405161021a91906122cc565b60405180910390f35b61023d60048036038101906102389190611f90565b61077c565b60405161024a9190612333565b60405180910390f35b61026d60048036038101906102689190611d18565b6107b1565b60405161027a9190612510565b60405180910390f35b61028b610869565b604051610298919061234e565b60405180910390f35b6102bb60048036038101906102b69190611e47565b6108fb565b005b6102d760048036038101906102d29190611e83565b610911565b6040516102e49190612510565b60405180910390f35b61030760048036038101906103029190611dcc565b610991565b005b610323600480360381019061031e9190611fd1565b6109f3565b604051610330919061234e565b60405180910390f35b610353600480360381019061034e9190611d41565b610b06565b6040516103609190612333565b60405180910390f35b60007f80ac58cd000000000000000000000000000000000000000000000000000000007bffffffffffffffffffffffffffffffffffffffffffffffffffffffff1916827bffffffffffffffffffffffffffffffffffffffffffffffffffffffff1916148061043457507f5b5e139f000000000000000000000000000000000000000000000000000000007bffffffffffffffffffffffffffffffffffffffffffffffffffffffff1916827bffffffffffffffffffffffffffffffffffffffffffffffffffffffff1916145b80610444575061044382610b9a565b5b9050919050565b60606000805461045a906126ab565b80601f0160208091040260200160405190810160405280929190818152602001828054610486906126ab565b80156104d35780601f106104a8576101008083540402835291602001916104d3565b820191906000526020600020905b8154815290600101906020018083116104b657829003601f168201915b5050505050905090565b60006104e882610c04565b6004600083815260200190815260200160002060009054906101000a900473ffffffffffffffffffffffffffffffffffffffff169050919050565b600061052e826106f5565b90508073ffffffffffffffffffffffffffffffffffffffff168373ffffffffffffffffffffffffffffffffffffffff16141561059f576040517f08c379a0000000000000000000000000000000000000000000000000000000008152600401610596906124d0565b60405180910390fd5b8073ffffffffffffffffffffffffffffffffffffffff166105be610c4f565b73ffffffffffffffffffffffffffffffffffffffff1614806105ed57506105ec816105e7610c4f565b610b06565b5b61062c576040517f08c379a0000000000000000000000000000000000000000000000000000000008152600401610623906124f0565b60405180910390fd5b6106368383610c57565b505050565b61064c610646610c4f565b82610d10565b61068b576040517f08c379a000000000000000000000000000000000000000000000000000000000815260040161068290612370565b60405180910390fd5b610696838383610da5565b505050565b60016008826040516106ad9190612291565b908152602001604051809103902060006101000a81548160ff02191690831515021790555050565b6106f083838360405180602001604052806000815250610991565b505050565b6000806107018361109f565b9050600073ffffffffffffffffffffffffffffffffffffffff168173ffffffffffffffffffffffffffffffffffffffff161415610773576040517f08c379a000000000000000000000000000000000000000000000000000000000815260040161076a906124b0565b60405180910390fd5b80915050919050565b600060088260405161078e9190612291565b908152602001604051809103902060009054906101000a900460ff169050919050565b60008073ffffffffffffffffffffffffffffffffffffffff168273ffffffffffffffffffffffffffffffffffffffff161415610822576040517f08c379a000000000000000000000000000000000000000000000000000000000815260040161081990612450565b60405180910390fd5b600360008373ffffffffffffffffffffffffffffffffffffffff1673ffffffffffffffffffffffffffffffffffffffff168152602001908152602001600020549050919050565b606060018054610878906126ab565b80601f01602080910402602001604051908101604052809291908181526020018280546108a4906126ab565b80156108f15780601f106108c6576101008083540402835291602001916108f1565b820191906000526020600020905b8154815290600101906020018083116108d457829003601f168201915b5050505050905090565b61090d610906610c4f565b83836110dc565b5050565b60008061091e6007611249565b90506109298361077c565b610968576040517f08c379a000000000000000000000000000000000000000000000000000000000815260040161095f90612430565b60405180910390fd5b6109728582611257565b61097c8185611475565b61098660076114e9565b809150509392505050565b6109a261099c610c4f565b83610d10565b6109e1576040517f08c379a00000000000000000000000000000000000000000000000000000000081526004016109d890612370565b60405180910390fd5b6109ed848484846114ff565b50505050565b60606109fe82610c04565b6000600660008481526020019081526020016000208054610a1e906126ab565b80601f0160208091040260200160405190810160405280929190818152602001828054610a4a906126ab565b8015610a975780601f10610a6c57610100808354040283529160200191610a97565b820191906000526020600020905b815481529060010190602001808311610a7a57829003601f168201915b505050505090506000610aa861155b565b9050600081511415610abe578192505050610b01565b600082511115610af3578082604051602001610adb9291906122a8565b60405160208183030381529060405292505050610b01565b610afc84611572565b925050505b919050565b6000600560008473ffffffffffffffffffffffffffffffffffffffff1673ffffffffffffffffffffffffffffffffffffffff16815260200190815260200160002060008373ffffffffffffffffffffffffffffffffffffffff1673ffffffffffffffffffffffffffffffffffffffff16815260200190815260200160002060009054906101000a900460ff16905092915050565b60007f01ffc9a7000000000000000000000000000000000000000000000000000000007bffffffffffffffffffffffffffffffffffffffffffffffffffffffff1916827bffffffffffffffffffffffffffffffffffffffffffffffffffffffff1916149050919050565b610c0d816115da565b610c4c576040517f08c379a0000000000000000000000000000000000000000000000000000000008152600401610c43906124b0565b60405180910390fd5b50565b600033905090565b816004600083815260200190815260200160002060006101000a81548173ffffffffffffffffffffffffffffffffffffffff021916908373ffffffffffffffffffffffffffffffffffffffff160217905550808273ffffffffffffffffffffffffffffffffffffffff16610cca836106f5565b73ffffffffffffffffffffffffffffffffffffffff167f8c5be1e5ebec7d5bd14f71427d1e84f3dd0314c0f7b2291e5b200ac8c7c3b92560405160405180910390a45050565b600080610d1c836106f5565b90508073ffffffffffffffffffffffffffffffffffffffff168473ffffffffffffffffffffffffffffffffffffffff161480610d5e5750610d5d8185610b06565b5b80610d9c57508373ffffffffffffffffffffffffffffffffffffffff16610d84846104dd565b73ffffffffffffffffffffffffffffffffffffffff16145b91505092915050565b8273ffffffffffffffffffffffffffffffffffffffff16610dc5826106f5565b73ffffffffffffffffffffffffffffffffffffffff1614610e1b576040517f08c379a0000000000000000000000000000000000000000000000000000000008152600401610e12906123b0565b60405180910390fd5b600073ffffffffffffffffffffffffffffffffffffffff168273ffffffffffffffffffffffffffffffffffffffff161415610e8b576040517f08c379a0000000000000000000000000000000000000000000000000000000008152600401610e82906123f0565b60405180910390fd5b610e98838383600161161b565b8273ffffffffffffffffffffffffffffffffffffffff16610eb8826106f5565b73ffffffffffffffffffffffffffffffffffffffff1614610f0e576040517f08c379a0000000000000000000000000000000000000000000000000000000008152600401610f05906123b0565b60405180910390fd5b6004600082815260200190815260200160002060006101000a81549073ffffffffffffffffffffffffffffffffffffffff02191690556001600360008573ffffffffffffffffffffffffffffffffffffffff1673ffffffffffffffffffffffffffffffffffffffff168152602001908152602001600020600082825403925050819055506001600360008473ffffffffffffffffffffffffffffffffffffffff1673ffffffffffffffffffffffffffffffffffffffff16815260200190815260200160002060008282540192505081905550816002600083815260200190815260200160002060006101000a81548173ffffffffffffffffffffffffffffffffffffffff021916908373ffffffffffffffffffffffffffffffffffffffff160217905550808273ffffffffffffffffffffffffffffffffffffffff168473ffffffffffffffffffffffffffffffffffffffff167fddf252ad1be2c89b69c2b068fc378daa952ba7f163c4a11628f55a4df523b3ef60405160405180910390a461109a8383836001611621565b505050565b60006002600083815260200190815260200160002060009054906101000a900473ffffffffffffffffffffffffffffffffffffffff169050919050565b8173ffffffffffffffffffffffffffffffffffffffff168373ffffffffffffffffffffffffffffffffffffffff16141561114b576040517f08c379a000000000000000000000000000000000000000000000000000000000815260040161114290612410565b60405180910390fd5b80600560008573ffffffffffffffffffffffffffffffffffffffff1673ffffffffffffffffffffffffffffffffffffffff16815260200190815260200160002060008473ffffffffffffffffffffffffffffffffffffffff1673ffffffffffffffffffffffffffffffffffffffff16815260200190815260200160002060006101000a81548160ff0219169083151502179055508173ffffffffffffffffffffffffffffffffffffffff168373ffffffffffffffffffffffffffffffffffffffff167f17307eab39ab6107e8899845ad3d59bd9653f200f220920489ca2b5937696c318360405161123c9190612333565b60405180910390a3505050565b600081600001549050919050565b600073ffffffffffffffffffffffffffffffffffffffff168273ffffffffffffffffffffffffffffffffffffffff1614156112c7576040517f08c379a00000000000000000000000000000000000000000000000000000000081526004016112be90612490565b60405180910390fd5b6112d0816115da565b15611310576040517f08c379a0000000000000000000000000000000000000000000000000000000008152600401611307906123d0565b60405180910390fd5b61131e60008383600161161b565b611327816115da565b15611367576040517f08c379a000000000000000000000000000000000000000000000000000000000815260040161135e906123d0565b60405180910390fd5b6001600360008473ffffffffffffffffffffffffffffffffffffffff1673ffffffffffffffffffffffffffffffffffffffff16815260200190815260200160002060008282540192505081905550816002600083815260200190815260200160002060006101000a81548173ffffffffffffffffffffffffffffffffffffffff021916908373ffffffffffffffffffffffffffffffffffffffff160217905550808273ffffffffffffffffffffffffffffffffffffffff16600073ffffffffffffffffffffffffffffffffffffffff167fddf252ad1be2c89b69c2b068fc378daa952ba7f163c4a11628f55a4df523b3ef60405160405180910390a4611471600083836001611621565b5050565b61147e826115da565b6114bd576040517f08c379a00000000000000000000000000000000000000000000000000000000081526004016114b490612470565b60405180910390fd5b806006600084815260200190815260200160002090805190602001906114e4929190611b3c565b505050565b6001816000016000828254019250508190555050565b61150a848484610da5565b61151684848484611627565b611555576040517f08c379a000000000000000000000000000000000000000000000000000000000815260040161154c90612390565b60405180910390fd5b50505050565b606060405180602001604052806000815250905090565b606061157d82610c04565b600061158761155b565b905060008151116115a757604051806020016040528060008152506115d2565b806115b1846117be565b6040516020016115c29291906122a8565b6040516020818303038152906040525b915050919050565b60008073ffffffffffffffffffffffffffffffffffffffff166115fc8361109f565b73ffffffffffffffffffffffffffffffffffffffff1614159050919050565b50505050565b50505050565b60006116488473ffffffffffffffffffffffffffffffffffffffff166118e2565b156117b1578373ffffffffffffffffffffffffffffffffffffffff1663150b7a02611671610c4f565b8786866040518563ffffffff1660e01b815260040161169394939291906122e7565b602060405180830381600087803b1580156116ad57600080fd5b505af19250505080156116de57506040513d601f19601f820116820180604052508101906116db9190611f67565b60015b611761573d806000811461170e576040519150601f19603f3d011682016040523d82523d6000602084013e611713565b606091505b50600081511415611759576040517f08c379a000000000000000000000000000000000000000000000000000000000815260040161175090612390565b60405180910390fd5b805181602001fd5b63150b7a0260e01b7bffffffffffffffffffffffffffffffffffffffffffffffffffffffff1916817bffffffffffffffffffffffffffffffffffffffffffffffffffffffff1916149150506117b6565b600190505b949350505050565b6060600060016117cd84611905565b01905060008167ffffffffffffffff811115611812577f4e487b7100000000000000000000000000000000000000000000000000000000600052604160045260246000fd5b6040519080825280601f01601f1916602001820160405280156118445781602001600182028036833780820191505090505b509050600082602001820190505b6001156118d7578080600190039150507f3031323334353637383961626364656600000000000000000000000000000000600a86061a8153600a85816118c1577f4e487b7100000000000000000000000000000000000000000000000000000000600052601260045260246000fd5b04945060008514156118d2576118d7565b611852565b819350505050919050565b6000808273ffffffffffffffffffffffffffffffffffffffff163b119050919050565b600080600090507a184f03e93ff9f4daa797ed6e38ed64bf6a1f0100000000000000008310611989577a184f03e93ff9f4daa797ed6e38ed64bf6a1f010000000000000000838161197f577f4e487b7100000000000000000000000000000000000000000000000000000000600052601260045260246000fd5b0492506040810190505b6d04ee2d6d415b85acef810000000083106119ec576d04ee2d6d415b85acef810000000083816119e2577f4e487b7100000000000000000000000000000000000000000000000000000000600052601260045260246000fd5b0492506020810190505b662386f26fc100008310611a4157662386f26fc100008381611a37577f4e487b7100000000000000000000000000000000000000000000000000000000600052601260045260246000fd5b0492506010810190505b6305f5e1008310611a90576305f5e1008381611a86577f4e487b7100000000000000000000000000000000000000000000000000000000600052601260045260246000fd5b0492506008810190505b6127108310611adb576127108381611ad1577f4e487b7100000000000000000000000000000000000000000000000000000000600052601260045260246000fd5b0492506004810190505b60648310611b245760648381611b1a577f4e487b7100000000000000000000000000000000000000000000000000000000600052601260045260246000fd5b0492506002810190505b600a8310611b33576001810190505b80915050919050565b828054611b48906126ab565b90600052602060002090601f016020900481019282611b6a5760008555611bb1565b82601f10611b8357805160ff1916838001178555611bb1565b82800160010185558215611bb1579182015b82811115611bb0578251825591602001919060010190611b95565b5b509050611bbe9190611bc2565b5090565b5b80821115611bdb576000816000905550600101611bc3565b5090565b6000611bf2611bed84612550565b61252b565b905082815260208101848484011115611c0a57600080fd5b611c15848285612669565b509392505050565b6000611c30611c2b84612581565b61252b565b905082815260208101848484011115611c4857600080fd5b611c53848285612669565b509392505050565b600081359050611c6a81612ac2565b92915050565b600081359050611c7f81612ad9565b92915050565b600081359050611c9481612af0565b92915050565b600081519050611ca981612af0565b92915050565b600082601f830112611cc057600080fd5b8135611cd0848260208601611bdf565b91505092915050565b600082601f830112611cea57600080fd5b8135611cfa848260208601611c1d565b91505092915050565b600081359050611d1281612b07565b92915050565b600060208284031215611d2a57600080fd5b6000611d3884828501611c5b565b91505092915050565b60008060408385031215611d5457600080fd5b6000611d6285828601611c5b565b9250506020611d7385828601611c5b565b9150509250929050565b600080600060608486031215611d9257600080fd5b6000611da086828701611c5b565b9350506020611db186828701611c5b565b9250506040611dc286828701611d03565b9150509250925092565b60008060008060808587031215611de257600080fd5b6000611df087828801611c5b565b9450506020611e0187828801611c5b565b9350506040611e1287828801611d03565b925050606085013567ffffffffffffffff811115611e2f57600080fd5b611e3b87828801611caf565b91505092959194509250565b60008060408385031215611e5a57600080fd5b6000611e6885828601611c5b565b9250506020611e7985828601611c70565b9150509250929050565b600080600060608486031215611e9857600080fd5b6000611ea686828701611c5b565b935050602084013567ffffffffffffffff811115611ec357600080fd5b611ecf86828701611cd9565b925050604084013567ffffffffffffffff811115611eec57600080fd5b611ef886828701611cd9565b9150509250925092565b60008060408385031215611f1557600080fd5b6000611f2385828601611c5b565b9250506020611f3485828601611d03565b9150509250929050565b600060208284031215611f5057600080fd5b6000611f5e84828501611c85565b91505092915050565b600060208284031215611f7957600080fd5b6000611f8784828501611c9a565b91505092915050565b600060208284031215611fa257600080fd5b600082013567ffffffffffffffff811115611fbc57600080fd5b611fc884828501611cd9565b91505092915050565b600060208284031215611fe357600080fd5b6000611ff184828501611d03565b91505092915050565b612003816125f5565b82525050565b61201281612607565b82525050565b6000612023826125b2565b61202d81856125c8565b935061203d818560208601612678565b6120468161276c565b840191505092915050565b600061205c826125bd565b61206681856125d9565b9350612076818560208601612678565b61207f8161276c565b840191505092915050565b6000612095826125bd565b61209f81856125ea565b93506120af818560208601612678565b80840191505092915050565b60006120c8602d836125d9565b91506120d38261277d565b604082019050919050565b60006120eb6032836125d9565b91506120f6826127cc565b604082019050919050565b600061210e6025836125d9565b91506121198261281b565b604082019050919050565b6000612131601c836125d9565b915061213c8261286a565b602082019050919050565b60006121546024836125d9565b915061215f82612893565b604082019050919050565b60006121776019836125d9565b9150612182826128e2565b602082019050919050565b600061219a6014836125d9565b91506121a58261290b565b602082019050919050565b60006121bd6029836125d9565b91506121c882612934565b604082019050919050565b60006121e0602e836125d9565b91506121eb82612983565b604082019050919050565b60006122036020836125d9565b915061220e826129d2565b602082019050919050565b60006122266018836125d9565b9150612231826129fb565b602082019050919050565b60006122496021836125d9565b915061225482612a24565b604082019050919050565b600061226c603d836125d9565b915061227782612a73565b604082019050919050565b61228b8161265f565b82525050565b600061229d828461208a565b915081905092915050565b60006122b4828561208a565b91506122c0828461208a565b91508190509392505050565b60006020820190506122e16000830184611ffa565b92915050565b60006080820190506122fc6000830187611ffa565b6123096020830186611ffa565b6123166040830185612282565b81810360608301526123288184612018565b905095945050505050565b60006020820190506123486000830184612009565b92915050565b600060208201905081810360008301526123688184612051565b905092915050565b60006020820190508181036000830152612389816120bb565b9050919050565b600060208201905081810360008301526123a9816120de565b9050919050565b600060208201905081810360008301526123c981612101565b9050919050565b600060208201905081810360008301526123e981612124565b9050919050565b6000602082019050818103600083015261240981612147565b9050919050565b600060208201905081810360008301526124298161216a565b9050919050565b600060208201905081810360008301526124498161218d565b9050919050565b60006020820190508181036000830152612469816121b0565b9050919050565b60006020820190508181036000830152612489816121d3565b9050919050565b600060208201905081810360008301526124a9816121f6565b9050919050565b600060208201905081810360008301526124c981612219565b9050919050565b600060208201905081810360008301526124e98161223c565b9050919050565b600060208201905081810360008301526125098161225f565b9050919050565b60006020820190506125256000830184612282565b92915050565b6000612535612546565b905061254182826126dd565b919050565b6000604051905090565b600067ffffffffffffffff82111561256b5761256a61273d565b5b6125748261276c565b9050602081019050919050565b600067ffffffffffffffff82111561259c5761259b61273d565b5b6125a58261276c565b9050602081019050919050565b600081519050919050565b600081519050919050565b600082825260208201905092915050565b600082825260208201905092915050565b600081905092915050565b60006126008261263f565b9050919050565b60008115159050919050565b60007fffffffff0000000000000000000000000000000000000000000000000000000082169050919050565b600073ffffffffffffffffffffffffffffffffffffffff82169050919050565b6000819050919050565b82818337600083830152505050565b60005b8381101561269657808201518184015260208101905061267b565b838111156126a5576000848401525b50505050565b600060028204905060018216806126c357607f821691505b602082108114156126d7576126d661270e565b5b50919050565b6126e68261276c565b810181811067ffffffffffffffff821117156127055761270461273d565b5b80604052505050565b7f4e487b7100000000000000000000000000000000000000000000000000000000600052602260045260246000fd5b7f4e487b7100000000000000000000000000000000000000000000000000000000600052604160045260246000fd5b6000601f19601f8301169050919050565b7f4552433732313a2063616c6c6572206973206e6f7420746f6b656e206f776e6560008201527f72206f7220617070726f76656400000000000000000000000000000000000000602082015250565b7f4552433732313a207472616e7366657220746f206e6f6e20455243373231526560008201527f63656976657220696d706c656d656e7465720000000000000000000000000000602082015250565b7f4552433732313a207472616e736665722066726f6d20696e636f72726563742060008201527f6f776e6572000000000000000000000000000000000000000000000000000000602082015250565b7f4552433732313a20746f6b656e20616c7265616479206d696e74656400000000600082015250565b7f4552433732313a207472616e7366657220746f20746865207a65726f2061646460008201527f7265737300000000000000000000000000000000000000000000000000000000602082015250565b7f4552433732313a20617070726f766520746f2063616c6c657200000000000000600082015250565b7f496e76616c696420515220636f64652064617461000000000000000000000000600082015250565b7f4552433732313a2061646472657373207a65726f206973206e6f74206120766160008201527f6c6964206f776e65720000000000000000000000000000000000000000000000602082015250565b7f45524337323155524953746f726167653a2055524920736574206f66206e6f6e60008201527f6578697374656e7420746f6b656e000000000000000000000000000000000000602082015250565b7f4552433732313a206d696e7420746f20746865207a65726f2061646472657373600082015250565b7f4552433732313a20696e76616c696420746f6b656e2049440000000000000000600082015250565b7f4552433732313a20617070726f76616c20746f2063757272656e74206f776e6560008201527f7200000000000000000000000000000000000000000000000000000000000000602082015250565b7f4552433732313a20617070726f76652063616c6c6572206973206e6f7420746f60008201527f6b656e206f776e6572206f7220617070726f76656420666f7220616c6c000000602082015250565b612acb816125f5565b8114612ad657600080fd5b50565b612ae281612607565b8114612aed57600080fd5b50565b612af981612613565b8114612b0457600080fd5b50565b612b108161265f565b8114612b1b57600080fd5b5056fea264697066735822122070b3c3b920a24cebab928e3fd299fc22143f5f6b323f09690b98c6c3004e26a164736f6c63430008040033",
  "linkReferences": {},
  "deployedLinkReferences": {}
}